{
  "_format": "hh-sol-artifact-1",
  "contractName": "BurnERC721",
  "sourceName": "contracts/demo/burnERC721.sol",
  "abi": [
    {
      "inputs": [
        {
          "internalType": "address",
          "name": "_tokenAddress",
          "type": "address"
        }
      ],
      "stateMutability": "nonpayable",
      "type": "constructor"
    },
    {
      "inputs": [
        {
          "internalType": "uint256",
          "name": "tokenID",
          "type": "uint256"
        }
      ],
      "name": "Balance",
      "outputs": [
        {
          "internalType": "address",
          "name": "",
          "type": "address"
        }
      ],
      "stateMutability": "view",
      "type": "function"
    },
    {
      "inputs": [
        {
          "internalType": "uint256",
          "name": "tokenID",
          "type": "uint256"
        }
      ],
      "name": "burn",
      "outputs": [],
      "stateMutability": "nonpayable",
      "type": "function"
    },
    {
      "inputs": [],
      "name": "tokenAddress",
      "outputs": [
        {
          "internalType": "address",
          "name": "",
          "type": "address"
        }
      ],
      "stateMutability": "view",
      "type": "function"
    }
  ],
  "bytecode": "0x608060405234801561001057600080fd5b5060405161049e38038061049e8339818101604052810190610032919061008d565b806000806101000a81548173ffffffffffffffffffffffffffffffffffffffff021916908373ffffffffffffffffffffffffffffffffffffffff160217905550506100ff565b600081519050610087816100e8565b92915050565b60006020828403121561009f57600080fd5b60006100ad84828501610078565b91505092915050565b60006100c1826100c8565b9050919050565b600073ffffffffffffffffffffffffffffffffffffffff82169050919050565b6100f1816100b6565b81146100fc57600080fd5b50565b6103908061010e6000396000f3fe608060405234801561001057600080fd5b50600436106100415760003560e01c806342966c68146100465780639d76ea5814610062578063e8d947d714610080575b600080fd5b610060600480360381019061005b9190610273565b6100b0565b005b61006a610145565b60405161007791906102ba565b60405180910390f35b61009a60048036038101906100959190610273565b610169565b6040516100a791906102ba565b60405180910390f35b60008060009054906101000a900473ffffffffffffffffffffffffffffffffffffffff1690508073ffffffffffffffffffffffffffffffffffffffff166342966c68836040518263ffffffff1660e01b815260040161010f91906102d5565b600060405180830381600087803b15801561012957600080fd5b505af115801561013d573d6000803e3d6000fd5b505050505050565b60008054906101000a900473ffffffffffffffffffffffffffffffffffffffff1681565b60008060008054906101000a900473ffffffffffffffffffffffffffffffffffffffff1690508073ffffffffffffffffffffffffffffffffffffffff16636352211e846040518263ffffffff1660e01b81526004016101c891906102d5565b60206040518083038186803b1580156101e057600080fd5b505afa1580156101f4573d6000803e3d6000fd5b505050506040513d601f19601f82011682018060405250810190610218919061024a565b915050919050565b60008151905061022f8161032c565b92915050565b60008135905061024481610343565b92915050565b60006020828403121561025c57600080fd5b600061026a84828501610220565b91505092915050565b60006020828403121561028557600080fd5b600061029384828501610235565b91505092915050565b6102a5816102f0565b82525050565b6102b481610322565b82525050565b60006020820190506102cf600083018461029c565b92915050565b60006020820190506102ea60008301846102ab565b92915050565b60006102fb82610302565b9050919050565b600073ffffffffffffffffffffffffffffffffffffffff82169050919050565b6000819050919050565b610335816102f0565b811461034057600080fd5b50565b61034c81610322565b811461035757600080fd5b5056fea26469706673582212204f17916e949c9349226883e4a397ef37f179546f8f85bf22531e9b533ea4b08864736f6c63430008040033",
  "linkReferences": {},
  "deployedLinkReferences": {}
}