{
  "_format": "hh-sol-artifact-1",
  "contractName": "A",
  "sourceName": "contracts/demo/A.sol",
  "abi": [
    {
      "inputs": [],
      "name": "ResAddr",
      "outputs": [
        {
          "internalType": "address",
          "name": "",
          "type": "address"
        }
      ],
      "stateMutability": "view",
      "type": "function"
    },
    {
      "inputs": [
        {
          "internalType": "address",
          "name": "hAddr",
          "type": "address"
        }
      ],
      "name": "exec",
      "outputs": [],
      "stateMutability": "nonpayable",
      "type": "function"
    }
  ],
  "bytecode": "0x608060405234801561001057600080fd5b50610286806100206000396000f3fe608060405234801561001057600080fd5b50600436106100365760003560e01c80636bb6126e1461003b578063d7956cff14610057575b600080fd5b6100556004803603810190610050919061018b565b610075565b005b61005f61013d565b60405161006c91906101ec565b60405180910390f35b60008190508073ffffffffffffffffffffffffffffffffffffffff1663c1c0e9c46040518163ffffffff1660e01b8152600401602060405180830381600087803b1580156100c257600080fd5b505af11580156100d6573d6000803e3d6000fd5b505050506040513d601f19601f820116820180604052508101906100fa91906101b4565b6000806101000a81548173ffffffffffffffffffffffffffffffffffffffff021916908373ffffffffffffffffffffffffffffffffffffffff1602179055505050565b60008054906101000a900473ffffffffffffffffffffffffffffffffffffffff1681565b60008135905061017081610239565b92915050565b60008151905061018581610239565b92915050565b60006020828403121561019d57600080fd5b60006101ab84828501610161565b91505092915050565b6000602082840312156101c657600080fd5b60006101d484828501610176565b91505092915050565b6101e681610207565b82525050565b600060208201905061020160008301846101dd565b92915050565b600061021282610219565b9050919050565b600073ffffffffffffffffffffffffffffffffffffffff82169050919050565b61024281610207565b811461024d57600080fd5b5056fea2646970667358221220b4240293db2156b1c72d90813945466c4502921cffb20213ab4fa70504ac3d7164736f6c63430008040033",
  "linkReferences": {},
  "deployedLinkReferences": {}
}