{
  "_format": "hh-sol-artifact-1",
  "contractName": "LockERC721",
  "sourceName": "contracts/demo/lockERC721.sol",
  "abi": [
    {
      "inputs": [
        {
          "internalType": "address",
          "name": "_tokenAddress",
          "type": "address"
        }
      ],
      "stateMutability": "nonpayable",
      "type": "constructor"
    },
    {
      "inputs": [
        {
          "internalType": "uint256",
          "name": "tokenID",
          "type": "uint256"
        }
      ],
      "name": "Balance",
      "outputs": [
        {
          "internalType": "address",
          "name": "",
          "type": "address"
        }
      ],
      "stateMutability": "view",
      "type": "function"
    },
    {
      "inputs": [
        {
          "internalType": "uint256",
          "name": "tokenID",
          "type": "uint256"
        }
      ],
      "name": "lock",
      "outputs": [],
      "stateMutability": "payable",
      "type": "function"
    },
    {
      "inputs": [],
      "name": "tokenAddress",
      "outputs": [
        {
          "internalType": "address",
          "name": "",
          "type": "address"
        }
      ],
      "stateMutability": "view",
      "type": "function"
    }
  ],
  "bytecode": "0x608060405234801561001057600080fd5b506040516104e63803806104e68339818101604052810190610032919061008d565b806000806101000a81548173ffffffffffffffffffffffffffffffffffffffff021916908373ffffffffffffffffffffffffffffffffffffffff160217905550506100ff565b600081519050610087816100e8565b92915050565b60006020828403121561009f57600080fd5b60006100ad84828501610078565b91505092915050565b60006100c1826100c8565b9050919050565b600073ffffffffffffffffffffffffffffffffffffffff82169050919050565b6100f1816100b6565b81146100fc57600080fd5b50565b6103d88061010e6000396000f3fe6080604052600436106100345760003560e01c80639d76ea5814610039578063dd46706414610064578063e8d947d714610080575b600080fd5b34801561004557600080fd5b5061004e6100bd565b60405161005b91906102cb565b60405180910390f35b61007e60048036038101906100799190610284565b6100e1565b005b34801561008c57600080fd5b506100a760048036038101906100a29190610284565b61017a565b6040516100b491906102cb565b60405180910390f35b60008054906101000a900473ffffffffffffffffffffffffffffffffffffffff1681565b60008060009054906101000a900473ffffffffffffffffffffffffffffffffffffffff1690508073ffffffffffffffffffffffffffffffffffffffff166323b872dd3330856040518463ffffffff1660e01b8152600401610144939291906102e6565b600060405180830381600087803b15801561015e57600080fd5b505af1158015610172573d6000803e3d6000fd5b505050505050565b60008060008054906101000a900473ffffffffffffffffffffffffffffffffffffffff1690508073ffffffffffffffffffffffffffffffffffffffff16636352211e846040518263ffffffff1660e01b81526004016101d9919061031d565b60206040518083038186803b1580156101f157600080fd5b505afa158015610205573d6000803e3d6000fd5b505050506040513d601f19601f82011682018060405250810190610229919061025b565b915050919050565b60008151905061024081610374565b92915050565b6000813590506102558161038b565b92915050565b60006020828403121561026d57600080fd5b600061027b84828501610231565b91505092915050565b60006020828403121561029657600080fd5b60006102a484828501610246565b91505092915050565b6102b681610338565b82525050565b6102c58161036a565b82525050565b60006020820190506102e060008301846102ad565b92915050565b60006060820190506102fb60008301866102ad565b61030860208301856102ad565b61031560408301846102bc565b949350505050565b600060208201905061033260008301846102bc565b92915050565b60006103438261034a565b9050919050565b600073ffffffffffffffffffffffffffffffffffffffff82169050919050565b6000819050919050565b61037d81610338565b811461038857600080fd5b50565b6103948161036a565b811461039f57600080fd5b5056fea26469706673582212205837fa6a73aa3481463ddeebf4307d945b9cf19117bf6d61cb9546f6cfa0dd3864736f6c63430008040033",
  "linkReferences": {},
  "deployedLinkReferences": {}
}