{
  "_format": "hh-sol-artifact-1",
  "contractName": "EncodeDecode",
  "sourceName": "contracts/demo/encodeDecode.sol",
  "abi": [
    {
      "inputs": [
        {
          "internalType": "bytes",
          "name": "data",
          "type": "bytes"
        }
      ],
      "name": "decode",
      "outputs": [
        {
          "internalType": "bytes32",
          "name": "",
          "type": "bytes32"
        },
        {
          "internalType": "uint256",
          "name": "",
          "type": "uint256"
        },
        {
          "internalType": "address",
          "name": "",
          "type": "address"
        }
      ],
      "stateMutability": "pure",
      "type": "function"
    },
    {
      "inputs": [
        {
          "internalType": "bytes32",
          "name": "resourceId",
          "type": "bytes32"
        },
        {
          "internalType": "uint256",
          "name": "targetChainId",
          "type": "uint256"
        },
        {
          "internalType": "address",
          "name": "targetContract",
          "type": "address"
        }
      ],
      "name": "encode",
      "outputs": [
        {
          "internalType": "bytes",
          "name": "",
          "type": "bytes"
        }
      ],
      "stateMutability": "pure",
      "type": "function"
    }
  ],
  "bytecode": "0x608060405234801561001057600080fd5b50610493806100206000396000f3fe608060405234801561001057600080fd5b50600436106100365760003560e01c80632e05d16d1461003b578063e5c5e9a31461006b575b600080fd5b610055600480360381019061005091906101a7565b61009d565b6040516100629190610327565b60405180910390f35b61008560048036038101906100809190610245565b6100d2565b604051610094939291906102f0565b60405180910390f35b606060008484846040516020016100b6939291906102f0565b6040516020818303038152906040529050809150509392505050565b60008060008060008087878101906100ea91906101f6565b8093508194508295505050508282829550955095505050509250925092565b60008135905061011881610401565b92915050565b60008135905061012d81610418565b92915050565b6000813590506101428161042f565b92915050565b60008083601f84011261015a57600080fd5b8235905067ffffffffffffffff81111561017357600080fd5b60208301915083600182028301111561018b57600080fd5b9250929050565b6000813590506101a181610446565b92915050565b6000806000606084860312156101bc57600080fd5b60006101ca86828701610133565b93505060206101db86828701610192565b92505060406101ec86828701610109565b9150509250925092565b60008060006060848603121561020b57600080fd5b600061021986828701610133565b935050602061022a86828701610192565b925050604061023b8682870161011e565b9150509250925092565b6000806020838503121561025857600080fd5b600083013567ffffffffffffffff81111561027257600080fd5b61027e85828601610148565b92509250509250929050565b61029381610365565b82525050565b6102a281610389565b82525050565b60006102b382610349565b6102bd8185610354565b93506102cd8185602086016103bd565b6102d6816103f0565b840191505092915050565b6102ea816103b3565b82525050565b60006060820190506103056000830186610299565b61031260208301856102e1565b61031f604083018461028a565b949350505050565b6000602082019050818103600083015261034181846102a8565b905092915050565b600081519050919050565b600082825260208201905092915050565b600061037082610393565b9050919050565b600061038282610393565b9050919050565b6000819050919050565b600073ffffffffffffffffffffffffffffffffffffffff82169050919050565b6000819050919050565b60005b838110156103db5780820151818401526020810190506103c0565b838111156103ea576000848401525b50505050565b6000601f19601f8301169050919050565b61040a81610365565b811461041557600080fd5b50565b61042181610377565b811461042c57600080fd5b50565b61043881610389565b811461044357600080fd5b50565b61044f816103b3565b811461045a57600080fd5b5056fea264697066735822122091f1b52b02fd265a2a6d343ed583bf5e46217ad2a030df35aa3daa63c8bf11ed64736f6c63430008040033",
  "linkReferences": {},
  "deployedLinkReferences": {}
}