{
  "_format": "hh-sol-artifact-1",
  "contractName": "EncodeDecode",
  "sourceName": "contracts/demo/encodeDecode2.sol",
  "abi": [
    {
      "inputs": [
        {
          "internalType": "bytes",
          "name": "data",
          "type": "bytes"
        }
      ],
      "name": "decode",
      "outputs": [
        {
          "internalType": "address",
          "name": "",
          "type": "address"
        }
      ],
      "stateMutability": "pure",
      "type": "function"
    },
    {
      "inputs": [
        {
          "internalType": "address",
          "name": "targetContract",
          "type": "address"
        },
        {
          "internalType": "bytes32",
          "name": "resourceId",
          "type": "bytes32"
        },
        {
          "internalType": "uint256",
          "name": "targetChainId",
          "type": "uint256"
        }
      ],
      "name": "encode",
      "outputs": [
        {
          "internalType": "bytes",
          "name": "",
          "type": "bytes"
        }
      ],
      "stateMutability": "pure",
      "type": "function"
    }
  ],
  "bytecode": "0x608060405234801561001057600080fd5b5061048f806100206000396000f3fe608060405234801561001057600080fd5b50600436106100365760003560e01c8063cd6aaa451461003b578063e5c5e9a31461006b575b600080fd5b610055600480360381019061005091906101cd565b61009b565b6040516100629190610319565b60405180910390f35b6100856004803603810190610080919061021c565b6100d0565b60405161009291906102c7565b60405180910390f35b606060008484846040516020016100b4939291906102e2565b6040516020818303038152906040529050809150509392505050565b6000606083836000906020926100e893929190610357565b8080601f016020809104026020016040519081016040528093929190818152602001838380828437600081840152601f19601f8201169050808301925050505050505090506000602082015190508060601c9250505092915050565b60008135905061015381610414565b92915050565b6000813590506101688161042b565b92915050565b60008083601f84011261018057600080fd5b8235905067ffffffffffffffff81111561019957600080fd5b6020830191508360018202830111156101b157600080fd5b9250929050565b6000813590506101c781610442565b92915050565b6000806000606084860312156101e257600080fd5b60006101f086828701610144565b935050602061020186828701610159565b9250506040610212868287016101b8565b9150509250925092565b6000806020838503121561022f57600080fd5b600083013567ffffffffffffffff81111561024957600080fd5b6102558582860161016e565b92509250509250929050565b61026a8161038a565b82525050565b6102798161039c565b82525050565b600061028a8261033b565b6102948185610346565b93506102a48185602086016103d0565b6102ad81610403565b840191505092915050565b6102c1816103c6565b82525050565b60006020820190506102dc6000830184610261565b92915050565b60006060820190506102f76000830186610261565b6103046020830185610270565b61031160408301846102b8565b949350505050565b60006020820190508181036000830152610333818461027f565b905092915050565b600081519050919050565b600082825260208201905092915050565b6000808585111561036757600080fd5b8386111561037457600080fd5b6001850283019150848603905094509492505050565b6000610395826103a6565b9050919050565b6000819050919050565b600073ffffffffffffffffffffffffffffffffffffffff82169050919050565b6000819050919050565b60005b838110156103ee5780820151818401526020810190506103d3565b838111156103fd576000848401525b50505050565b6000601f19601f8301169050919050565b61041d8161038a565b811461042857600080fd5b50565b6104348161039c565b811461043f57600080fd5b50565b61044b816103c6565b811461045657600080fd5b5056fea2646970667358221220566bf653c736827671ec060383e804960c81770a2a91e07575014db9eb4c71f664736f6c63430008040033",
  "linkReferences": {},
  "deployedLinkReferences": {}
}