{
  "_format": "hh-sol-artifact-1",
  "contractName": "Game721",
  "sourceName": "contracts/demo/erc721A.sol",
  "abi": [
    {
      "inputs": [],
      "stateMutability": "nonpayable",
      "type": "constructor"
    },
    {
      "anonymous": false,
      "inputs": [
        {
          "indexed": true,
          "internalType": "address",
          "name": "owner",
          "type": "address"
        },
        {
          "indexed": true,
          "internalType": "address",
          "name": "approved",
          "type": "address"
        },
        {
          "indexed": true,
          "internalType": "uint256",
          "name": "tokenId",
          "type": "uint256"
        }
      ],
      "name": "Approval",
      "type": "event"
    },
    {
      "anonymous": false,
      "inputs": [
        {
          "indexed": true,
          "internalType": "address",
          "name": "owner",
          "type": "address"
        },
        {
          "indexed": true,
          "internalType": "address",
          "name": "operator",
          "type": "address"
        },
        {
          "indexed": false,
          "internalType": "bool",
          "name": "approved",
          "type": "bool"
        }
      ],
      "name": "ApprovalForAll",
      "type": "event"
    },
    {
      "anonymous": false,
      "inputs": [
        {
          "indexed": true,
          "internalType": "address",
          "name": "from",
          "type": "address"
        },
        {
          "indexed": true,
          "internalType": "address",
          "name": "to",
          "type": "address"
        },
        {
          "indexed": true,
          "internalType": "uint256",
          "name": "tokenId",
          "type": "uint256"
        }
      ],
      "name": "Transfer",
      "type": "event"
    },
    {
      "inputs": [
        {
          "internalType": "address",
          "name": "to",
          "type": "address"
        },
        {
          "internalType": "uint256",
          "name": "tokenId",
          "type": "uint256"
        }
      ],
      "name": "approve",
      "outputs": [],
      "stateMutability": "nonpayable",
      "type": "function"
    },
    {
      "inputs": [
        {
          "internalType": "address",
          "name": "player",
          "type": "address"
        },
        {
          "internalType": "string",
          "name": "tokenURI",
          "type": "string"
        }
      ],
      "name": "awardItem",
      "outputs": [
        {
          "internalType": "uint256",
          "name": "",
          "type": "uint256"
        }
      ],
      "stateMutability": "nonpayable",
      "type": "function"
    },
    {
      "inputs": [
        {
          "internalType": "address",
          "name": "owner",
          "type": "address"
        }
      ],
      "name": "balanceOf",
      "outputs": [
        {
          "internalType": "uint256",
          "name": "",
          "type": "uint256"
        }
      ],
      "stateMutability": "view",
      "type": "function"
    },
    {
      "inputs": [
        {
          "internalType": "uint256",
          "name": "tokenId",
          "type": "uint256"
        }
      ],
      "name": "getApproved",
      "outputs": [
        {
          "internalType": "address",
          "name": "",
          "type": "address"
        }
      ],
      "stateMutability": "view",
      "type": "function"
    },
    {
      "inputs": [
        {
          "internalType": "address",
          "name": "owner",
          "type": "address"
        },
        {
          "internalType": "address",
          "name": "operator",
          "type": "address"
        }
      ],
      "name": "isApprovedForAll",
      "outputs": [
        {
          "internalType": "bool",
          "name": "",
          "type": "bool"
        }
      ],
      "stateMutability": "view",
      "type": "function"
    },
    {
      "inputs": [
        {
          "internalType": "address",
          "name": "tokenAddress",
          "type": "address"
        },
        {
          "internalType": "uint256",
          "name": "tokenId",
          "type": "uint256"
        }
      ],
      "name": "metaData",
      "outputs": [
        {
          "internalType": "string",
          "name": "",
          "type": "string"
        }
      ],
      "stateMutability": "view",
      "type": "function"
    },
    {
      "inputs": [],
      "name": "name",
      "outputs": [
        {
          "internalType": "string",
          "name": "",
          "type": "string"
        }
      ],
      "stateMutability": "view",
      "type": "function"
    },
    {
      "inputs": [
        {
          "internalType": "uint256",
          "name": "tokenId",
          "type": "uint256"
        }
      ],
      "name": "ownerOf",
      "outputs": [
        {
          "internalType": "address",
          "name": "",
          "type": "address"
        }
      ],
      "stateMutability": "view",
      "type": "function"
    },
    {
      "inputs": [
        {
          "internalType": "address",
          "name": "from",
          "type": "address"
        },
        {
          "internalType": "address",
          "name": "to",
          "type": "address"
        },
        {
          "internalType": "uint256",
          "name": "tokenId",
          "type": "uint256"
        }
      ],
      "name": "safeTransferFrom",
      "outputs": [],
      "stateMutability": "nonpayable",
      "type": "function"
    },
    {
      "inputs": [
        {
          "internalType": "address",
          "name": "from",
          "type": "address"
        },
        {
          "internalType": "address",
          "name": "to",
          "type": "address"
        },
        {
          "internalType": "uint256",
          "name": "tokenId",
          "type": "uint256"
        },
        {
          "internalType": "bytes",
          "name": "_data",
          "type": "bytes"
        }
      ],
      "name": "safeTransferFrom",
      "outputs": [],
      "stateMutability": "nonpayable",
      "type": "function"
    },
    {
      "inputs": [
        {
          "internalType": "address",
          "name": "operator",
          "type": "address"
        },
        {
          "internalType": "bool",
          "name": "approved",
          "type": "bool"
        }
      ],
      "name": "setApprovalForAll",
      "outputs": [],
      "stateMutability": "nonpayable",
      "type": "function"
    },
    {
      "inputs": [
        {
          "internalType": "bytes4",
          "name": "interfaceId",
          "type": "bytes4"
        }
      ],
      "name": "supportsInterface",
      "outputs": [
        {
          "internalType": "bool",
          "name": "",
          "type": "bool"
        }
      ],
      "stateMutability": "view",
      "type": "function"
    },
    {
      "inputs": [],
      "name": "symbol",
      "outputs": [
        {
          "internalType": "string",
          "name": "",
          "type": "string"
        }
      ],
      "stateMutability": "view",
      "type": "function"
    },
    {
      "inputs": [
        {
          "internalType": "uint256",
          "name": "tokenId",
          "type": "uint256"
        }
      ],
      "name": "tokenURI",
      "outputs": [
        {
          "internalType": "string",
          "name": "",
          "type": "string"
        }
      ],
      "stateMutability": "view",
      "type": "function"
    },
    {
      "inputs": [
        {
          "internalType": "address",
          "name": "from",
          "type": "address"
        },
        {
          "internalType": "address",
          "name": "to",
          "type": "address"
        },
        {
          "internalType": "uint256",
          "name": "tokenId",
          "type": "uint256"
        }
      ],
      "name": "transferFrom",
      "outputs": [],
      "stateMutability": "nonpayable",
      "type": "function"
    }
  ],
  "bytecode": "0x60806040523480156200001157600080fd5b506040518060400160405280600781526020017f47616d65373231000000000000000000000000000000000000000000000000008152506040518060400160405280600481526020017f4937323100000000000000000000000000000000000000000000000000000000815250816000908051906020019062000096929190620000b8565b508060019080519060200190620000af929190620000b8565b505050620001cd565b828054620000c69062000168565b90600052602060002090601f016020900481019282620000ea576000855562000136565b82601f106200010557805160ff191683800117855562000136565b8280016001018555821562000136579182015b828111156200013557825182559160200191906001019062000118565b5b50905062000145919062000149565b5090565b5b80821115620001645760008160009055506001016200014a565b5090565b600060028204905060018216806200018157607f821691505b602082108114156200019857620001976200019e565b5b50919050565b7f4e487b7100000000000000000000000000000000000000000000000000000000600052602260045260246000fd5b612d1b80620001dd6000396000f3fe608060405234801561001057600080fd5b50600436106100f55760003560e01c806370a0823111610097578063c175922211610066578063c175922214610282578063c87b56dd146102b2578063cf378343146102e2578063e985e9c514610312576100f5565b806370a08231146101fc57806395d89b411461022c578063a22cb4651461024a578063b88d4fde14610266576100f5565b8063095ea7b3116100d3578063095ea7b31461017857806323b872dd1461019457806342842e0e146101b05780636352211e146101cc576100f5565b806301ffc9a7146100fa57806306fdde031461012a578063081812fc14610148575b600080fd5b610114600480360381019061010f9190611d87565b610342565b60405161012191906121ce565b60405180910390f35b610132610424565b60405161013f91906121e9565b60405180910390f35b610162600480360381019061015d9190611e1a565b6104b6565b60405161016f9190612167565b60405180910390f35b610192600480360381019061018d9190611d4b565b61053b565b005b6101ae60048036038101906101a99190611bf1565b610653565b005b6101ca60048036038101906101c59190611bf1565b6106b3565b005b6101e660048036038101906101e19190611e1a565b6106d3565b6040516101f39190612167565b60405180910390f35b61021660048036038101906102119190611b8c565b610785565b604051610223919061240b565b60405180910390f35b61023461083d565b60405161024191906121e9565b60405180910390f35b610264600480360381019061025f9190611cbb565b6108cf565b005b610280600480360381019061027b9190611c40565b6108e5565b005b61029c60048036038101906102979190611d4b565b610947565b6040516102a991906121e9565b60405180910390f35b6102cc60048036038101906102c79190611e1a565b6109e5565b6040516102d991906121e9565b60405180910390f35b6102fc60048036038101906102f79190611cf7565b610b37565b604051610309919061240b565b60405180910390f35b61032c60048036038101906103279190611bb5565b610b6e565b60405161033991906121ce565b60405180910390f35b60007f80ac58cd000000000000000000000000000000000000000000000000000000007bffffffffffffffffffffffffffffffffffffffffffffffffffffffff1916827bffffffffffffffffffffffffffffffffffffffffffffffffffffffff1916148061040d57507f5b5e139f000000000000000000000000000000000000000000000000000000007bffffffffffffffffffffffffffffffffffffffffffffffffffffffff1916827bffffffffffffffffffffffffffffffffffffffffffffffffffffffff1916145b8061041d575061041c82610c02565b5b9050919050565b60606000805461043390612661565b80601f016020809104026020016040519081016040528092919081815260200182805461045f90612661565b80156104ac5780601f10610481576101008083540402835291602001916104ac565b820191906000526020600020905b81548152906001019060200180831161048f57829003601f168201915b5050505050905090565b60006104c182610c6c565b610500576040517f08c379a00000000000000000000000000000000000000000000000000000000081526004016104f79061238b565b60405180910390fd5b6004600083815260200190815260200160002060009054906101000a900473ffffffffffffffffffffffffffffffffffffffff169050919050565b6000610546826106d3565b90508073ffffffffffffffffffffffffffffffffffffffff168373ffffffffffffffffffffffffffffffffffffffff1614156105b7576040517f08c379a00000000000000000000000000000000000000000000000000000000081526004016105ae906123cb565b60405180910390fd5b8073ffffffffffffffffffffffffffffffffffffffff166105d6610cd8565b73ffffffffffffffffffffffffffffffffffffffff1614806106055750610604816105ff610cd8565b610b6e565b5b610644576040517f08c379a000000000000000000000000000000000000000000000000000000000815260040161063b906122cb565b60405180910390fd5b61064e8383610ce0565b505050565b61066461065e610cd8565b82610d99565b6106a3576040517f08c379a000000000000000000000000000000000000000000000000000000000815260040161069a906123eb565b60405180910390fd5b6106ae838383610e77565b505050565b6106ce838383604051806020016040528060008152506108e5565b505050565b6000806002600084815260200190815260200160002060009054906101000a900473ffffffffffffffffffffffffffffffffffffffff169050600073ffffffffffffffffffffffffffffffffffffffff168173ffffffffffffffffffffffffffffffffffffffff16141561077c576040517f08c379a00000000000000000000000000000000000000000000000000000000081526004016107739061230b565b60405180910390fd5b80915050919050565b60008073ffffffffffffffffffffffffffffffffffffffff168273ffffffffffffffffffffffffffffffffffffffff1614156107f6576040517f08c379a00000000000000000000000000000000000000000000000000000000081526004016107ed906122eb565b60405180910390fd5b600360008373ffffffffffffffffffffffffffffffffffffffff1673ffffffffffffffffffffffffffffffffffffffff168152602001908152602001600020549050919050565b60606001805461084c90612661565b80601f016020809104026020016040519081016040528092919081815260200182805461087890612661565b80156108c55780601f1061089a576101008083540402835291602001916108c5565b820191906000526020600020905b8154815290600101906020018083116108a857829003601f168201915b5050505050905090565b6108e16108da610cd8565b83836110de565b5050565b6108f66108f0610cd8565b83610d99565b610935576040517f08c379a000000000000000000000000000000000000000000000000000000000815260040161092c906123eb565b60405180910390fd5b6109418484848461124b565b50505050565b606060008390508073ffffffffffffffffffffffffffffffffffffffff1663c87b56dd846040518263ffffffff1660e01b8152600401610987919061240b565b60006040518083038186803b15801561099f57600080fd5b505afa1580156109b3573d6000803e3d6000fd5b505050506040513d6000823e3d601f19601f820116820180604052508101906109dc9190611dd9565b91505092915050565b60606109f082610c6c565b610a2f576040517f08c379a0000000000000000000000000000000000000000000000000000000008152600401610a269061236b565b60405180910390fd5b6000600660008481526020019081526020016000208054610a4f90612661565b80601f0160208091040260200160405190810160405280929190818152602001828054610a7b90612661565b8015610ac85780601f10610a9d57610100808354040283529160200191610ac8565b820191906000526020600020905b815481529060010190602001808311610aab57829003601f168201915b505050505090506000610ad96112a7565b9050600081511415610aef578192505050610b32565b600082511115610b24578082604051602001610b0c929190612143565b60405160208183030381529060405292505050610b32565b610b2d846112be565b925050505b919050565b600080610b446007611365565b9050610b508482611373565b610b5a818461154d565b610b6460076115c1565b8091505092915050565b6000600560008473ffffffffffffffffffffffffffffffffffffffff1673ffffffffffffffffffffffffffffffffffffffff16815260200190815260200160002060008373ffffffffffffffffffffffffffffffffffffffff1673ffffffffffffffffffffffffffffffffffffffff16815260200190815260200160002060009054906101000a900460ff16905092915050565b60007f01ffc9a7000000000000000000000000000000000000000000000000000000007bffffffffffffffffffffffffffffffffffffffffffffffffffffffff1916827bffffffffffffffffffffffffffffffffffffffffffffffffffffffff1916149050919050565b60008073ffffffffffffffffffffffffffffffffffffffff166002600084815260200190815260200160002060009054906101000a900473ffffffffffffffffffffffffffffffffffffffff1673ffffffffffffffffffffffffffffffffffffffff1614159050919050565b600033905090565b816004600083815260200190815260200160002060006101000a81548173ffffffffffffffffffffffffffffffffffffffff021916908373ffffffffffffffffffffffffffffffffffffffff160217905550808273ffffffffffffffffffffffffffffffffffffffff16610d53836106d3565b73ffffffffffffffffffffffffffffffffffffffff167f8c5be1e5ebec7d5bd14f71427d1e84f3dd0314c0f7b2291e5b200ac8c7c3b92560405160405180910390a45050565b6000610da482610c6c565b610de3576040517f08c379a0000000000000000000000000000000000000000000000000000000008152600401610dda906122ab565b60405180910390fd5b6000610dee836106d3565b90508073ffffffffffffffffffffffffffffffffffffffff168473ffffffffffffffffffffffffffffffffffffffff161480610e305750610e2f8185610b6e565b5b80610e6e57508373ffffffffffffffffffffffffffffffffffffffff16610e56846104b6565b73ffffffffffffffffffffffffffffffffffffffff16145b91505092915050565b8273ffffffffffffffffffffffffffffffffffffffff16610e97826106d3565b73ffffffffffffffffffffffffffffffffffffffff1614610eed576040517f08c379a0000000000000000000000000000000000000000000000000000000008152600401610ee49061222b565b60405180910390fd5b600073ffffffffffffffffffffffffffffffffffffffff168273ffffffffffffffffffffffffffffffffffffffff161415610f5d576040517f08c379a0000000000000000000000000000000000000000000000000000000008152600401610f549061226b565b60405180910390fd5b610f688383836115d7565b610f73600082610ce0565b6001600360008573ffffffffffffffffffffffffffffffffffffffff1673ffffffffffffffffffffffffffffffffffffffff1681526020019081526020016000206000828254610fc39190612577565b925050819055506001600360008473ffffffffffffffffffffffffffffffffffffffff1673ffffffffffffffffffffffffffffffffffffffff168152602001908152602001600020600082825461101a91906124f0565b92505081905550816002600083815260200190815260200160002060006101000a81548173ffffffffffffffffffffffffffffffffffffffff021916908373ffffffffffffffffffffffffffffffffffffffff160217905550808273ffffffffffffffffffffffffffffffffffffffff168473ffffffffffffffffffffffffffffffffffffffff167fddf252ad1be2c89b69c2b068fc378daa952ba7f163c4a11628f55a4df523b3ef60405160405180910390a46110d98383836115dc565b505050565b8173ffffffffffffffffffffffffffffffffffffffff168373ffffffffffffffffffffffffffffffffffffffff16141561114d576040517f08c379a00000000000000000000000000000000000000000000000000000000081526004016111449061228b565b60405180910390fd5b80600560008573ffffffffffffffffffffffffffffffffffffffff1673ffffffffffffffffffffffffffffffffffffffff16815260200190815260200160002060008473ffffffffffffffffffffffffffffffffffffffff1673ffffffffffffffffffffffffffffffffffffffff16815260200190815260200160002060006101000a81548160ff0219169083151502179055508173ffffffffffffffffffffffffffffffffffffffff168373ffffffffffffffffffffffffffffffffffffffff167f17307eab39ab6107e8899845ad3d59bd9653f200f220920489ca2b5937696c318360405161123e91906121ce565b60405180910390a3505050565b611256848484610e77565b611262848484846115e1565b6112a1576040517f08c379a00000000000000000000000000000000000000000000000000000000081526004016112989061220b565b60405180910390fd5b50505050565b606060405180602001604052806000815250905090565b60606112c982610c6c565b611308576040517f08c379a00000000000000000000000000000000000000000000000000000000081526004016112ff906123ab565b60405180910390fd5b60006113126112a7565b90506000815111611332576040518060200160405280600081525061135d565b8061133c84611778565b60405160200161134d929190612143565b6040516020818303038152906040525b915050919050565b600081600001549050919050565b600073ffffffffffffffffffffffffffffffffffffffff168273ffffffffffffffffffffffffffffffffffffffff1614156113e3576040517f08c379a00000000000000000000000000000000000000000000000000000000081526004016113da9061234b565b60405180910390fd5b6113ec81610c6c565b1561142c576040517f08c379a00000000000000000000000000000000000000000000000000000000081526004016114239061224b565b60405180910390fd5b611438600083836115d7565b6001600360008473ffffffffffffffffffffffffffffffffffffffff1673ffffffffffffffffffffffffffffffffffffffff168152602001908152602001600020600082825461148891906124f0565b92505081905550816002600083815260200190815260200160002060006101000a81548173ffffffffffffffffffffffffffffffffffffffff021916908373ffffffffffffffffffffffffffffffffffffffff160217905550808273ffffffffffffffffffffffffffffffffffffffff16600073ffffffffffffffffffffffffffffffffffffffff167fddf252ad1be2c89b69c2b068fc378daa952ba7f163c4a11628f55a4df523b3ef60405160405180910390a4611549600083836115dc565b5050565b61155682610c6c565b611595576040517f08c379a000000000000000000000000000000000000000000000000000000000815260040161158c9061232b565b60405180910390fd5b806006600084815260200190815260200160002090805190602001906115bc929190611948565b505050565b6001816000016000828254019250508190555050565b505050565b505050565b60006116028473ffffffffffffffffffffffffffffffffffffffff16611925565b1561176b578373ffffffffffffffffffffffffffffffffffffffff1663150b7a0261162b610cd8565b8786866040518563ffffffff1660e01b815260040161164d9493929190612182565b602060405180830381600087803b15801561166757600080fd5b505af192505050801561169857506040513d601f19601f820116820180604052508101906116959190611db0565b60015b61171b573d80600081146116c8576040519150601f19603f3d011682016040523d82523d6000602084013e6116cd565b606091505b50600081511415611713576040517f08c379a000000000000000000000000000000000000000000000000000000000815260040161170a9061220b565b60405180910390fd5b805181602001fd5b63150b7a0260e01b7bffffffffffffffffffffffffffffffffffffffffffffffffffffffff1916817bffffffffffffffffffffffffffffffffffffffffffffffffffffffff191614915050611770565b600190505b949350505050565b606060008214156117c0576040518060400160405280600181526020017f30000000000000000000000000000000000000000000000000000000000000008152509050611920565b600082905060005b600082146117f25780806117db906126c4565b915050600a826117eb9190612546565b91506117c8565b60008167ffffffffffffffff811115611834577f4e487b7100000000000000000000000000000000000000000000000000000000600052604160045260246000fd5b6040519080825280601f01601f1916602001820160405280156118665781602001600182028036833780820191505090505b5090505b600085146119195760018261187f9190612577565b9150600a8561188e919061270d565b603061189a91906124f0565b60f81b8183815181106118d6577f4e487b7100000000000000000000000000000000000000000000000000000000600052603260045260246000fd5b60200101907effffffffffffffffffffffffffffffffffffffffffffffffffffffffffffff1916908160001a905350600a856119129190612546565b945061186a565b8093505050505b919050565b6000808273ffffffffffffffffffffffffffffffffffffffff163b119050919050565b82805461195490612661565b90600052602060002090601f01602090048101928261197657600085556119bd565b82601f1061198f57805160ff19168380011785556119bd565b828001600101855582156119bd579182015b828111156119bc5782518255916020019190600101906119a1565b5b5090506119ca91906119ce565b5090565b5b808211156119e75760008160009055506001016119cf565b5090565b60006119fe6119f98461244b565b612426565b905082815260208101848484011115611a1657600080fd5b611a2184828561261f565b509392505050565b6000611a3c611a378461247c565b612426565b905082815260208101848484011115611a5457600080fd5b611a5f84828561261f565b509392505050565b6000611a7a611a758461247c565b612426565b905082815260208101848484011115611a9257600080fd5b611a9d84828561262e565b509392505050565b600081359050611ab481612c89565b92915050565b600081359050611ac981612ca0565b92915050565b600081359050611ade81612cb7565b92915050565b600081519050611af381612cb7565b92915050565b600082601f830112611b0a57600080fd5b8135611b1a8482602086016119eb565b91505092915050565b600082601f830112611b3457600080fd5b8135611b44848260208601611a29565b91505092915050565b600082601f830112611b5e57600080fd5b8151611b6e848260208601611a67565b91505092915050565b600081359050611b8681612cce565b92915050565b600060208284031215611b9e57600080fd5b6000611bac84828501611aa5565b91505092915050565b60008060408385031215611bc857600080fd5b6000611bd685828601611aa5565b9250506020611be785828601611aa5565b9150509250929050565b600080600060608486031215611c0657600080fd5b6000611c1486828701611aa5565b9350506020611c2586828701611aa5565b9250506040611c3686828701611b77565b9150509250925092565b60008060008060808587031215611c5657600080fd5b6000611c6487828801611aa5565b9450506020611c7587828801611aa5565b9350506040611c8687828801611b77565b925050606085013567ffffffffffffffff811115611ca357600080fd5b611caf87828801611af9565b91505092959194509250565b60008060408385031215611cce57600080fd5b6000611cdc85828601611aa5565b9250506020611ced85828601611aba565b9150509250929050565b60008060408385031215611d0a57600080fd5b6000611d1885828601611aa5565b925050602083013567ffffffffffffffff811115611d3557600080fd5b611d4185828601611b23565b9150509250929050565b60008060408385031215611d5e57600080fd5b6000611d6c85828601611aa5565b9250506020611d7d85828601611b77565b9150509250929050565b600060208284031215611d9957600080fd5b6000611da784828501611acf565b91505092915050565b600060208284031215611dc257600080fd5b6000611dd084828501611ae4565b91505092915050565b600060208284031215611deb57600080fd5b600082015167ffffffffffffffff811115611e0557600080fd5b611e1184828501611b4d565b91505092915050565b600060208284031215611e2c57600080fd5b6000611e3a84828501611b77565b91505092915050565b611e4c816125ab565b82525050565b611e5b816125bd565b82525050565b6000611e6c826124ad565b611e7681856124c3565b9350611e8681856020860161262e565b611e8f816127fa565b840191505092915050565b6000611ea5826124b8565b611eaf81856124d4565b9350611ebf81856020860161262e565b611ec8816127fa565b840191505092915050565b6000611ede826124b8565b611ee881856124e5565b9350611ef881856020860161262e565b80840191505092915050565b6000611f116032836124d4565b9150611f1c8261280b565b604082019050919050565b6000611f346025836124d4565b9150611f3f8261285a565b604082019050919050565b6000611f57601c836124d4565b9150611f62826128a9565b602082019050919050565b6000611f7a6024836124d4565b9150611f85826128d2565b604082019050919050565b6000611f9d6019836124d4565b9150611fa882612921565b602082019050919050565b6000611fc0602c836124d4565b9150611fcb8261294a565b604082019050919050565b6000611fe36038836124d4565b9150611fee82612999565b604082019050919050565b6000612006602a836124d4565b9150612011826129e8565b604082019050919050565b60006120296029836124d4565b915061203482612a37565b604082019050919050565b600061204c602e836124d4565b915061205782612a86565b604082019050919050565b600061206f6020836124d4565b915061207a82612ad5565b602082019050919050565b60006120926031836124d4565b915061209d82612afe565b604082019050919050565b60006120b5602c836124d4565b91506120c082612b4d565b604082019050919050565b60006120d8602f836124d4565b91506120e382612b9c565b604082019050919050565b60006120fb6021836124d4565b915061210682612beb565b604082019050919050565b600061211e6031836124d4565b915061212982612c3a565b604082019050919050565b61213d81612615565b82525050565b600061214f8285611ed3565b915061215b8284611ed3565b91508190509392505050565b600060208201905061217c6000830184611e43565b92915050565b60006080820190506121976000830187611e43565b6121a46020830186611e43565b6121b16040830185612134565b81810360608301526121c38184611e61565b905095945050505050565b60006020820190506121e36000830184611e52565b92915050565b600060208201905081810360008301526122038184611e9a565b905092915050565b6000602082019050818103600083015261222481611f04565b9050919050565b6000602082019050818103600083015261224481611f27565b9050919050565b6000602082019050818103600083015261226481611f4a565b9050919050565b6000602082019050818103600083015261228481611f6d565b9050919050565b600060208201905081810360008301526122a481611f90565b9050919050565b600060208201905081810360008301526122c481611fb3565b9050919050565b600060208201905081810360008301526122e481611fd6565b9050919050565b6000602082019050818103600083015261230481611ff9565b9050919050565b600060208201905081810360008301526123248161201c565b9050919050565b600060208201905081810360008301526123448161203f565b9050919050565b6000602082019050818103600083015261236481612062565b9050919050565b6000602082019050818103600083015261238481612085565b9050919050565b600060208201905081810360008301526123a4816120a8565b9050919050565b600060208201905081810360008301526123c4816120cb565b9050919050565b600060208201905081810360008301526123e4816120ee565b9050919050565b6000602082019050818103600083015261240481612111565b9050919050565b60006020820190506124206000830184612134565b92915050565b6000612430612441565b905061243c8282612693565b919050565b6000604051905090565b600067ffffffffffffffff821115612466576124656127cb565b5b61246f826127fa565b9050602081019050919050565b600067ffffffffffffffff821115612497576124966127cb565b5b6124a0826127fa565b9050602081019050919050565b600081519050919050565b600081519050919050565b600082825260208201905092915050565b600082825260208201905092915050565b600081905092915050565b60006124fb82612615565b915061250683612615565b9250827fffffffffffffffffffffffffffffffffffffffffffffffffffffffffffffffff0382111561253b5761253a61273e565b5b828201905092915050565b600061255182612615565b915061255c83612615565b92508261256c5761256b61276d565b5b828204905092915050565b600061258282612615565b915061258d83612615565b9250828210156125a05761259f61273e565b5b828203905092915050565b60006125b6826125f5565b9050919050565b60008115159050919050565b60007fffffffff0000000000000000000000000000000000000000000000000000000082169050919050565b600073ffffffffffffffffffffffffffffffffffffffff82169050919050565b6000819050919050565b82818337600083830152505050565b60005b8381101561264c578082015181840152602081019050612631565b8381111561265b576000848401525b50505050565b6000600282049050600182168061267957607f821691505b6020821081141561268d5761268c61279c565b5b50919050565b61269c826127fa565b810181811067ffffffffffffffff821117156126bb576126ba6127cb565b5b80604052505050565b60006126cf82612615565b91507fffffffffffffffffffffffffffffffffffffffffffffffffffffffffffffffff8214156127025761270161273e565b5b600182019050919050565b600061271882612615565b915061272383612615565b9250826127335761273261276d565b5b828206905092915050565b7f4e487b7100000000000000000000000000000000000000000000000000000000600052601160045260246000fd5b7f4e487b7100000000000000000000000000000000000000000000000000000000600052601260045260246000fd5b7f4e487b7100000000000000000000000000000000000000000000000000000000600052602260045260246000fd5b7f4e487b7100000000000000000000000000000000000000000000000000000000600052604160045260246000fd5b6000601f19601f8301169050919050565b7f4552433732313a207472616e7366657220746f206e6f6e20455243373231526560008201527f63656976657220696d706c656d656e7465720000000000000000000000000000602082015250565b7f4552433732313a207472616e736665722066726f6d20696e636f72726563742060008201527f6f776e6572000000000000000000000000000000000000000000000000000000602082015250565b7f4552433732313a20746f6b656e20616c7265616479206d696e74656400000000600082015250565b7f4552433732313a207472616e7366657220746f20746865207a65726f2061646460008201527f7265737300000000000000000000000000000000000000000000000000000000602082015250565b7f4552433732313a20617070726f766520746f2063616c6c657200000000000000600082015250565b7f4552433732313a206f70657261746f7220717565727920666f72206e6f6e657860008201527f697374656e7420746f6b656e0000000000000000000000000000000000000000602082015250565b7f4552433732313a20617070726f76652063616c6c6572206973206e6f74206f7760008201527f6e6572206e6f7220617070726f76656420666f7220616c6c0000000000000000602082015250565b7f4552433732313a2062616c616e636520717565727920666f7220746865207a6560008201527f726f206164647265737300000000000000000000000000000000000000000000602082015250565b7f4552433732313a206f776e657220717565727920666f72206e6f6e657869737460008201527f656e7420746f6b656e0000000000000000000000000000000000000000000000602082015250565b7f45524337323155524953746f726167653a2055524920736574206f66206e6f6e60008201527f6578697374656e7420746f6b656e000000000000000000000000000000000000602082015250565b7f4552433732313a206d696e7420746f20746865207a65726f2061646472657373600082015250565b7f45524337323155524953746f726167653a2055524920717565727920666f722060008201527f6e6f6e6578697374656e7420746f6b656e000000000000000000000000000000602082015250565b7f4552433732313a20617070726f76656420717565727920666f72206e6f6e657860008201527f697374656e7420746f6b656e0000000000000000000000000000000000000000602082015250565b7f4552433732314d657461646174613a2055524920717565727920666f72206e6f60008201527f6e6578697374656e7420746f6b656e0000000000000000000000000000000000602082015250565b7f4552433732313a20617070726f76616c20746f2063757272656e74206f776e6560008201527f7200000000000000000000000000000000000000000000000000000000000000602082015250565b7f4552433732313a207472616e736665722063616c6c6572206973206e6f74206f60008201527f776e6572206e6f7220617070726f766564000000000000000000000000000000602082015250565b612c92816125ab565b8114612c9d57600080fd5b50565b612ca9816125bd565b8114612cb457600080fd5b50565b612cc0816125c9565b8114612ccb57600080fd5b50565b612cd781612615565b8114612ce257600080fd5b5056fea2646970667358221220ad8429a82a4f669e791c207ab3430e0dde2a69a90aca0046751ab9b4eefb476264736f6c63430008040033",
  "linkReferences": {},
  "deployedLinkReferences": {}
}