{
  "_format": "hh-sol-artifact-1",
  "contractName": "NativeToERC20Handler",
  "sourceName": "contracts/handler/NativeToERC20.sol",
  "abi": [
    {
      "inputs": [
        {
          "internalType": "bytes32",
          "name": "resourceID_",
          "type": "bytes32"
        },
        {
          "internalType": "address",
          "name": "bridgeAddress_",
          "type": "address"
        },
        {
          "internalType": "address",
          "name": "tokenAddress_",
          "type": "address"
        },
        {
          "internalType": "address",
          "name": "targetHandler_",
          "type": "address"
        },
        {
          "internalType": "bool",
          "name": "burnable_",
          "type": "bool"
        }
      ],
      "stateMutability": "nonpayable",
      "type": "constructor"
    },
    {
      "anonymous": false,
      "inputs": [
        {
          "indexed": true,
          "internalType": "address",
          "name": "previousOwner",
          "type": "address"
        },
        {
          "indexed": true,
          "internalType": "address",
          "name": "newOwner",
          "type": "address"
        }
      ],
      "name": "OwnershipTransferred",
      "type": "event"
    },
    {
      "inputs": [
        {
          "internalType": "address",
          "name": "bridgeAddress_",
          "type": "address"
        },
        {
          "internalType": "address",
          "name": "tokenAddress_",
          "type": "address"
        },
        {
          "internalType": "address",
          "name": "targetHandler_",
          "type": "address"
        },
        {
          "internalType": "bool",
          "name": "burnable_",
          "type": "bool"
        }
      ],
      "name": "adminSetConfig",
      "outputs": [],
      "stateMutability": "nonpayable",
      "type": "function"
    },
    {
      "inputs": [],
      "name": "bridgeAddress",
      "outputs": [
        {
          "internalType": "address",
          "name": "",
          "type": "address"
        }
      ],
      "stateMutability": "view",
      "type": "function"
    },
    {
      "inputs": [],
      "name": "burnable",
      "outputs": [
        {
          "internalType": "bool",
          "name": "",
          "type": "bool"
        }
      ],
      "stateMutability": "view",
      "type": "function"
    },
    {
      "inputs": [
        {
          "internalType": "bytes32",
          "name": "_resourceID",
          "type": "bytes32"
        },
        {
          "internalType": "uint32",
          "name": "targetChainId",
          "type": "uint32"
        }
      ],
      "name": "deposit",
      "outputs": [
        {
          "internalType": "bytes32",
          "name": "",
          "type": "bytes32"
        }
      ],
      "stateMutability": "payable",
      "type": "function"
    },
    {
      "inputs": [
        {
          "internalType": "bytes32",
          "name": "_resourceID",
          "type": "bytes32"
        },
        {
          "internalType": "bytes",
          "name": "data",
          "type": "bytes"
        }
      ],
      "name": "execute",
      "outputs": [],
      "stateMutability": "nonpayable",
      "type": "function"
    },
    {
      "inputs": [],
      "name": "owner",
      "outputs": [
        {
          "internalType": "address",
          "name": "",
          "type": "address"
        }
      ],
      "stateMutability": "view",
      "type": "function"
    },
    {
      "inputs": [],
      "name": "renounceOwnership",
      "outputs": [],
      "stateMutability": "nonpayable",
      "type": "function"
    },
    {
      "inputs": [],
      "name": "resourceID",
      "outputs": [
        {
          "internalType": "bytes32",
          "name": "",
          "type": "bytes32"
        }
      ],
      "stateMutability": "view",
      "type": "function"
    },
    {
      "inputs": [],
      "name": "targetHandler",
      "outputs": [
        {
          "internalType": "address",
          "name": "",
          "type": "address"
        }
      ],
      "stateMutability": "view",
      "type": "function"
    },
    {
      "inputs": [],
      "name": "tokenAddress",
      "outputs": [
        {
          "internalType": "address",
          "name": "",
          "type": "address"
        }
      ],
      "stateMutability": "view",
      "type": "function"
    },
    {
      "inputs": [
        {
          "internalType": "address",
          "name": "newOwner",
          "type": "address"
        }
      ],
      "name": "transferOwnership",
      "outputs": [],
      "stateMutability": "nonpayable",
      "type": "function"
    }
  ],
  "bytecode": "0x60806040523480156200001157600080fd5b506040516200192838038062001928833981810160405281019062000037919062000261565b84848484846200005c620000506200015060201b60201c565b6200015860201b60201c565b8460018190555083600260006101000a81548173ffffffffffffffffffffffffffffffffffffffff021916908373ffffffffffffffffffffffffffffffffffffffff16021790555082600360006101000a81548173ffffffffffffffffffffffffffffffffffffffff021916908373ffffffffffffffffffffffffffffffffffffffff16021790555081600460006101000a81548173ffffffffffffffffffffffffffffffffffffffff021916908373ffffffffffffffffffffffffffffffffffffffff16021790555080600460146101000a81548160ff021916908315150217905550505050505050505050506200037b565b600033905090565b60008060009054906101000a900473ffffffffffffffffffffffffffffffffffffffff169050816000806101000a81548173ffffffffffffffffffffffffffffffffffffffff021916908373ffffffffffffffffffffffffffffffffffffffff1602179055508173ffffffffffffffffffffffffffffffffffffffff168173ffffffffffffffffffffffffffffffffffffffff167f8be0079c531659141344cd1fd0a4f28419497f9722a3daafe3b4186f6b6457e060405160405180910390a35050565b6000815190506200022d816200032d565b92915050565b600081519050620002448162000347565b92915050565b6000815190506200025b8162000361565b92915050565b600080600080600060a086880312156200027a57600080fd5b60006200028a888289016200024a565b95505060206200029d888289016200021c565b9450506040620002b0888289016200021c565b9350506060620002c3888289016200021c565b9250506080620002d68882890162000233565b9150509295509295909350565b6000620002f0826200030d565b9050919050565b60008115159050919050565b6000819050919050565b600073ffffffffffffffffffffffffffffffffffffffff82169050919050565b6200033881620002e3565b81146200034457600080fd5b50565b6200035281620002f7565b81146200035e57600080fd5b50565b6200036c8162000303565b81146200037857600080fd5b50565b61159d806200038b6000396000f3fe60806040526004361061009c5760003560e01c8063a3c573eb11610064578063a3c573eb14610164578063aab4a6921461018f578063ad030b67146101bf578063e9ae5c53146101e8578063f2fde38b14610211578063fab28c1c1461023a5761009c565b80631d80409e146100a1578063715018a6146100cc5780638da5cb5b146100e35780639d76ea581461010e578063a07c7ce414610139575b600080fd5b3480156100ad57600080fd5b506100b6610265565b6040516100c39190611044565b60405180910390f35b3480156100d857600080fd5b506100e161028b565b005b3480156100ef57600080fd5b506100f8610313565b6040516101059190611044565b60405180910390f35b34801561011a57600080fd5b5061012361033c565b6040516101309190611044565b60405180910390f35b34801561014557600080fd5b5061014e610362565b60405161015b9190611088565b60405180910390f35b34801561017057600080fd5b50610179610375565b6040516101869190611044565b60405180910390f35b6101a960048036038101906101a49190610e34565b61039b565b6040516101b691906110a3565b60405180910390f35b3480156101cb57600080fd5b506101e660048036038101906101e19190610d50565b610647565b005b3480156101f457600080fd5b5061020f600480360381019061020a9190610ddc565b6107a6565b005b34801561021d57600080fd5b5061023860048036038101906102339190610ceb565b610950565b005b34801561024657600080fd5b5061024f610a48565b60405161025c91906110a3565b60405180910390f35b600460009054906101000a900473ffffffffffffffffffffffffffffffffffffffff1681565b610293610a4e565b73ffffffffffffffffffffffffffffffffffffffff166102b1610313565b73ffffffffffffffffffffffffffffffffffffffff1614610307576040517f08c379a00000000000000000000000000000000000000000000000000000000081526004016102fe906111ca565b60405180910390fd5b6103116000610a56565b565b60008060009054906101000a900473ffffffffffffffffffffffffffffffffffffffff16905090565b600360009054906101000a900473ffffffffffffffffffffffffffffffffffffffff1681565b600460149054906101000a900460ff1681565b600260009054906101000a900473ffffffffffffffffffffffffffffffffffffffff1681565b600082600154146103e1576040517f08c379a00000000000000000000000000000000000000000000000000000000081526004016103d89061110a565b60405180910390fd5b600260009054906101000a900473ffffffffffffffffffffffffffffffffffffffff1673ffffffffffffffffffffffffffffffffffffffff163373ffffffffffffffffffffffffffffffffffffffff1614610471576040517f08c379a0000000000000000000000000000000000000000000000000000000008152600401610468906111ea565b60405180910390fd5b600034116104b4576040517f08c379a00000000000000000000000000000000000000000000000000000000081526004016104ab9061112a565b60405180910390fd5b6000349050803373ffffffffffffffffffffffffffffffffffffffff16311015610513576040517f08c379a000000000000000000000000000000000000000000000000000000000815260040161050a906111aa565b60405180910390fd5b600460149054906101000a900460ff161561053457610533600082610b1a565b5b6000338260405160200161054992919061105f565b60405160208183030381529060405290506000600260009054906101000a900473ffffffffffffffffffffffffffffffffffffffff16905060008173ffffffffffffffffffffffffffffffffffffffff1663b0aaa15360015488600460009054906101000a900473ffffffffffffffffffffffffffffffffffffffff16876040518563ffffffff1660e01b81526004016105e694939291906110be565b602060405180830381600087803b15801561060057600080fd5b505af1158015610614573d6000803e3d6000fd5b505050506040513d601f19601f820116820180604052508101906106389190610db3565b90508094505050505092915050565b61064f610a4e565b73ffffffffffffffffffffffffffffffffffffffff1661066d610313565b73ffffffffffffffffffffffffffffffffffffffff16146106c3576040517f08c379a00000000000000000000000000000000000000000000000000000000081526004016106ba906111ca565b60405180910390fd5b83600260006101000a81548173ffffffffffffffffffffffffffffffffffffffff021916908373ffffffffffffffffffffffffffffffffffffffff16021790555082600360006101000a81548173ffffffffffffffffffffffffffffffffffffffff021916908373ffffffffffffffffffffffffffffffffffffffff16021790555081600460006101000a81548173ffffffffffffffffffffffffffffffffffffffff021916908373ffffffffffffffffffffffffffffffffffffffff16021790555080600460146101000a81548160ff02191690831515021790555050505050565b82600154146107ea576040517f08c379a00000000000000000000000000000000000000000000000000000000081526004016107e19061110a565b60405180910390fd5b60008083838101906107fc9190610d14565b8093508192505050600460149054906101000a900460ff16156108b3576000600360009054906101000a900473ffffffffffffffffffffffffffffffffffffffff1690508073ffffffffffffffffffffffffffffffffffffffff166340c10f1983856040518363ffffffff1660e01b815260040161087b92919061105f565b600060405180830381600087803b15801561089557600080fd5b505af11580156108a9573d6000803e3d6000fd5b5050505050610949565b6000600360009054906101000a900473ffffffffffffffffffffffffffffffffffffffff1690508073ffffffffffffffffffffffffffffffffffffffff1663a9059cbb83856040518363ffffffff1660e01b815260040161091592919061105f565b600060405180830381600087803b15801561092f57600080fd5b505af1158015610943573d6000803e3d6000fd5b50505050505b5050505050565b610958610a4e565b73ffffffffffffffffffffffffffffffffffffffff16610976610313565b73ffffffffffffffffffffffffffffffffffffffff16146109cc576040517f08c379a00000000000000000000000000000000000000000000000000000000081526004016109c3906111ca565b60405180910390fd5b600073ffffffffffffffffffffffffffffffffffffffff168173ffffffffffffffffffffffffffffffffffffffff161415610a3c576040517f08c379a0000000000000000000000000000000000000000000000000000000008152600401610a339061114a565b60405180910390fd5b610a4581610a56565b50565b60015481565b600033905090565b60008060009054906101000a900473ffffffffffffffffffffffffffffffffffffffff169050816000806101000a81548173ffffffffffffffffffffffffffffffffffffffff021916908373ffffffffffffffffffffffffffffffffffffffff1602179055508173ffffffffffffffffffffffffffffffffffffffff168173ffffffffffffffffffffffffffffffffffffffff167f8be0079c531659141344cd1fd0a4f28419497f9722a3daafe3b4186f6b6457e060405160405180910390a35050565b80471015610b5d576040517f08c379a0000000000000000000000000000000000000000000000000000000008152600401610b549061118a565b60405180910390fd5b60008273ffffffffffffffffffffffffffffffffffffffff1682604051610b839061102f565b60006040518083038185875af1925050503d8060008114610bc0576040519150601f19603f3d011682016040523d82523d6000602084013e610bc5565b606091505b5050905080610c09576040517f08c379a0000000000000000000000000000000000000000000000000000000008152600401610c009061116a565b60405180910390fd5b505050565b600081359050610c1d816114dd565b92915050565b600081359050610c32816114f4565b92915050565b600081359050610c478161150b565b92915050565b600081359050610c5c81611522565b92915050565b600081519050610c7181611522565b92915050565b60008083601f840112610c8957600080fd5b8235905067ffffffffffffffff811115610ca257600080fd5b602083019150836001820283011115610cba57600080fd5b9250929050565b600081359050610cd081611539565b92915050565b600081359050610ce581611550565b92915050565b600060208284031215610cfd57600080fd5b6000610d0b84828501610c0e565b91505092915050565b60008060408385031215610d2757600080fd5b6000610d3585828601610c23565b9250506020610d4685828601610cc1565b9150509250929050565b60008060008060808587031215610d6657600080fd5b6000610d7487828801610c0e565b9450506020610d8587828801610c0e565b9350506040610d9687828801610c0e565b9250506060610da787828801610c38565b91505092959194509250565b600060208284031215610dc557600080fd5b6000610dd384828501610c62565b91505092915050565b600080600060408486031215610df157600080fd5b6000610dff86828701610c4d565b935050602084013567ffffffffffffffff811115610e1c57600080fd5b610e2886828701610c77565b92509250509250925092565b60008060408385031215610e4757600080fd5b6000610e5585828601610c4d565b9250506020610e6685828601610cd6565b9150509250929050565b610e7981611242565b82525050565b610e8881611266565b82525050565b610e9781611272565b82525050565b6000610ea88261120a565b610eb28185611215565b9350610ec28185602086016112b6565b610ecb816112e9565b840191505092915050565b6000610ee3601083611231565b9150610eee826112fa565b602082019050919050565b6000610f06604583611231565b9150610f1182611323565b606082019050919050565b6000610f29602683611231565b9150610f3482611398565b604082019050919050565b6000610f4c603a83611231565b9150610f57826113e7565b604082019050919050565b6000610f6f601d83611231565b9150610f7a82611436565b602082019050919050565b6000610f92601283611231565b9150610f9d8261145f565b602082019050919050565b6000610fb5602083611231565b9150610fc082611488565b602082019050919050565b6000610fd8601583611231565b9150610fe3826114b1565b602082019050919050565b6000610ffb600083611226565b9150611006826114da565b600082019050919050565b61101a8161129c565b82525050565b611029816112a6565b82525050565b600061103a82610fee565b9150819050919050565b60006020820190506110596000830184610e70565b92915050565b60006040820190506110746000830185610e70565b6110816020830184611011565b9392505050565b600060208201905061109d6000830184610e7f565b92915050565b60006020820190506110b86000830184610e8e565b92915050565b60006080820190506110d36000830187610e8e565b6110e06020830186611020565b6110ed6040830185610e70565b81810360608301526110ff8184610e9d565b905095945050505050565b6000602082019050818103600083015261112381610ed6565b9050919050565b6000602082019050818103600083015261114381610ef9565b9050919050565b6000602082019050818103600083015261116381610f1c565b9050919050565b6000602082019050818103600083015261118381610f3f565b9050919050565b600060208201905081810360008301526111a381610f62565b9050919050565b600060208201905081810360008301526111c381610f85565b9050919050565b600060208201905081810360008301526111e381610fa8565b9050919050565b6000602082019050818103600083015261120381610fcb565b9050919050565b600081519050919050565b600082825260208201905092915050565b600081905092915050565b600082825260208201905092915050565b600061124d8261127c565b9050919050565b600061125f8261127c565b9050919050565b60008115159050919050565b6000819050919050565b600073ffffffffffffffffffffffffffffffffffffffff82169050919050565b6000819050919050565b600063ffffffff82169050919050565b60005b838110156112d45780820151818401526020810190506112b9565b838111156112e3576000848401525b50505050565b6000601f19601f8301169050919050565b7f7265736f757263654944206572726f7200000000000000000000000000000000600082015250565b7f636f6e646974696f6e3a20546865207472616e7366657220616d6f756e74206d60008201527f7573742062652067726561746572207468616e203020286d73672e76616c756560208201527f203e203029000000000000000000000000000000000000000000000000000000604082015250565b7f4f776e61626c653a206e6577206f776e657220697320746865207a65726f206160008201527f6464726573730000000000000000000000000000000000000000000000000000602082015250565b7f416464726573733a20756e61626c6520746f2073656e642076616c75652c207260008201527f6563697069656e74206d61792068617665207265766572746564000000000000602082015250565b7f416464726573733a20696e73756666696369656e742062616c616e6365000000600082015250565b7f496e73756666696369656e742066756e64730000000000000000000000000000600082015250565b7f4f776e61626c653a2063616c6c6572206973206e6f7420746865206f776e6572600082015250565b7f6f6e6c792063616c6c6564206279206272696467650000000000000000000000600082015250565b50565b6114e681611242565b81146114f157600080fd5b50565b6114fd81611254565b811461150857600080fd5b50565b61151481611266565b811461151f57600080fd5b50565b61152b81611272565b811461153657600080fd5b50565b6115428161129c565b811461154d57600080fd5b50565b611559816112a6565b811461156457600080fd5b5056fea2646970667358221220741c980da52cad2d77de1231a9a24f2ead9cbbb60d2d0676c78a9dfc6d14e81564736f6c63430008040033",
  "linkReferences": {},
  "deployedLinkReferences": {}
}