{
  "_format": "hh-sol-artifact-1",
  "contractName": "LockERC20",
  "sourceName": "contracts/demo/lockERC20.sol",
  "abi": [
    {
      "inputs": [
        {
          "internalType": "address",
          "name": "_tokenAddress",
          "type": "address"
        }
      ],
      "stateMutability": "nonpayable",
      "type": "constructor"
    },
    {
      "inputs": [
        {
          "internalType": "address",
          "name": "addr",
          "type": "address"
        }
      ],
      "name": "Balance",
      "outputs": [
        {
          "internalType": "uint256",
          "name": "",
          "type": "uint256"
        }
      ],
      "stateMutability": "view",
      "type": "function"
    },
    {
      "inputs": [
        {
          "internalType": "uint256",
          "name": "amount",
          "type": "uint256"
        }
      ],
      "name": "lock",
      "outputs": [],
      "stateMutability": "payable",
      "type": "function"
    },
    {
      "inputs": [],
      "name": "tokenAddress",
      "outputs": [
        {
          "internalType": "address",
          "name": "",
          "type": "address"
        }
      ],
      "stateMutability": "view",
      "type": "function"
    }
  ],
  "bytecode": "0x608060405234801561001057600080fd5b506040516105a63803806105a68339818101604052810190610032919061008d565b806000806101000a81548173ffffffffffffffffffffffffffffffffffffffff021916908373ffffffffffffffffffffffffffffffffffffffff160217905550506100ff565b600081519050610087816100e8565b92915050565b60006020828403121561009f57600080fd5b60006100ad84828501610078565b91505092915050565b60006100c1826100c8565b9050919050565b600073ffffffffffffffffffffffffffffffffffffffff82169050919050565b6100f1816100b6565b81146100fc57600080fd5b50565b6104988061010e6000396000f3fe6080604052600436106100345760003560e01c8063239fcf0f146100395780639d76ea5814610076578063dd467064146100a1575b600080fd5b34801561004557600080fd5b50610060600480360381019061005b91906102a6565b6100bd565b60405161006d91906103ba565b60405180910390f35b34801561008257600080fd5b5061008b610174565b6040516100989190610368565b60405180910390f35b6100bb60048036038101906100b691906102f8565b610198565b005b60008060008054906101000a900473ffffffffffffffffffffffffffffffffffffffff1690508073ffffffffffffffffffffffffffffffffffffffff166370a08231846040518263ffffffff1660e01b815260040161011c9190610368565b60206040518083038186803b15801561013457600080fd5b505afa158015610148573d6000803e3d6000fd5b505050506040513d601f19601f8201168201806040525081019061016c9190610321565b915050919050565b60008054906101000a900473ffffffffffffffffffffffffffffffffffffffff1681565b60008060009054906101000a900473ffffffffffffffffffffffffffffffffffffffff1690508073ffffffffffffffffffffffffffffffffffffffff166323b872dd3330856040518463ffffffff1660e01b81526004016101fb93929190610383565b602060405180830381600087803b15801561021557600080fd5b505af1158015610229573d6000803e3d6000fd5b505050506040513d601f19601f8201168201806040525081019061024d91906102cf565b505050565b6000813590506102618161041d565b92915050565b60008151905061027681610434565b92915050565b60008135905061028b8161044b565b92915050565b6000815190506102a08161044b565b92915050565b6000602082840312156102b857600080fd5b60006102c684828501610252565b91505092915050565b6000602082840312156102e157600080fd5b60006102ef84828501610267565b91505092915050565b60006020828403121561030a57600080fd5b60006103188482850161027c565b91505092915050565b60006020828403121561033357600080fd5b600061034184828501610291565b91505092915050565b610353816103d5565b82525050565b61036281610413565b82525050565b600060208201905061037d600083018461034a565b92915050565b6000606082019050610398600083018661034a565b6103a5602083018561034a565b6103b26040830184610359565b949350505050565b60006020820190506103cf6000830184610359565b92915050565b60006103e0826103f3565b9050919050565b60008115159050919050565b600073ffffffffffffffffffffffffffffffffffffffff82169050919050565b6000819050919050565b610426816103d5565b811461043157600080fd5b50565b61043d816103e7565b811461044857600080fd5b50565b61045481610413565b811461045f57600080fd5b5056fea2646970667358221220bf681db0949e9726b86481c10cb7b154bc1c5d798b2e8c2b473fe903e9c4bcd464736f6c63430008040033",
  "linkReferences": {},
  "deployedLinkReferences": {}
}