{
  "_format": "hh-sol-artifact-1",
  "contractName": "Bridge",
  "sourceName": "contracts/Bridge.sol",
  "abi": [
    {
      "inputs": [
        {
          "internalType": "uint8",
          "name": "_chainId",
          "type": "uint8"
        },
        {
          "internalType": "uint32",
          "name": "_signatureThreshold",
          "type": "uint32"
        }
      ],
      "stateMutability": "nonpayable",
      "type": "constructor"
    },
    {
      "anonymous": false,
      "inputs": [
        {
          "indexed": false,
          "internalType": "bytes32",
          "name": "resourceID",
          "type": "bytes32"
        },
        {
          "indexed": false,
          "internalType": "address",
          "name": "caller",
          "type": "address"
        },
        {
          "indexed": false,
          "internalType": "uint32",
          "name": "sourceChainId",
          "type": "uint32"
        },
        {
          "indexed": false,
          "internalType": "uint256",
          "name": "sourceNonce",
          "type": "uint256"
        },
        {
          "indexed": true,
          "internalType": "bytes32",
          "name": "messageId",
          "type": "bytes32"
        },
        {
          "indexed": true,
          "internalType": "uint32",
          "name": "targetChainId",
          "type": "uint32"
        },
        {
          "indexed": true,
          "internalType": "address",
          "name": "target",
          "type": "address"
        },
        {
          "indexed": false,
          "internalType": "bytes",
          "name": "data",
          "type": "bytes"
        }
      ],
      "name": "CallRequest",
      "type": "event"
    },
    {
      "anonymous": false,
      "inputs": [
        {
          "indexed": false,
          "internalType": "bytes32",
          "name": "resourceID",
          "type": "bytes32"
        },
        {
          "indexed": false,
          "internalType": "address",
          "name": "caller",
          "type": "address"
        },
        {
          "indexed": false,
          "internalType": "uint32",
          "name": "sourceChainId",
          "type": "uint32"
        },
        {
          "indexed": false,
          "internalType": "uint256",
          "name": "sourceNonce",
          "type": "uint256"
        },
        {
          "indexed": true,
          "internalType": "bytes32",
          "name": "messageId",
          "type": "bytes32"
        },
        {
          "indexed": true,
          "internalType": "uint32",
          "name": "targetChainId",
          "type": "uint32"
        },
        {
          "indexed": true,
          "internalType": "address",
          "name": "target",
          "type": "address"
        },
        {
          "indexed": false,
          "internalType": "bytes",
          "name": "data",
          "type": "bytes"
        }
      ],
      "name": "ConfirmedRequest",
      "type": "event"
    },
    {
      "anonymous": false,
      "inputs": [
        {
          "indexed": true,
          "internalType": "bytes32",
          "name": "role",
          "type": "bytes32"
        },
        {
          "indexed": true,
          "internalType": "bytes32",
          "name": "previousAdminRole",
          "type": "bytes32"
        },
        {
          "indexed": true,
          "internalType": "bytes32",
          "name": "newAdminRole",
          "type": "bytes32"
        }
      ],
      "name": "RoleAdminChanged",
      "type": "event"
    },
    {
      "anonymous": false,
      "inputs": [
        {
          "indexed": true,
          "internalType": "bytes32",
          "name": "role",
          "type": "bytes32"
        },
        {
          "indexed": true,
          "internalType": "address",
          "name": "account",
          "type": "address"
        },
        {
          "indexed": true,
          "internalType": "address",
          "name": "sender",
          "type": "address"
        }
      ],
      "name": "RoleGranted",
      "type": "event"
    },
    {
      "anonymous": false,
      "inputs": [
        {
          "indexed": true,
          "internalType": "bytes32",
          "name": "role",
          "type": "bytes32"
        },
        {
          "indexed": true,
          "internalType": "address",
          "name": "account",
          "type": "address"
        },
        {
          "indexed": true,
          "internalType": "address",
          "name": "sender",
          "type": "address"
        }
      ],
      "name": "RoleRevoked",
      "type": "event"
    },
    {
      "inputs": [],
      "name": "DEFAULT_ADMIN_ROLE",
      "outputs": [
        {
          "internalType": "bytes32",
          "name": "",
          "type": "bytes32"
        }
      ],
      "stateMutability": "view",
      "type": "function"
    },
    {
      "inputs": [
        {
          "internalType": "bytes32",
          "name": "",
          "type": "bytes32"
        }
      ],
      "name": "IsContractCall",
      "outputs": [
        {
          "internalType": "bool",
          "name": "",
          "type": "bool"
        }
      ],
      "stateMutability": "view",
      "type": "function"
    },
    {
      "inputs": [],
      "name": "MANAGER_ROLE",
      "outputs": [
        {
          "internalType": "bytes32",
          "name": "",
          "type": "bytes32"
        }
      ],
      "stateMutability": "view",
      "type": "function"
    },
    {
      "inputs": [],
      "name": "VALIDATOR_ROLE",
      "outputs": [
        {
          "internalType": "bytes32",
          "name": "",
          "type": "bytes32"
        }
      ],
      "stateMutability": "view",
      "type": "function"
    },
    {
      "inputs": [
        {
          "internalType": "bytes32",
          "name": "",
          "type": "bytes32"
        }
      ],
      "name": "_configResource",
      "outputs": [
        {
          "internalType": "uint256",
          "name": "fee",
          "type": "uint256"
        }
      ],
      "stateMutability": "view",
      "type": "function"
    },
    {
      "inputs": [
        {
          "internalType": "bytes32",
          "name": "resourceID",
          "type": "bytes32"
        },
        {
          "internalType": "address",
          "name": "blackAddress",
          "type": "address"
        }
      ],
      "name": "adminAddBlackList",
      "outputs": [],
      "stateMutability": "nonpayable",
      "type": "function"
    },
    {
      "inputs": [
        {
          "internalType": "bytes32",
          "name": "resourceID",
          "type": "bytes32"
        },
        {
          "internalType": "address",
          "name": "blackAddress",
          "type": "address"
        }
      ],
      "name": "adminRemoveBlackList",
      "outputs": [],
      "stateMutability": "nonpayable",
      "type": "function"
    },
    {
      "inputs": [
        {
          "internalType": "uint32",
          "name": "_chainId",
          "type": "uint32"
        }
      ],
      "name": "adminSetChainId",
      "outputs": [],
      "stateMutability": "nonpayable",
      "type": "function"
    },
    {
      "inputs": [
        {
          "internalType": "bytes32",
          "name": "resourceID",
          "type": "bytes32"
        },
        {
          "internalType": "uint256",
          "name": "_fee",
          "type": "uint256"
        },
        {
          "internalType": "bool",
          "name": "isContractCall",
          "type": "bool"
        }
      ],
      "name": "adminSetConfigResource",
      "outputs": [],
      "stateMutability": "nonpayable",
      "type": "function"
    },
    {
      "inputs": [
        {
          "internalType": "uint32",
          "name": "_signatureThreshold",
          "type": "uint32"
        }
      ],
      "name": "adminSetSignatureThreshold",
      "outputs": [],
      "stateMutability": "nonpayable",
      "type": "function"
    },
    {
      "inputs": [
        {
          "internalType": "bytes32",
          "name": "",
          "type": "bytes32"
        }
      ],
      "name": "callRecords",
      "outputs": [
        {
          "internalType": "bytes32",
          "name": "resourceID",
          "type": "bytes32"
        },
        {
          "internalType": "address",
          "name": "caller",
          "type": "address"
        },
        {
          "internalType": "uint32",
          "name": "targetChainId",
          "type": "uint32"
        },
        {
          "internalType": "address",
          "name": "target",
          "type": "address"
        },
        {
          "internalType": "bytes",
          "name": "data",
          "type": "bytes"
        },
        {
          "internalType": "enum Bridge.RecordState",
          "name": "recordState",
          "type": "uint8"
        }
      ],
      "stateMutability": "view",
      "type": "function"
    },
    {
      "inputs": [
        {
          "internalType": "bytes32",
          "name": "resourceID",
          "type": "bytes32"
        },
        {
          "internalType": "uint32",
          "name": "targetChainId",
          "type": "uint32"
        },
        {
          "internalType": "address",
          "name": "target",
          "type": "address"
        },
        {
          "internalType": "bytes",
          "name": "data",
          "type": "bytes"
        }
      ],
      "name": "callRemote",
      "outputs": [
        {
          "internalType": "bytes32",
          "name": "",
          "type": "bytes32"
        }
      ],
      "stateMutability": "payable",
      "type": "function"
    },
    {
      "inputs": [],
      "name": "chainId",
      "outputs": [
        {
          "internalType": "uint32",
          "name": "",
          "type": "uint32"
        }
      ],
      "stateMutability": "view",
      "type": "function"
    },
    {
      "inputs": [
        {
          "internalType": "bytes32",
          "name": "",
          "type": "bytes32"
        }
      ],
      "name": "confirmedRecord",
      "outputs": [
        {
          "internalType": "bool",
          "name": "",
          "type": "bool"
        }
      ],
      "stateMutability": "view",
      "type": "function"
    },
    {
      "inputs": [
        {
          "internalType": "bytes32",
          "name": "resourceID",
          "type": "bytes32"
        },
        {
          "internalType": "uint32",
          "name": "sourceChainId",
          "type": "uint32"
        },
        {
          "internalType": "uint256",
          "name": "sourceNonce",
          "type": "uint256"
        },
        {
          "internalType": "bytes32",
          "name": "messageId",
          "type": "bytes32"
        },
        {
          "internalType": "uint32",
          "name": "targetChainId",
          "type": "uint32"
        },
        {
          "internalType": "address",
          "name": "target",
          "type": "address"
        },
        {
          "internalType": "bytes",
          "name": "data",
          "type": "bytes"
        },
        {
          "internalType": "bytes[]",
          "name": "signatures",
          "type": "bytes[]"
        }
      ],
      "name": "execute",
      "outputs": [],
      "stateMutability": "nonpayable",
      "type": "function"
    },
    {
      "inputs": [
        {
          "internalType": "bytes32",
          "name": "",
          "type": "bytes32"
        }
      ],
      "name": "executionRecord",
      "outputs": [
        {
          "internalType": "bool",
          "name": "",
          "type": "bool"
        }
      ],
      "stateMutability": "view",
      "type": "function"
    },
    {
      "inputs": [
        {
          "internalType": "bytes32",
          "name": "role",
          "type": "bytes32"
        }
      ],
      "name": "getRoleAdmin",
      "outputs": [
        {
          "internalType": "bytes32",
          "name": "",
          "type": "bytes32"
        }
      ],
      "stateMutability": "view",
      "type": "function"
    },
    {
      "inputs": [
        {
          "internalType": "bytes32",
          "name": "role",
          "type": "bytes32"
        },
        {
          "internalType": "uint256",
          "name": "index",
          "type": "uint256"
        }
      ],
      "name": "getRoleMember",
      "outputs": [
        {
          "internalType": "address",
          "name": "",
          "type": "address"
        }
      ],
      "stateMutability": "view",
      "type": "function"
    },
    {
      "inputs": [
        {
          "internalType": "bytes32",
          "name": "role",
          "type": "bytes32"
        }
      ],
      "name": "getRoleMemberCount",
      "outputs": [
        {
          "internalType": "uint256",
          "name": "",
          "type": "uint256"
        }
      ],
      "stateMutability": "view",
      "type": "function"
    },
    {
      "inputs": [
        {
          "internalType": "bytes32",
          "name": "role",
          "type": "bytes32"
        },
        {
          "internalType": "address",
          "name": "account",
          "type": "address"
        }
      ],
      "name": "grantRole",
      "outputs": [],
      "stateMutability": "nonpayable",
      "type": "function"
    },
    {
      "inputs": [
        {
          "internalType": "bytes32",
          "name": "role",
          "type": "bytes32"
        },
        {
          "internalType": "address",
          "name": "account",
          "type": "address"
        }
      ],
      "name": "hasRole",
      "outputs": [
        {
          "internalType": "bool",
          "name": "",
          "type": "bool"
        }
      ],
      "stateMutability": "view",
      "type": "function"
    },
    {
      "inputs": [],
      "name": "localNonce",
      "outputs": [
        {
          "internalType": "uint256",
          "name": "",
          "type": "uint256"
        }
      ],
      "stateMutability": "view",
      "type": "function"
    },
    {
      "inputs": [
        {
          "internalType": "bytes32",
          "name": "role",
          "type": "bytes32"
        },
        {
          "internalType": "address",
          "name": "account",
          "type": "address"
        }
      ],
      "name": "renounceRole",
      "outputs": [],
      "stateMutability": "nonpayable",
      "type": "function"
    },
    {
      "inputs": [
        {
          "internalType": "bytes32",
          "name": "role",
          "type": "bytes32"
        },
        {
          "internalType": "address",
          "name": "account",
          "type": "address"
        }
      ],
      "name": "revokeRole",
      "outputs": [],
      "stateMutability": "nonpayable",
      "type": "function"
    },
    {
      "inputs": [],
      "name": "signatureThreshold",
      "outputs": [
        {
          "internalType": "uint32",
          "name": "",
          "type": "uint32"
        }
      ],
      "stateMutability": "view",
      "type": "function"
    },
    {
      "inputs": [
        {
          "internalType": "bytes4",
          "name": "interfaceId",
          "type": "bytes4"
        }
      ],
      "name": "supportsInterface",
      "outputs": [
        {
          "internalType": "bool",
          "name": "",
          "type": "bool"
        }
      ],
      "stateMutability": "view",
      "type": "function"
    }
  ],
  "bytecode": "0x60806040523480156200001157600080fd5b50604051620046863803806200468683398181016040528101906200003791906200035d565b8160ff16600260046101000a81548163ffffffff021916908363ffffffff160217905550620000706000801b336200009960201b60201c565b80600260006101000a81548163ffffffff021916908363ffffffff1602179055505050620003ef565b620000ab8282620000af60201b60201c565b5050565b620000c68282620000f760201b620019191760201c565b620000f28160016000858152602001908152602001600020620001e860201b620019f91790919060201c565b505050565b6200010982826200022060201b60201c565b620001e457600160008084815260200190815260200160002060000160008373ffffffffffffffffffffffffffffffffffffffff1673ffffffffffffffffffffffffffffffffffffffff16815260200190815260200160002060006101000a81548160ff021916908315150217905550620001896200028a60201b60201c565b73ffffffffffffffffffffffffffffffffffffffff168173ffffffffffffffffffffffffffffffffffffffff16837f2f8788117e7eff1d82e926ec794901d17c78024a50270940304540a733656f0d60405160405180910390a45b5050565b600062000218836000018373ffffffffffffffffffffffffffffffffffffffff1660001b6200029260201b60201c565b905092915050565b600080600084815260200190815260200160002060000160008373ffffffffffffffffffffffffffffffffffffffff1673ffffffffffffffffffffffffffffffffffffffff16815260200190815260200160002060009054906101000a900460ff16905092915050565b600033905090565b6000620002a683836200030c60201b60201c565b6200030157826000018290806001815401808255809150506001900390600052602060002001600090919091909150558260000180549050836001016000848152602001908152602001600020819055506001905062000306565b600090505b92915050565b600080836001016000848152602001908152602001600020541415905092915050565b6000815190506200034081620003bb565b92915050565b6000815190506200035781620003d5565b92915050565b600080604083850312156200037157600080fd5b6000620003818582860162000346565b925050602062000394858286016200032f565b9150509250929050565b600063ffffffff82169050919050565b600060ff82169050919050565b620003c6816200039e565b8114620003d257600080fd5b50565b620003e081620003ae565b8114620003ec57600080fd5b50565b61428780620003ff6000396000f3fe6080604052600436106101815760003560e01c806391d14854116100d1578063c49baebe1161008a578063e24c420311610064578063e24c4203146105ea578063ec87621c14610613578063ec9a17191461063e578063ffd1b2321461066757610181565b8063c49baebe14610559578063ca15c87314610584578063d547741f146105c157610181565b806391d148541461042e57806393e6ad971461046b5780639a8a0592146104a8578063a217fddf146104d3578063a82f2e26146104fe578063b0aaa1531461052957610181565b80634c906fea1161013e578063669ce80211610118578063669ce8021461034957806368d1b2a61461037257806384b268d1146103af5780639010d07c146103f157610181565b80634c906fea146102ba578063531c4478146102f757806354549c4d1461032057610181565b806301ffc9a71461018657806313cb3591146101c3578063248a9ca3146101ee5780632f2ff15d1461022b578063360f9e391461025457806336568abe14610291575b600080fd5b34801561019257600080fd5b506101ad60048036038101906101a89190612ef6565b610690565b6040516101ba919061349b565b60405180910390f35b3480156101cf57600080fd5b506101d861070a565b6040516101e5919061388e565b60405180910390f35b3480156101fa57600080fd5b5061021560048036038101906102109190612c9b565b610710565b60405161022291906134b6565b60405180910390f35b34801561023757600080fd5b50610252600480360381019061024d9190612cc4565b61072f565b005b34801561026057600080fd5b5061027b60048036038101906102769190612c9b565b610750565b604051610288919061349b565b60405180910390f35b34801561029d57600080fd5b506102b860048036038101906102b39190612cc4565b610770565b005b3480156102c657600080fd5b506102e160048036038101906102dc9190612c9b565b6107f3565b6040516102ee919061349b565b60405180910390f35b34801561030357600080fd5b5061031e60048036038101906103199190612d3c565b610813565b005b34801561032c57600080fd5b5061034760048036038101906103429190612f1f565b61091f565b005b34801561035557600080fd5b50610370600480360381019061036b9190612f1f565b610951565b005b34801561037e57600080fd5b5061039960048036038101906103949190612c9b565b610983565b6040516103a6919061388e565b60405180910390f35b3480156103bb57600080fd5b506103d660048036038101906103d19190612c9b565b6109a1565b6040516103e8969594939291906134d1565b60405180910390f35b3480156103fd57600080fd5b5061041860048036038101906104139190612d00565b610ac2565b6040516104259190613480565b60405180910390f35b34801561043a57600080fd5b5061045560048036038101906104509190612cc4565b610af1565b604051610462919061349b565b60405180910390f35b34801561047757600080fd5b50610492600480360381019061048d9190612c9b565b610b5b565b60405161049f919061349b565b60405180910390f35b3480156104b457600080fd5b506104bd610b7b565b6040516104ca91906138a9565b60405180910390f35b3480156104df57600080fd5b506104e8610b91565b6040516104f591906134b6565b60405180910390f35b34801561050a57600080fd5b50610513610b98565b60405161052091906138a9565b60405180910390f35b610543600480360381019061053e9190612d8b565b610bae565b60405161055091906134b6565b60405180910390f35b34801561056557600080fd5b5061056e61104b565b60405161057b91906134b6565b60405180910390f35b34801561059057600080fd5b506105ab60048036038101906105a69190612c9b565b61106f565b6040516105b8919061388e565b60405180910390f35b3480156105cd57600080fd5b506105e860048036038101906105e39190612cc4565b611093565b005b3480156105f657600080fd5b50610611600480360381019061060c9190612e0b565b6110b4565b005b34801561061f57600080fd5b5061062861171b565b60405161063591906134b6565b60405180910390f35b34801561064a57600080fd5b5061066560048036038101906106609190612cc4565b61173f565b005b34801561067357600080fd5b5061068e60048036038101906106899190612cc4565b61182c565b005b60007f5a05180f000000000000000000000000000000000000000000000000000000007bffffffffffffffffffffffffffffffffffffffffffffffffffffffff1916827bffffffffffffffffffffffffffffffffffffffffffffffffffffffff19161480610703575061070282611a29565b5b9050919050565b60035481565b6000806000838152602001908152602001600020600101549050919050565b61073882610710565b61074181611aa3565b61074b8383611ab7565b505050565b60056020528060005260406000206000915054906101000a900460ff1681565b610778611aeb565b73ffffffffffffffffffffffffffffffffffffffff168173ffffffffffffffffffffffffffffffffffffffff16146107e5576040517f08c379a00000000000000000000000000000000000000000000000000000000081526004016107dc9061386e565b60405180910390fd5b6107ef8282611af3565b5050565b60076020528060005260406000206000915054906101000a900460ff1681565b61083d7faf290d8680820aad922855f39b306097b20e28774d6c1ad35a20325630c3a02c33610af1565b8061085157506108506000801b33610af1565b5b610890576040517f08c379a0000000000000000000000000000000000000000000000000000000008152600401610887906136ee565b60405180910390fd5b60008210156108d4576040517f08c379a00000000000000000000000000000000000000000000000000000000081526004016108cb9061378e565b60405180910390fd5b816004600085815260200190815260200160002060000181905550806005600085815260200190815260200160002060006101000a81548160ff021916908315150217905550505050565b6000801b61092c81611aa3565b81600260046101000a81548163ffffffff021916908363ffffffff1602179055505050565b6000801b61095e81611aa3565b81600260006101000a81548163ffffffff021916908363ffffffff1602179055505050565b60046020528060005260406000206000915090508060000154905081565b60066020528060005260406000206000915090508060000154908060010160009054906101000a900473ffffffffffffffffffffffffffffffffffffffff16908060010160149054906101000a900463ffffffff16908060020160009054906101000a900473ffffffffffffffffffffffffffffffffffffffff1690806003018054610a2c90613bda565b80601f0160208091040260200160405190810160405280929190818152602001828054610a5890613bda565b8015610aa55780601f10610a7a57610100808354040283529160200191610aa5565b820191906000526020600020905b815481529060010190602001808311610a8857829003601f168201915b5050505050908060040160009054906101000a900460ff16905086565b6000610ae98260016000868152602001908152602001600020611b2790919063ffffffff16565b905092915050565b600080600084815260200190815260200160002060000160008373ffffffffffffffffffffffffffffffffffffffff1673ffffffffffffffffffffffffffffffffffffffff16815260200190815260200160002060009054906101000a900460ff16905092915050565b60086020528060005260406000206000915054906101000a900460ff1681565b600260049054906101000a900463ffffffff1681565b6000801b81565b600260009054906101000a900463ffffffff1681565b60006004600087815260200190815260200160002060000154341015610c09576040517f08c379a0000000000000000000000000000000000000000000000000000000008152600401610c00906136ce565b60405180910390fd5b600260049054906101000a900463ffffffff1663ffffffff168563ffffffff161415610c6a576040517f08c379a0000000000000000000000000000000000000000000000000000000008152600401610c61906137ee565b60405180910390fd5b610c748633611b41565b610cb3576040517f08c379a0000000000000000000000000000000000000000000000000000000008152600401610caa9061364e565b60405180910390fd5b6005600087815260200190815260200160002060009054906101000a900460ff1615610d2257610ce284611bad565b610d21576040517f08c379a0000000000000000000000000000000000000000000000000000000008152600401610d189061380e565b60405180910390fd5b5b60008383604051610d349291906133f0565b604051809103902090506000600260049054906101000a900463ffffffff1688600354898986604051602001610d6f969594939291906138c4565b60405160208183030381529060405280519060200120905060006040518060c001604052808a81526020013373ffffffffffffffffffffffffffffffffffffffff1681526020018963ffffffff1681526020018873ffffffffffffffffffffffffffffffffffffffff16815260200187878080601f016020809104026020016040519081016040528093929190818152602001838380828437600081840152601f19601f82011690508083019250505050505050815260200160006001811115610e62577f4e487b7100000000000000000000000000000000000000000000000000000000600052602160045260246000fd5b815250905080600660008481526020019081526020016000206000820151816000015560208201518160010160006101000a81548173ffffffffffffffffffffffffffffffffffffffff021916908373ffffffffffffffffffffffffffffffffffffffff16021790555060408201518160010160146101000a81548163ffffffff021916908363ffffffff16021790555060608201518160020160006101000a81548173ffffffffffffffffffffffffffffffffffffffff021916908373ffffffffffffffffffffffffffffffffffffffff1602179055506080820151816003019080519060200190610f56929190612ae6565b5060a08201518160040160006101000a81548160ff02191690836001811115610fa8577f4e487b7100000000000000000000000000000000000000000000000000000000600052602160045260246000fd5b02179055509050508673ffffffffffffffffffffffffffffffffffffffff168863ffffffff16837f402ecf32b0067916f0ca429f48aa67733a56593a33df268550b2d21129cc991e8c33600260049054906101000a900463ffffffff166003548d8d60405161101c96959493929190613539565b60405180910390a46003600081548092919061103790613c0c565b919050555081935050505095945050505050565b7fa95257aebefccffaada4758f028bce81ea992693be70592f620c4c9a0d9e715a81565b600061108c60016000848152602001908152602001600020611bd0565b9050919050565b61109c82610710565b6110a581611aa3565b6110af8383611af3565b505050565b600260009054906101000a900463ffffffff1663ffffffff16828290501015611112576040517f08c379a00000000000000000000000000000000000000000000000000000000081526004016111099061384e565b60405180910390fd5b600260049054906101000a900463ffffffff1663ffffffff168963ffffffff16148061115b5750600260049054906101000a900463ffffffff1663ffffffff168663ffffffff16145b61119a576040517f08c379a0000000000000000000000000000000000000000000000000000000008152600401611191906136ae565b60405180910390fd5b600015156007600089815260200190815260200160002060009054906101000a900460ff1615151480156111eb5750600260049054906101000a900463ffffffff1663ffffffff168663ffffffff16145b806112435750600015156008600089815260200190815260200160002060009054906101000a900460ff1615151480156112425750600260049054906101000a900463ffffffff1663ffffffff168963ffffffff16145b5b611282576040517f08c379a0000000000000000000000000000000000000000000000000000000008152600401611279906137ce565b60405180910390fd5b600084846040516112949291906133f0565b60405180910390209050878a8c8b8a8a866040516020016112ba969594939291906138c4565b6040516020818303038152906040528051906020012014611310576040517f08c379a0000000000000000000000000000000000000000000000000000000008152600401611307906137ae565b60405180910390fd5b60005b8383905081146114465760006113c785858481811061135b577f4e487b7100000000000000000000000000000000000000000000000000000000600052603260045260246000fd5b905060200281019061136d9190613925565b8080601f016020809104026020016040519081016040528093929190818152602001838380828437600081840152601f19601f820116905080830192505050505050506113b98c611be5565b611c1590919063ffffffff16565b90506113f37fa95257aebefccffaada4758f028bce81ea992693be70592f620c4c9a0d9e715a82610af1565b611432576040517f08c379a00000000000000000000000000000000000000000000000000000000081526004016114299061370e565b60405180910390fd5b50808061143e90613c0c565b915050611313565b50600260049054906101000a900463ffffffff1663ffffffff168763ffffffff16141561165557600560008c815260200190815260200160002060009054906101000a900460ff161561154e5761149c86611bad565b6114db576040517f08c379a00000000000000000000000000000000000000000000000000000000081526004016114d29061380e565b60405180910390fd5b61154885858080601f016020809104026020016040519081016040528093929190818152602001838380828437600081840152601f19601f820116905080830192505050505050508773ffffffffffffffffffffffffffffffffffffffff16611c3c90919063ffffffff16565b506115c4565b60008690508073ffffffffffffffffffffffffffffffffffffffff1663e9ae5c538d88886040518463ffffffff1660e01b815260040161159093929190613595565b600060405180830381600087803b1580156115aa57600080fd5b505af11580156115be573d6000803e3d6000fd5b50505050505b6001600760008a815260200190815260200160002060006101000a81548160ff0219169083151502179055508573ffffffffffffffffffffffffffffffffffffffff168763ffffffff16897fe1678c0796b64c840da197b535dfd9e7e989768fbf5afd267d31c664a1f30e328e308f8f8c8c60405161164896959493929190613539565b60405180910390a461170e565b600260049054906101000a900463ffffffff1663ffffffff168a63ffffffff16141561170d576001600660008a815260200190815260200160002060040160006101000a81548160ff021916908360018111156116db577f4e487b7100000000000000000000000000000000000000000000000000000000600052602160045260246000fd5b02179055506001600860008a815260200190815260200160002060006101000a81548160ff0219169083151502179055505b5b5050505050505050505050565b7faf290d8680820aad922855f39b306097b20e28774d6c1ad35a20325630c3a02c81565b6117697faf290d8680820aad922855f39b306097b20e28774d6c1ad35a20325630c3a02c33610af1565b8061177d575061177c6000801b33610af1565b5b6117bc576040517f08c379a00000000000000000000000000000000000000000000000000000000081526004016117b3906136ee565b60405180910390fd5b60016004600084815260200190815260200160002060010160008373ffffffffffffffffffffffffffffffffffffffff1673ffffffffffffffffffffffffffffffffffffffff16815260200190815260200160002060006101000a81548160ff0219169083151502179055505050565b6118567faf290d8680820aad922855f39b306097b20e28774d6c1ad35a20325630c3a02c33610af1565b8061186a57506118696000801b33610af1565b5b6118a9576040517f08c379a00000000000000000000000000000000000000000000000000000000081526004016118a0906136ee565b60405180910390fd5b60006004600084815260200190815260200160002060010160008373ffffffffffffffffffffffffffffffffffffffff1673ffffffffffffffffffffffffffffffffffffffff16815260200190815260200160002060006101000a81548160ff0219169083151502179055505050565b6119238282610af1565b6119f557600160008084815260200190815260200160002060000160008373ffffffffffffffffffffffffffffffffffffffff1673ffffffffffffffffffffffffffffffffffffffff16815260200190815260200160002060006101000a81548160ff02191690831515021790555061199a611aeb565b73ffffffffffffffffffffffffffffffffffffffff168173ffffffffffffffffffffffffffffffffffffffff16837f2f8788117e7eff1d82e926ec794901d17c78024a50270940304540a733656f0d60405160405180910390a45b5050565b6000611a21836000018373ffffffffffffffffffffffffffffffffffffffff1660001b611c86565b905092915050565b60007f7965db0b000000000000000000000000000000000000000000000000000000007bffffffffffffffffffffffffffffffffffffffffffffffffffffffff1916827bffffffffffffffffffffffffffffffffffffffffffffffffffffffff19161480611a9c5750611a9b82611cf6565b5b9050919050565b611ab481611aaf611aeb565b611d60565b50565b611ac18282611919565b611ae681600160008581526020019081526020016000206119f990919063ffffffff16565b505050565b600033905090565b611afd8282611dfd565b611b228160016000858152602001908152602001600020611ede90919063ffffffff16565b505050565b6000611b368360000183611f0e565b60001c905092915050565b60006004600084815260200190815260200160002060010160008373ffffffffffffffffffffffffffffffffffffffff1673ffffffffffffffffffffffffffffffffffffffff16815260200190815260200160002060009054906101000a900460ff1615905092915050565b6000808273ffffffffffffffffffffffffffffffffffffffff163b119050919050565b6000611bde82600001611f5f565b9050919050565b600081604051602001611bf89190613420565b604051602081830303815290604052805190602001209050919050565b6000806000611c248585611f70565b91509150611c3181611ff3565b819250505092915050565b6060611c7e83836040518060400160405280601e81526020017f416464726573733a206c6f772d6c6576656c2063616c6c206661696c65640000815250612344565b905092915050565b6000611c92838361235c565b611ceb578260000182908060018154018082558091505060019003906000526020600020016000909190919091505582600001805490508360010160008481526020019081526020016000208190555060019050611cf0565b600090505b92915050565b60007f01ffc9a7000000000000000000000000000000000000000000000000000000007bffffffffffffffffffffffffffffffffffffffffffffffffffffffff1916827bffffffffffffffffffffffffffffffffffffffffffffffffffffffff1916149050919050565b611d6a8282610af1565b611df957611d8f8173ffffffffffffffffffffffffffffffffffffffff16601461237f565b611d9d8360001c602061237f565b604051602001611dae929190613446565b6040516020818303038152906040526040517f08c379a0000000000000000000000000000000000000000000000000000000008152600401611df0919061360c565b60405180910390fd5b5050565b611e078282610af1565b15611eda57600080600084815260200190815260200160002060000160008373ffffffffffffffffffffffffffffffffffffffff1673ffffffffffffffffffffffffffffffffffffffff16815260200190815260200160002060006101000a81548160ff021916908315150217905550611e7f611aeb565b73ffffffffffffffffffffffffffffffffffffffff168173ffffffffffffffffffffffffffffffffffffffff16837ff6391f5c32d9c69d2a47ea670b442974b53935d1edc7fd64eb21e047a839171b60405160405180910390a45b5050565b6000611f06836000018373ffffffffffffffffffffffffffffffffffffffff1660001b612679565b905092915050565b6000826000018281548110611f4c577f4e487b7100000000000000000000000000000000000000000000000000000000600052603260045260246000fd5b9060005260206000200154905092915050565b600081600001805490509050919050565b600080604183511415611fb25760008060006020860151925060408601519150606086015160001a9050611fa6878285856127ff565b94509450505050611fec565b604083511415611fe3576000806020850151915060408501519050611fd886838361290c565b935093505050611fec565b60006002915091505b9250929050565b6000600481111561202d577f4e487b7100000000000000000000000000000000000000000000000000000000600052602160045260246000fd5b816004811115612066577f4e487b7100000000000000000000000000000000000000000000000000000000600052602160045260246000fd5b141561207157612341565b600160048111156120ab577f4e487b7100000000000000000000000000000000000000000000000000000000600052602160045260246000fd5b8160048111156120e4577f4e487b7100000000000000000000000000000000000000000000000000000000600052602160045260246000fd5b1415612125576040517f08c379a000000000000000000000000000000000000000000000000000000000815260040161211c9061362e565b60405180910390fd5b6002600481111561215f577f4e487b7100000000000000000000000000000000000000000000000000000000600052602160045260246000fd5b816004811115612198577f4e487b7100000000000000000000000000000000000000000000000000000000600052602160045260246000fd5b14156121d9576040517f08c379a00000000000000000000000000000000000000000000000000000000081526004016121d09061368e565b60405180910390fd5b60036004811115612213577f4e487b7100000000000000000000000000000000000000000000000000000000600052602160045260246000fd5b81600481111561224c577f4e487b7100000000000000000000000000000000000000000000000000000000600052602160045260246000fd5b141561228d576040517f08c379a00000000000000000000000000000000000000000000000000000000081526004016122849061372e565b60405180910390fd5b6004808111156122c6577f4e487b7100000000000000000000000000000000000000000000000000000000600052602160045260246000fd5b8160048111156122ff577f4e487b7100000000000000000000000000000000000000000000000000000000600052602160045260246000fd5b1415612340576040517f08c379a00000000000000000000000000000000000000000000000000000000081526004016123379061376e565b60405180910390fd5b5b50565b6060612353848460008561296b565b90509392505050565b600080836001016000848152602001908152602001600020541415905092915050565b6060600060028360026123929190613a20565b61239c91906139ca565b67ffffffffffffffff8111156123db577f4e487b7100000000000000000000000000000000000000000000000000000000600052604160045260246000fd5b6040519080825280601f01601f19166020018201604052801561240d5781602001600182028036833780820191505090505b5090507f30000000000000000000000000000000000000000000000000000000000000008160008151811061246b577f4e487b7100000000000000000000000000000000000000000000000000000000600052603260045260246000fd5b60200101907effffffffffffffffffffffffffffffffffffffffffffffffffffffffffffff1916908160001a9053507f7800000000000000000000000000000000000000000000000000000000000000816001815181106124f5577f4e487b7100000000000000000000000000000000000000000000000000000000600052603260045260246000fd5b60200101907effffffffffffffffffffffffffffffffffffffffffffffffffffffffffffff1916908160001a905350600060018460026125359190613a20565b61253f91906139ca565b90505b600181111561262b577f3031323334353637383961626364656600000000000000000000000000000000600f8616601081106125a7577f4e487b7100000000000000000000000000000000000000000000000000000000600052603260045260246000fd5b1a60f81b8282815181106125e4577f4e487b7100000000000000000000000000000000000000000000000000000000600052603260045260246000fd5b60200101907effffffffffffffffffffffffffffffffffffffffffffffffffffffffffffff1916908160001a905350600485901c94508061262490613bb0565b9050612542565b506000841461266f576040517f08c379a00000000000000000000000000000000000000000000000000000000081526004016126669061366e565b60405180910390fd5b8091505092915050565b600080836001016000848152602001908152602001600020549050600081146127f35760006001826126ab9190613a7a565b90506000600186600001805490506126c39190613a7a565b905081811461277e57600086600001828154811061270a577f4e487b7100000000000000000000000000000000000000000000000000000000600052603260045260246000fd5b9060005260206000200154905080876000018481548110612754577f4e487b7100000000000000000000000000000000000000000000000000000000600052603260045260246000fd5b90600052602060002001819055508387600101600083815260200190815260200160002081905550505b856000018054806127b8577f4e487b7100000000000000000000000000000000000000000000000000000000600052603160045260246000fd5b6001900381819060005260206000200160009055905585600101600086815260200190815260200160002060009055600193505050506127f9565b60009150505b92915050565b6000807f7fffffffffffffffffffffffffffffff5d576e7357a4501ddfe92f46681b20a08360001c111561283a576000600391509150612903565b601b8560ff16141580156128525750601c8560ff1614155b15612864576000600491509150612903565b60006001878787876040516000815260200160405260405161288994939291906135c7565b6020604051602081039080840390855afa1580156128ab573d6000803e3d6000fd5b505050602060405103519050600073ffffffffffffffffffffffffffffffffffffffff168173ffffffffffffffffffffffffffffffffffffffff1614156128fa57600060019250925050612903565b80600092509250505b94509492505050565b60008060007f7fffffffffffffffffffffffffffffffffffffffffffffffffffffffffffffff60001b841690506000601b60ff8660001c901c61294f91906139ca565b905061295d878288856127ff565b935093505050935093915050565b6060824710156129b0576040517f08c379a00000000000000000000000000000000000000000000000000000000081526004016129a79061374e565b60405180910390fd5b6129b985611bad565b6129f8576040517f08c379a00000000000000000000000000000000000000000000000000000000081526004016129ef9061382e565b60405180910390fd5b6000808673ffffffffffffffffffffffffffffffffffffffff168587604051612a219190613409565b60006040518083038185875af1925050503d8060008114612a5e576040519150601f19603f3d011682016040523d82523d6000602084013e612a63565b606091505b5091509150612a73828286612a7f565b92505050949350505050565b60608315612a8f57829050612adf565b600083511115612aa25782518084602001fd5b816040517f08c379a0000000000000000000000000000000000000000000000000000000008152600401612ad6919061360c565b60405180910390fd5b9392505050565b828054612af290613bda565b90600052602060002090601f016020900481019282612b145760008555612b5b565b82601f10612b2d57805160ff1916838001178555612b5b565b82800160010185558215612b5b579182015b82811115612b5a578251825591602001919060010190612b3f565b5b509050612b689190612b6c565b5090565b5b80821115612b85576000816000905550600101612b6d565b5090565b600081359050612b98816141c7565b92915050565b60008083601f840112612bb057600080fd5b8235905067ffffffffffffffff811115612bc957600080fd5b602083019150836020820283011115612be157600080fd5b9250929050565b600081359050612bf7816141de565b92915050565b600081359050612c0c816141f5565b92915050565b600081359050612c218161420c565b92915050565b60008083601f840112612c3957600080fd5b8235905067ffffffffffffffff811115612c5257600080fd5b602083019150836001820283011115612c6a57600080fd5b9250929050565b600081359050612c8081614223565b92915050565b600081359050612c958161423a565b92915050565b600060208284031215612cad57600080fd5b6000612cbb84828501612bfd565b91505092915050565b60008060408385031215612cd757600080fd5b6000612ce585828601612bfd565b9250506020612cf685828601612b89565b9150509250929050565b60008060408385031215612d1357600080fd5b6000612d2185828601612bfd565b9250506020612d3285828601612c71565b9150509250929050565b600080600060608486031215612d5157600080fd5b6000612d5f86828701612bfd565b9350506020612d7086828701612c71565b9250506040612d8186828701612be8565b9150509250925092565b600080600080600060808688031215612da357600080fd5b6000612db188828901612bfd565b9550506020612dc288828901612c86565b9450506040612dd388828901612b89565b935050606086013567ffffffffffffffff811115612df057600080fd5b612dfc88828901612c27565b92509250509295509295909350565b6000806000806000806000806000806101008b8d031215612e2b57600080fd5b6000612e398d828e01612bfd565b9a50506020612e4a8d828e01612c86565b9950506040612e5b8d828e01612c71565b9850506060612e6c8d828e01612bfd565b9750506080612e7d8d828e01612c86565b96505060a0612e8e8d828e01612b89565b95505060c08b013567ffffffffffffffff811115612eab57600080fd5b612eb78d828e01612c27565b945094505060e08b013567ffffffffffffffff811115612ed657600080fd5b612ee28d828e01612b9e565b92509250509295989b9194979a5092959850565b600060208284031215612f0857600080fd5b6000612f1684828501612c12565b91505092915050565b600060208284031215612f3157600080fd5b6000612f3f84828501612c86565b91505092915050565b612f5181613aae565b82525050565b612f6081613ac0565b82525050565b612f6f81613acc565b82525050565b612f86612f8182613acc565b613c55565b82525050565b6000612f988385613992565b9350612fa5838584613b6e565b612fae83613cec565b840190509392505050565b6000612fc583856139a3565b9350612fd2838584613b6e565b82840190509392505050565b6000612fe98261397c565b612ff38185613992565b9350613003818560208601613b7d565b61300c81613cec565b840191505092915050565b60006130228261397c565b61302c81856139a3565b935061303c818560208601613b7d565b80840191505092915050565b61305181613b5c565b82525050565b600061306282613987565b61306c81856139ae565b935061307c818560208601613b7d565b61308581613cec565b840191505092915050565b600061309b82613987565b6130a581856139bf565b93506130b5818560208601613b7d565b80840191505092915050565b60006130ce6018836139ae565b91506130d982613cfd565b602082019050919050565b60006130f1600f836139ae565b91506130fc82613d26565b602082019050919050565b60006131146020836139ae565b915061311f82613d4f565b602082019050919050565b6000613137601f836139ae565b915061314282613d78565b602082019050919050565b600061315a601c836139bf565b915061316582613da1565b601c82019050919050565b600061317d6024836139ae565b915061318882613dca565b604082019050919050565b60006131a06016836139ae565b91506131ab82613e19565b602082019050919050565b60006131c3600a836139ae565b91506131ce82613e42565b602082019050919050565b60006131e66011836139ae565b91506131f182613e6b565b602082019050919050565b60006132096022836139ae565b915061321482613e94565b604082019050919050565b600061322c6026836139ae565b915061323782613ee3565b604082019050919050565b600061324f6022836139ae565b915061325a82613f32565b604082019050919050565b60006132726028836139ae565b915061327d82613f81565b604082019050919050565b60006132956016836139ae565b91506132a082613fd0565b602082019050919050565b60006132b86015836139ae565b91506132c382613ff9565b602082019050919050565b60006132db6029836139ae565b91506132e682614022565b604082019050919050565b60006132fe6026836139ae565b915061330982614071565b604082019050919050565b6000613321601d836139ae565b915061332c826140c0565b602082019050919050565b60006133446017836139bf565b915061334f826140e9565b601782019050919050565b60006133676017836139ae565b915061337282614112565b602082019050919050565b600061338a6011836139bf565b91506133958261413b565b601182019050919050565b60006133ad602f836139ae565b91506133b882614164565b604082019050919050565b6133cc81613b35565b82525050565b6133db81613b3f565b82525050565b6133ea81613b4f565b82525050565b60006133fd828486612fb9565b91508190509392505050565b60006134158284613017565b915081905092915050565b600061342b8261314d565b91506134378284612f75565b60208201915081905092915050565b600061345182613337565b915061345d8285613090565b91506134688261337d565b91506134748284613090565b91508190509392505050565b60006020820190506134956000830184612f48565b92915050565b60006020820190506134b06000830184612f57565b92915050565b60006020820190506134cb6000830184612f66565b92915050565b600060c0820190506134e66000830189612f66565b6134f36020830188612f48565b61350060408301876133d2565b61350d6060830186612f48565b818103608083015261351f8185612fde565b905061352e60a0830184613048565b979650505050505050565b600060a08201905061354e6000830189612f66565b61355b6020830188612f48565b61356860408301876133d2565b61357560608301866133c3565b8181036080830152613588818486612f8c565b9050979650505050505050565b60006040820190506135aa6000830186612f66565b81810360208301526135bd818486612f8c565b9050949350505050565b60006080820190506135dc6000830187612f66565b6135e960208301866133e1565b6135f66040830185612f66565b6136036060830184612f66565b95945050505050565b600060208201905081810360008301526136268184613057565b905092915050565b60006020820190508181036000830152613647816130c1565b9050919050565b60006020820190508181036000830152613667816130e4565b9050919050565b6000602082019050818103600083015261368781613107565b9050919050565b600060208201905081810360008301526136a78161312a565b9050919050565b600060208201905081810360008301526136c781613170565b9050919050565b600060208201905081810360008301526136e781613193565b9050919050565b60006020820190508181036000830152613707816131b6565b9050919050565b60006020820190508181036000830152613727816131d9565b9050919050565b60006020820190508181036000830152613747816131fc565b9050919050565b600060208201905081810360008301526137678161321f565b9050919050565b6000602082019050818103600083015261378781613242565b9050919050565b600060208201905081810360008301526137a781613265565b9050919050565b600060208201905081810360008301526137c781613288565b9050919050565b600060208201905081810360008301526137e7816132ab565b9050919050565b60006020820190508181036000830152613807816132ce565b9050919050565b60006020820190508181036000830152613827816132f1565b9050919050565b6000602082019050818103600083015261384781613314565b9050919050565b600060208201905081810360008301526138678161335a565b9050919050565b60006020820190508181036000830152613887816133a0565b9050919050565b60006020820190506138a360008301846133c3565b92915050565b60006020820190506138be60008301846133d2565b92915050565b600060c0820190506138d960008301896133d2565b6138e66020830188612f66565b6138f360408301876133c3565b61390060608301866133d2565b61390d6080830185612f48565b61391a60a0830184612f66565b979650505050505050565b6000808335600160200384360303811261393e57600080fd5b80840192508235915067ffffffffffffffff82111561395c57600080fd5b60208301925060018202360383131561397457600080fd5b509250929050565b600081519050919050565b600081519050919050565b600082825260208201905092915050565b600081905092915050565b600082825260208201905092915050565b600081905092915050565b60006139d582613b35565b91506139e083613b35565b9250827fffffffffffffffffffffffffffffffffffffffffffffffffffffffffffffffff03821115613a1557613a14613c5f565b5b828201905092915050565b6000613a2b82613b35565b9150613a3683613b35565b9250817fffffffffffffffffffffffffffffffffffffffffffffffffffffffffffffffff0483118215151615613a6f57613a6e613c5f565b5b828202905092915050565b6000613a8582613b35565b9150613a9083613b35565b925082821015613aa357613aa2613c5f565b5b828203905092915050565b6000613ab982613b15565b9050919050565b60008115159050919050565b6000819050919050565b60007fffffffff0000000000000000000000000000000000000000000000000000000082169050919050565b6000819050613b10826141b3565b919050565b600073ffffffffffffffffffffffffffffffffffffffff82169050919050565b6000819050919050565b600063ffffffff82169050919050565b600060ff82169050919050565b6000613b6782613b02565b9050919050565b82818337600083830152505050565b60005b83811015613b9b578082015181840152602081019050613b80565b83811115613baa576000848401525b50505050565b6000613bbb82613b35565b91506000821415613bcf57613bce613c5f565b5b600182039050919050565b60006002820490506001821680613bf257607f821691505b60208210811415613c0657613c05613cbd565b5b50919050565b6000613c1782613b35565b91507fffffffffffffffffffffffffffffffffffffffffffffffffffffffffffffffff821415613c4a57613c49613c5f565b5b600182019050919050565b6000819050919050565b7f4e487b7100000000000000000000000000000000000000000000000000000000600052601160045260246000fd5b7f4e487b7100000000000000000000000000000000000000000000000000000000600052602160045260246000fd5b7f4e487b7100000000000000000000000000000000000000000000000000000000600052602260045260246000fd5b6000601f19601f8301169050919050565b7f45434453413a20696e76616c6964207369676e61747572650000000000000000600082015250565b7f44656e79206f6620736572766963650000000000000000000000000000000000600082015250565b7f537472696e67733a20686578206c656e67746820696e73756666696369656e74600082015250565b7f45434453413a20696e76616c6964207369676e6174757265206c656e67746800600082015250565b7f19457468657265756d205369676e6564204d6573736167653a0a333200000000600082015250565b7f736f75726365436861696e4964206f7220746172676574436861696e4964206560008201527f72726f7200000000000000000000000000000000000000000000000000000000602082015250565b7f496e636f72726563742066656520737570706c69656400000000000000000000600082015250565b7f4e6f206163636573732000000000000000000000000000000000000000000000600082015250565b7f496e76616c6964207369676e6174757265000000000000000000000000000000600082015250565b7f45434453413a20696e76616c6964207369676e6174757265202773272076616c60008201527f7565000000000000000000000000000000000000000000000000000000000000602082015250565b7f416464726573733a20696e73756666696369656e742062616c616e636520666f60008201527f722063616c6c0000000000000000000000000000000000000000000000000000602082015250565b7f45434453413a20696e76616c6964207369676e6174757265202776272076616c60008201527f7565000000000000000000000000000000000000000000000000000000000000602082015250565b7f5f666565206d7573742062652047726561746572207468616e206f722065717560008201527f616c20746f203020000000000000000000000000000000000000000000000000602082015250565b7f43616e277420766572696679206d657373616765496400000000000000000000600082015250565b7f43616e2774206578656375746520616e796d6f72650000000000000000000000600082015250565b7f746172676574436861696e496420697320657175616c20746f2063757272656e60008201527f7420636861696e49640000000000000000000000000000000000000000000000602082015250565b7f546172676574206973206e6f742061206c6567616c20636f6e7472616374206160008201527f6464726573730000000000000000000000000000000000000000000000000000602082015250565b7f416464726573733a2063616c6c20746f206e6f6e2d636f6e7472616374000000600082015250565b7f416363657373436f6e74726f6c3a206163636f756e7420000000000000000000600082015250565b7f496e73756666696369656e74207369676e617475726573000000000000000000600082015250565b7f206973206d697373696e6720726f6c6520000000000000000000000000000000600082015250565b7f416363657373436f6e74726f6c3a2063616e206f6e6c792072656e6f756e636560008201527f20726f6c657320666f722073656c660000000000000000000000000000000000602082015250565b600281106141c4576141c3613c8e565b5b50565b6141d081613aae565b81146141db57600080fd5b50565b6141e781613ac0565b81146141f257600080fd5b50565b6141fe81613acc565b811461420957600080fd5b50565b61421581613ad6565b811461422057600080fd5b50565b61422c81613b35565b811461423757600080fd5b50565b61424381613b3f565b811461424e57600080fd5b5056fea2646970667358221220ba5e2bc2c90b2d6bdda6f83146f1aebbc40faebed5a295322e35cda0b36b664664736f6c63430008040033",
  "linkReferences": {},
  "deployedLinkReferences": {}
}