{
  "_format": "hh-sol-artifact-1",
  "contractName": "BurnERC20",
  "sourceName": "contracts/demo/burnERC20.sol",
  "abi": [
    {
      "inputs": [
        {
          "internalType": "address",
          "name": "_tokenAddress",
          "type": "address"
        }
      ],
      "stateMutability": "nonpayable",
      "type": "constructor"
    },
    {
      "inputs": [],
      "name": "Balance",
      "outputs": [
        {
          "internalType": "uint256",
          "name": "",
          "type": "uint256"
        }
      ],
      "stateMutability": "view",
      "type": "function"
    },
    {
      "inputs": [
        {
          "internalType": "uint256",
          "name": "amount",
          "type": "uint256"
        }
      ],
      "name": "burn",
      "outputs": [],
      "stateMutability": "nonpayable",
      "type": "function"
    },
    {
      "inputs": [],
      "name": "tokenAddress",
      "outputs": [
        {
          "internalType": "address",
          "name": "",
          "type": "address"
        }
      ],
      "stateMutability": "view",
      "type": "function"
    }
  ],
  "bytecode": "0x608060405234801561001057600080fd5b506040516104da3803806104da833981810160405281019061003291906100ce565b806000806101000a81548173ffffffffffffffffffffffffffffffffffffffff021916908373ffffffffffffffffffffffffffffffffffffffff16021790555080600160006101000a81548173ffffffffffffffffffffffffffffffffffffffff021916908373ffffffffffffffffffffffffffffffffffffffff16021790555050610140565b6000815190506100c881610129565b92915050565b6000602082840312156100e057600080fd5b60006100ee848285016100b9565b91505092915050565b600061010282610109565b9050919050565b600073ffffffffffffffffffffffffffffffffffffffff82169050919050565b610132816100f7565b811461013d57600080fd5b50565b61038b8061014f6000396000f3fe608060405234801561001057600080fd5b50600436106100415760003560e01c80630ef678871461004657806342966c68146100645780639d76ea5814610080575b600080fd5b61004e61009e565b60405161005b91906102e7565b60405180910390f35b61007e60048036038101906100799190610233565b610153565b005b6100886101e5565b60405161009591906102a3565b60405180910390f35b60008060008054906101000a900473ffffffffffffffffffffffffffffffffffffffff1690508073ffffffffffffffffffffffffffffffffffffffff166370a08231306040518263ffffffff1660e01b81526004016100fd91906102a3565b60206040518083038186803b15801561011557600080fd5b505afa158015610129573d6000803e3d6000fd5b505050506040513d601f19601f8201168201806040525081019061014d919061025c565b91505090565b600160009054906101000a900473ffffffffffffffffffffffffffffffffffffffff1673ffffffffffffffffffffffffffffffffffffffff166379cc679033836040518363ffffffff1660e01b81526004016101b09291906102be565b600060405180830381600087803b1580156101ca57600080fd5b505af11580156101de573d6000803e3d6000fd5b5050505050565b60008054906101000a900473ffffffffffffffffffffffffffffffffffffffff1681565b6000813590506102188161033e565b92915050565b60008151905061022d8161033e565b92915050565b60006020828403121561024557600080fd5b600061025384828501610209565b91505092915050565b60006020828403121561026e57600080fd5b600061027c8482850161021e565b91505092915050565b61028e81610302565b82525050565b61029d81610334565b82525050565b60006020820190506102b86000830184610285565b92915050565b60006040820190506102d36000830185610285565b6102e06020830184610294565b9392505050565b60006020820190506102fc6000830184610294565b92915050565b600061030d82610314565b9050919050565b600073ffffffffffffffffffffffffffffffffffffffff82169050919050565b6000819050919050565b61034781610334565b811461035257600080fd5b5056fea264697066735822122032348cc8d0542b9643c17a50928ac1f19fc99fb21f96131522b206920cd9608264736f6c63430008040033",
  "linkReferences": {},
  "deployedLinkReferences": {}
}