{
  "_format": "hh-sol-artifact-1",
  "contractName": "ERC20Handler",
  "sourceName": "contracts/handler/ERC20.sol",
  "abi": [
    {
      "inputs": [
        {
          "internalType": "bytes32",
          "name": "resourceID_",
          "type": "bytes32"
        },
        {
          "internalType": "address",
          "name": "bridgeAddress_",
          "type": "address"
        },
        {
          "internalType": "address",
          "name": "tokenAddress_",
          "type": "address"
        },
        {
          "internalType": "address",
          "name": "targetHandler_",
          "type": "address"
        },
        {
          "internalType": "bool",
          "name": "burnable_",
          "type": "bool"
        }
      ],
      "stateMutability": "nonpayable",
      "type": "constructor"
    },
    {
      "anonymous": false,
      "inputs": [
        {
          "indexed": true,
          "internalType": "address",
          "name": "previousOwner",
          "type": "address"
        },
        {
          "indexed": true,
          "internalType": "address",
          "name": "newOwner",
          "type": "address"
        }
      ],
      "name": "OwnershipTransferred",
      "type": "event"
    },
    {
      "inputs": [
        {
          "internalType": "address",
          "name": "bridgeAddress_",
          "type": "address"
        },
        {
          "internalType": "address",
          "name": "tokenAddress_",
          "type": "address"
        },
        {
          "internalType": "address",
          "name": "targetHandler_",
          "type": "address"
        },
        {
          "internalType": "bool",
          "name": "burnable_",
          "type": "bool"
        }
      ],
      "name": "adminSetConfig",
      "outputs": [],
      "stateMutability": "nonpayable",
      "type": "function"
    },
    {
      "inputs": [],
      "name": "bridgeAddress",
      "outputs": [
        {
          "internalType": "address",
          "name": "",
          "type": "address"
        }
      ],
      "stateMutability": "view",
      "type": "function"
    },
    {
      "inputs": [],
      "name": "burnable",
      "outputs": [
        {
          "internalType": "bool",
          "name": "",
          "type": "bool"
        }
      ],
      "stateMutability": "view",
      "type": "function"
    },
    {
      "inputs": [
        {
          "internalType": "bytes32",
          "name": "_resourceID",
          "type": "bytes32"
        },
        {
          "internalType": "uint32",
          "name": "targetChainId",
          "type": "uint32"
        },
        {
          "internalType": "uint256",
          "name": "amount",
          "type": "uint256"
        }
      ],
      "name": "deposit",
      "outputs": [
        {
          "internalType": "bytes32",
          "name": "",
          "type": "bytes32"
        }
      ],
      "stateMutability": "nonpayable",
      "type": "function"
    },
    {
      "inputs": [
        {
          "internalType": "bytes32",
          "name": "_resourceID",
          "type": "bytes32"
        },
        {
          "internalType": "bytes",
          "name": "data",
          "type": "bytes"
        }
      ],
      "name": "execute",
      "outputs": [],
      "stateMutability": "nonpayable",
      "type": "function"
    },
    {
      "inputs": [],
      "name": "owner",
      "outputs": [
        {
          "internalType": "address",
          "name": "",
          "type": "address"
        }
      ],
      "stateMutability": "view",
      "type": "function"
    },
    {
      "inputs": [],
      "name": "renounceOwnership",
      "outputs": [],
      "stateMutability": "nonpayable",
      "type": "function"
    },
    {
      "inputs": [],
      "name": "resourceID",
      "outputs": [
        {
          "internalType": "bytes32",
          "name": "",
          "type": "bytes32"
        }
      ],
      "stateMutability": "view",
      "type": "function"
    },
    {
      "inputs": [],
      "name": "targetHandler",
      "outputs": [
        {
          "internalType": "address",
          "name": "",
          "type": "address"
        }
      ],
      "stateMutability": "view",
      "type": "function"
    },
    {
      "inputs": [],
      "name": "tokenAddress",
      "outputs": [
        {
          "internalType": "address",
          "name": "",
          "type": "address"
        }
      ],
      "stateMutability": "view",
      "type": "function"
    },
    {
      "inputs": [
        {
          "internalType": "address",
          "name": "newOwner",
          "type": "address"
        }
      ],
      "name": "transferOwnership",
      "outputs": [],
      "stateMutability": "nonpayable",
      "type": "function"
    }
  ],
  "bytecode": "0x60806040523480156200001157600080fd5b506040516200179c3803806200179c833981810160405281019062000037919062000261565b84848484846200005c620000506200015060201b60201c565b6200015860201b60201c565b8460018190555083600260006101000a81548173ffffffffffffffffffffffffffffffffffffffff021916908373ffffffffffffffffffffffffffffffffffffffff16021790555082600360006101000a81548173ffffffffffffffffffffffffffffffffffffffff021916908373ffffffffffffffffffffffffffffffffffffffff16021790555081600460006101000a81548173ffffffffffffffffffffffffffffffffffffffff021916908373ffffffffffffffffffffffffffffffffffffffff16021790555080600460146101000a81548160ff021916908315150217905550505050505050505050506200037b565b600033905090565b60008060009054906101000a900473ffffffffffffffffffffffffffffffffffffffff169050816000806101000a81548173ffffffffffffffffffffffffffffffffffffffff021916908373ffffffffffffffffffffffffffffffffffffffff1602179055508173ffffffffffffffffffffffffffffffffffffffff168173ffffffffffffffffffffffffffffffffffffffff167f8be0079c531659141344cd1fd0a4f28419497f9722a3daafe3b4186f6b6457e060405160405180910390a35050565b6000815190506200022d816200032d565b92915050565b600081519050620002448162000347565b92915050565b6000815190506200025b8162000361565b92915050565b600080600080600060a086880312156200027a57600080fd5b60006200028a888289016200024a565b95505060206200029d888289016200021c565b9450506040620002b0888289016200021c565b9350506060620002c3888289016200021c565b9250506080620002d68882890162000233565b9150509295509295909350565b6000620002f0826200030d565b9050919050565b60008115159050919050565b6000819050919050565b600073ffffffffffffffffffffffffffffffffffffffff82169050919050565b6200033881620002e3565b81146200034457600080fd5b50565b6200035281620002f7565b81146200035e57600080fd5b50565b6200036c8162000303565b81146200037857600080fd5b50565b611411806200038b6000396000f3fe608060405234801561001057600080fd5b50600436106100a95760003560e01c8063a3c573eb11610071578063a3c573eb14610130578063ad030b671461014e578063dedd8ed51461016a578063e9ae5c531461019a578063f2fde38b146101b6578063fab28c1c146101d2576100a9565b80631d80409e146100ae578063715018a6146100cc5780638da5cb5b146100d65780639d76ea58146100f4578063a07c7ce414610112575b600080fd5b6100b66101f0565b6040516100c39190610fdc565b60405180910390f35b6100d4610216565b005b6100de61029e565b6040516100eb9190610fdc565b60405180910390f35b6100fc6102c7565b6040516101099190610fdc565b60405180910390f35b61011a6102ed565b6040516101279190611057565b60405180910390f35b610138610300565b6040516101459190610fdc565b60405180910390f35b61016860048036038101906101639190610d4d565b610326565b005b610184600480360381019061017f9190610e31565b610485565b6040516101919190611072565b60405180910390f35b6101b460048036038101906101af9190610dd9565b6107f2565b005b6101d060048036038101906101cb9190610ce8565b610a2c565b005b6101da610b24565b6040516101e79190611072565b60405180910390f35b600460009054906101000a900473ffffffffffffffffffffffffffffffffffffffff1681565b61021e610b2a565b73ffffffffffffffffffffffffffffffffffffffff1661023c61029e565b73ffffffffffffffffffffffffffffffffffffffff1614610292576040517f08c379a000000000000000000000000000000000000000000000000000000000815260040161028990611139565b60405180910390fd5b61029c6000610b32565b565b60008060009054906101000a900473ffffffffffffffffffffffffffffffffffffffff16905090565b600360009054906101000a900473ffffffffffffffffffffffffffffffffffffffff1681565b600460149054906101000a900460ff1681565b600260009054906101000a900473ffffffffffffffffffffffffffffffffffffffff1681565b61032e610b2a565b73ffffffffffffffffffffffffffffffffffffffff1661034c61029e565b73ffffffffffffffffffffffffffffffffffffffff16146103a2576040517f08c379a000000000000000000000000000000000000000000000000000000000815260040161039990611139565b60405180910390fd5b83600260006101000a81548173ffffffffffffffffffffffffffffffffffffffff021916908373ffffffffffffffffffffffffffffffffffffffff16021790555082600360006101000a81548173ffffffffffffffffffffffffffffffffffffffff021916908373ffffffffffffffffffffffffffffffffffffffff16021790555081600460006101000a81548173ffffffffffffffffffffffffffffffffffffffff021916908373ffffffffffffffffffffffffffffffffffffffff16021790555080600460146101000a81548160ff02191690831515021790555050505050565b600083600154146104cb576040517f08c379a00000000000000000000000000000000000000000000000000000000081526004016104c2906110d9565b60405180910390fd5b6000600360009054906101000a900473ffffffffffffffffffffffffffffffffffffffff169050828173ffffffffffffffffffffffffffffffffffffffff166370a08231336040518263ffffffff1660e01b815260040161052c9190610fdc565b602060405180830381600087803b15801561054657600080fd5b505af115801561055a573d6000803e3d6000fd5b505050506040513d601f19601f8201168201806040525081019061057e9190610e80565b10156105bf576040517f08c379a00000000000000000000000000000000000000000000000000000000081526004016105b690611119565b60405180910390fd5b600460149054906101000a900460ff161561066e576000600360009054906101000a900473ffffffffffffffffffffffffffffffffffffffff1690508073ffffffffffffffffffffffffffffffffffffffff166379cc679033866040518363ffffffff1660e01b815260040161063692919061102e565b600060405180830381600087803b15801561065057600080fd5b505af1158015610664573d6000803e3d6000fd5b50505050506106de565b8073ffffffffffffffffffffffffffffffffffffffff166323b872dd3330866040518463ffffffff1660e01b81526004016106ab93929190610ff7565b600060405180830381600087803b1580156106c557600080fd5b505af11580156106d9573d6000803e3d6000fd5b505050505b600033846040516020016106f392919061102e565b60405160208183030381529060405290506000600260009054906101000a900473ffffffffffffffffffffffffffffffffffffffff16905060008173ffffffffffffffffffffffffffffffffffffffff1663b0aaa15360015489600460009054906101000a900473ffffffffffffffffffffffffffffffffffffffff16876040518563ffffffff1660e01b8152600401610790949392919061108d565b602060405180830381600087803b1580156107aa57600080fd5b505af11580156107be573d6000803e3d6000fd5b505050506040513d601f19601f820116820180604052508101906107e29190610db0565b9050809450505050509392505050565b8260015414610836576040517f08c379a000000000000000000000000000000000000000000000000000000000815260040161082d906110d9565b60405180910390fd5b600260009054906101000a900473ffffffffffffffffffffffffffffffffffffffff1673ffffffffffffffffffffffffffffffffffffffff163373ffffffffffffffffffffffffffffffffffffffff16146108c6576040517f08c379a00000000000000000000000000000000000000000000000000000000081526004016108bd90611159565b60405180910390fd5b60008083838101906108d89190610d11565b8093508192505050600460149054906101000a900460ff161561098f576000600360009054906101000a900473ffffffffffffffffffffffffffffffffffffffff1690508073ffffffffffffffffffffffffffffffffffffffff166340c10f1983856040518363ffffffff1660e01b815260040161095792919061102e565b600060405180830381600087803b15801561097157600080fd5b505af1158015610985573d6000803e3d6000fd5b5050505050610a25565b6000600360009054906101000a900473ffffffffffffffffffffffffffffffffffffffff1690508073ffffffffffffffffffffffffffffffffffffffff1663a9059cbb83856040518363ffffffff1660e01b81526004016109f192919061102e565b600060405180830381600087803b158015610a0b57600080fd5b505af1158015610a1f573d6000803e3d6000fd5b50505050505b5050505050565b610a34610b2a565b73ffffffffffffffffffffffffffffffffffffffff16610a5261029e565b73ffffffffffffffffffffffffffffffffffffffff1614610aa8576040517f08c379a0000000000000000000000000000000000000000000000000000000008152600401610a9f90611139565b60405180910390fd5b600073ffffffffffffffffffffffffffffffffffffffff168173ffffffffffffffffffffffffffffffffffffffff161415610b18576040517f08c379a0000000000000000000000000000000000000000000000000000000008152600401610b0f906110f9565b60405180910390fd5b610b2181610b32565b50565b60015481565b600033905090565b60008060009054906101000a900473ffffffffffffffffffffffffffffffffffffffff169050816000806101000a81548173ffffffffffffffffffffffffffffffffffffffff021916908373ffffffffffffffffffffffffffffffffffffffff1602179055508173ffffffffffffffffffffffffffffffffffffffff168173ffffffffffffffffffffffffffffffffffffffff167f8be0079c531659141344cd1fd0a4f28419497f9722a3daafe3b4186f6b6457e060405160405180910390a35050565b600081359050610c0581611351565b92915050565b600081359050610c1a81611368565b92915050565b600081359050610c2f8161137f565b92915050565b600081359050610c4481611396565b92915050565b600081519050610c5981611396565b92915050565b60008083601f840112610c7157600080fd5b8235905067ffffffffffffffff811115610c8a57600080fd5b602083019150836001820283011115610ca257600080fd5b9250929050565b600081359050610cb8816113ad565b92915050565b600081519050610ccd816113ad565b92915050565b600081359050610ce2816113c4565b92915050565b600060208284031215610cfa57600080fd5b6000610d0884828501610bf6565b91505092915050565b60008060408385031215610d2457600080fd5b6000610d3285828601610c0b565b9250506020610d4385828601610ca9565b9150509250929050565b60008060008060808587031215610d6357600080fd5b6000610d7187828801610bf6565b9450506020610d8287828801610bf6565b9350506040610d9387828801610bf6565b9250506060610da487828801610c20565b91505092959194509250565b600060208284031215610dc257600080fd5b6000610dd084828501610c4a565b91505092915050565b600080600060408486031215610dee57600080fd5b6000610dfc86828701610c35565b935050602084013567ffffffffffffffff811115610e1957600080fd5b610e2586828701610c5f565b92509250509250925092565b600080600060608486031215610e4657600080fd5b6000610e5486828701610c35565b9350506020610e6586828701610cd3565b9250506040610e7686828701610ca9565b9150509250925092565b600060208284031215610e9257600080fd5b6000610ea084828501610cbe565b91505092915050565b610eb2816111a6565b82525050565b610ec1816111ca565b82525050565b610ed0816111d6565b82525050565b6000610ee182611179565b610eeb8185611184565b9350610efb81856020860161121a565b610f048161124d565b840191505092915050565b6000610f1c601083611195565b9150610f278261125e565b602082019050919050565b6000610f3f602683611195565b9150610f4a82611287565b604082019050919050565b6000610f62601283611195565b9150610f6d826112d6565b602082019050919050565b6000610f85602083611195565b9150610f90826112ff565b602082019050919050565b6000610fa8601583611195565b9150610fb382611328565b602082019050919050565b610fc781611200565b82525050565b610fd68161120a565b82525050565b6000602082019050610ff16000830184610ea9565b92915050565b600060608201905061100c6000830186610ea9565b6110196020830185610ea9565b6110266040830184610fbe565b949350505050565b60006040820190506110436000830185610ea9565b6110506020830184610fbe565b9392505050565b600060208201905061106c6000830184610eb8565b92915050565b60006020820190506110876000830184610ec7565b92915050565b60006080820190506110a26000830187610ec7565b6110af6020830186610fcd565b6110bc6040830185610ea9565b81810360608301526110ce8184610ed6565b905095945050505050565b600060208201905081810360008301526110f281610f0f565b9050919050565b6000602082019050818103600083015261111281610f32565b9050919050565b6000602082019050818103600083015261113281610f55565b9050919050565b6000602082019050818103600083015261115281610f78565b9050919050565b6000602082019050818103600083015261117281610f9b565b9050919050565b600081519050919050565b600082825260208201905092915050565b600082825260208201905092915050565b60006111b1826111e0565b9050919050565b60006111c3826111e0565b9050919050565b60008115159050919050565b6000819050919050565b600073ffffffffffffffffffffffffffffffffffffffff82169050919050565b6000819050919050565b600063ffffffff82169050919050565b60005b8381101561123857808201518184015260208101905061121d565b83811115611247576000848401525b50505050565b6000601f19601f8301169050919050565b7f7265736f757263654944206572726f7200000000000000000000000000000000600082015250565b7f4f776e61626c653a206e6577206f776e657220697320746865207a65726f206160008201527f6464726573730000000000000000000000000000000000000000000000000000602082015250565b7f496e73756666696369656e742066756e64730000000000000000000000000000600082015250565b7f4f776e61626c653a2063616c6c6572206973206e6f7420746865206f776e6572600082015250565b7f6f6e6c792063616c6c6564206279206272696467650000000000000000000000600082015250565b61135a816111a6565b811461136557600080fd5b50565b611371816111b8565b811461137c57600080fd5b50565b611388816111ca565b811461139357600080fd5b50565b61139f816111d6565b81146113aa57600080fd5b50565b6113b681611200565b81146113c157600080fd5b50565b6113cd8161120a565b81146113d857600080fd5b5056fea264697066735822122033a21f43d5efb98203f130e419ae609cf75766c3176f2049e09eb293e6daeb4264736f6c63430008040033",
  "linkReferences": {},
  "deployedLinkReferences": {}
}