{
  "_format": "hh-sol-artifact-1",
  "contractName": "ERC1155Handler",
  "sourceName": "contracts/handler/ERC1155-A.sol",
  "abi": [
    {
      "inputs": [
        {
          "internalType": "bytes32",
          "name": "_resourceID",
          "type": "bytes32"
        },
        {
          "internalType": "address",
          "name": "_bridgeAddress",
          "type": "address"
        },
        {
          "internalType": "address",
          "name": "_tokenAddress",
          "type": "address"
        },
        {
          "internalType": "address",
          "name": "_targetHandler",
          "type": "address"
        },
        {
          "internalType": "bool",
          "name": "_burnable",
          "type": "bool"
        }
      ],
      "stateMutability": "nonpayable",
      "type": "constructor"
    },
    {
      "anonymous": false,
      "inputs": [
        {
          "indexed": true,
          "internalType": "address",
          "name": "previousOwner",
          "type": "address"
        },
        {
          "indexed": true,
          "internalType": "address",
          "name": "newOwner",
          "type": "address"
        }
      ],
      "name": "OwnershipTransferred",
      "type": "event"
    },
    {
      "anonymous": false,
      "inputs": [
        {
          "indexed": false,
          "internalType": "string",
          "name": "msg",
          "type": "string"
        },
        {
          "indexed": false,
          "internalType": "bytes32",
          "name": "_resourceID",
          "type": "bytes32"
        },
        {
          "indexed": false,
          "internalType": "uint32",
          "name": "targetChainId",
          "type": "uint32"
        },
        {
          "indexed": false,
          "internalType": "uint256[]",
          "name": "tokenIDs",
          "type": "uint256[]"
        },
        {
          "indexed": false,
          "internalType": "uint256[]",
          "name": "amounts",
          "type": "uint256[]"
        }
      ],
      "name": "ReceiveNative",
      "type": "event"
    },
    {
      "inputs": [],
      "name": "bridgeAddress",
      "outputs": [
        {
          "internalType": "address",
          "name": "",
          "type": "address"
        }
      ],
      "stateMutability": "view",
      "type": "function"
    },
    {
      "inputs": [],
      "name": "burnable",
      "outputs": [
        {
          "internalType": "bool",
          "name": "",
          "type": "bool"
        }
      ],
      "stateMutability": "view",
      "type": "function"
    },
    {
      "inputs": [
        {
          "internalType": "bytes32",
          "name": "_resourceID",
          "type": "bytes32"
        },
        {
          "internalType": "uint32",
          "name": "targetChainId",
          "type": "uint32"
        },
        {
          "internalType": "uint256[]",
          "name": "tokenIDs",
          "type": "uint256[]"
        },
        {
          "internalType": "uint256[]",
          "name": "amounts",
          "type": "uint256[]"
        }
      ],
      "name": "deposit",
      "outputs": [],
      "stateMutability": "nonpayable",
      "type": "function"
    },
    {
      "inputs": [
        {
          "internalType": "address",
          "name": "",
          "type": "address"
        },
        {
          "internalType": "address",
          "name": "",
          "type": "address"
        },
        {
          "internalType": "uint256[]",
          "name": "",
          "type": "uint256[]"
        },
        {
          "internalType": "uint256[]",
          "name": "",
          "type": "uint256[]"
        },
        {
          "internalType": "bytes",
          "name": "",
          "type": "bytes"
        }
      ],
      "name": "onERC1155BatchReceived",
      "outputs": [
        {
          "internalType": "bytes4",
          "name": "",
          "type": "bytes4"
        }
      ],
      "stateMutability": "nonpayable",
      "type": "function"
    },
    {
      "inputs": [
        {
          "internalType": "address",
          "name": "",
          "type": "address"
        },
        {
          "internalType": "address",
          "name": "",
          "type": "address"
        },
        {
          "internalType": "uint256",
          "name": "",
          "type": "uint256"
        },
        {
          "internalType": "uint256",
          "name": "",
          "type": "uint256"
        },
        {
          "internalType": "bytes",
          "name": "",
          "type": "bytes"
        }
      ],
      "name": "onERC1155Received",
      "outputs": [
        {
          "internalType": "bytes4",
          "name": "",
          "type": "bytes4"
        }
      ],
      "stateMutability": "nonpayable",
      "type": "function"
    },
    {
      "inputs": [],
      "name": "owner",
      "outputs": [
        {
          "internalType": "address",
          "name": "",
          "type": "address"
        }
      ],
      "stateMutability": "view",
      "type": "function"
    },
    {
      "inputs": [],
      "name": "renounceOwnership",
      "outputs": [],
      "stateMutability": "nonpayable",
      "type": "function"
    },
    {
      "inputs": [],
      "name": "resourceID",
      "outputs": [
        {
          "internalType": "bytes32",
          "name": "",
          "type": "bytes32"
        }
      ],
      "stateMutability": "view",
      "type": "function"
    },
    {
      "inputs": [
        {
          "internalType": "bytes4",
          "name": "interfaceId",
          "type": "bytes4"
        }
      ],
      "name": "supportsInterface",
      "outputs": [
        {
          "internalType": "bool",
          "name": "",
          "type": "bool"
        }
      ],
      "stateMutability": "view",
      "type": "function"
    },
    {
      "inputs": [],
      "name": "targetHandler",
      "outputs": [
        {
          "internalType": "address",
          "name": "",
          "type": "address"
        }
      ],
      "stateMutability": "view",
      "type": "function"
    },
    {
      "inputs": [],
      "name": "tokenAddress",
      "outputs": [
        {
          "internalType": "address",
          "name": "",
          "type": "address"
        }
      ],
      "stateMutability": "view",
      "type": "function"
    },
    {
      "inputs": [
        {
          "internalType": "address",
          "name": "newOwner",
          "type": "address"
        }
      ],
      "name": "transferOwnership",
      "outputs": [],
      "stateMutability": "nonpayable",
      "type": "function"
    }
  ],
  "bytecode": "0x60806040523480156200001157600080fd5b506040516200132138038062001321833981810160405281019062000037919062000257565b620000576200004b6200014660201b60201c565b6200014e60201b60201c565b8460018190555083600260006101000a81548173ffffffffffffffffffffffffffffffffffffffff021916908373ffffffffffffffffffffffffffffffffffffffff16021790555082600360006101000a81548173ffffffffffffffffffffffffffffffffffffffff021916908373ffffffffffffffffffffffffffffffffffffffff16021790555081600460006101000a81548173ffffffffffffffffffffffffffffffffffffffff021916908373ffffffffffffffffffffffffffffffffffffffff16021790555080600460146101000a81548160ff021916908315150217905550505050505062000371565b600033905090565b60008060009054906101000a900473ffffffffffffffffffffffffffffffffffffffff169050816000806101000a81548173ffffffffffffffffffffffffffffffffffffffff021916908373ffffffffffffffffffffffffffffffffffffffff1602179055508173ffffffffffffffffffffffffffffffffffffffff168173ffffffffffffffffffffffffffffffffffffffff167f8be0079c531659141344cd1fd0a4f28419497f9722a3daafe3b4186f6b6457e060405160405180910390a35050565b600081519050620002238162000323565b92915050565b6000815190506200023a816200033d565b92915050565b600081519050620002518162000357565b92915050565b600080600080600060a086880312156200027057600080fd5b6000620002808882890162000240565b9550506020620002938882890162000212565b9450506040620002a68882890162000212565b9350506060620002b98882890162000212565b9250506080620002cc8882890162000229565b9150509295509295909350565b6000620002e68262000303565b9050919050565b60008115159050919050565b6000819050919050565b600073ffffffffffffffffffffffffffffffffffffffff82169050919050565b6200032e81620002d9565b81146200033a57600080fd5b50565b6200034881620002ed565b81146200035457600080fd5b50565b6200036281620002f9565b81146200036e57600080fd5b50565b610fa080620003816000396000f3fe608060405234801561001057600080fd5b50600436106100b45760003560e01c8063a07c7ce411610071578063a07c7ce414610169578063a3c573eb14610187578063bc197c81146101a5578063f23a6e61146101d5578063f2fde38b14610205578063fab28c1c14610221576100b4565b806301ffc9a7146100b95780631d80409e146100e957806361c13a3f14610107578063715018a6146101235780638da5cb5b1461012d5780639d76ea581461014b575b600080fd5b6100d360048036038101906100ce9190610a59565b61023f565b6040516100e09190610ba9565b60405180910390f35b6100f16102b9565b6040516100fe9190610b8e565b60405180910390f35b610121600480360381019061011c91906109be565b6102df565b005b61012b610328565b005b6101356103b0565b6040516101429190610b8e565b60405180910390f35b6101536103d9565b6040516101609190610b8e565b60405180910390f35b6101716103ff565b60405161017e9190610ba9565b60405180910390f35b61018f610412565b60405161019c9190610b8e565b60405180910390f35b6101bf60048036038101906101ba9190610870565b610438565b6040516101cc9190610bdf565b60405180910390f35b6101ef60048036038101906101ea919061092f565b61044d565b6040516101fc9190610bdf565b60405180910390f35b61021f600480360381019061021a9190610847565b610462565b005b61022961055a565b6040516102369190610bc4565b60405180910390f35b60007f4e2312e0000000000000000000000000000000000000000000000000000000007bffffffffffffffffffffffffffffffffffffffffffffffffffffffff1916827bffffffffffffffffffffffffffffffffffffffffffffffffffffffff191614806102b257506102b182610560565b5b9050919050565b600460009054906101000a900473ffffffffffffffffffffffffffffffffffffffff1681565b7f2eeecfcaaf2cbd11777fa5066999864ddddfa18e44e2a2d5e0e30ddf3a286a2d86868686868660405161031896959493929190610c1a565b60405180910390a1505050505050565b6103306105ca565b73ffffffffffffffffffffffffffffffffffffffff1661034e6103b0565b73ffffffffffffffffffffffffffffffffffffffff16146103a4576040517f08c379a000000000000000000000000000000000000000000000000000000000815260040161039b90610c84565b60405180910390fd5b6103ae60006105d2565b565b60008060009054906101000a900473ffffffffffffffffffffffffffffffffffffffff16905090565b600360009054906101000a900473ffffffffffffffffffffffffffffffffffffffff1681565b600460149054906101000a900460ff1681565b600260009054906101000a900473ffffffffffffffffffffffffffffffffffffffff1681565b600063bc197c8160e01b905095945050505050565b600063f23a6e6160e01b905095945050505050565b61046a6105ca565b73ffffffffffffffffffffffffffffffffffffffff166104886103b0565b73ffffffffffffffffffffffffffffffffffffffff16146104de576040517f08c379a00000000000000000000000000000000000000000000000000000000081526004016104d590610c84565b60405180910390fd5b600073ffffffffffffffffffffffffffffffffffffffff168173ffffffffffffffffffffffffffffffffffffffff16141561054e576040517f08c379a000000000000000000000000000000000000000000000000000000000815260040161054590610bfa565b60405180910390fd5b610557816105d2565b50565b60015481565b60007f01ffc9a7000000000000000000000000000000000000000000000000000000007bffffffffffffffffffffffffffffffffffffffffffffffffffffffff1916827bffffffffffffffffffffffffffffffffffffffffffffffffffffffff1916149050919050565b600033905090565b60008060009054906101000a900473ffffffffffffffffffffffffffffffffffffffff169050816000806101000a81548173ffffffffffffffffffffffffffffffffffffffff021916908373ffffffffffffffffffffffffffffffffffffffff1602179055508173ffffffffffffffffffffffffffffffffffffffff168173ffffffffffffffffffffffffffffffffffffffff167f8be0079c531659141344cd1fd0a4f28419497f9722a3daafe3b4186f6b6457e060405160405180910390a35050565b60006106a96106a484610cc9565b610ca4565b905080838252602082019050828560208602820111156106c857600080fd5b60005b858110156106f857816106de888261081d565b8452602084019350602083019250506001810190506106cb565b5050509392505050565b600061071561071084610cf5565b610ca4565b90508281526020810184848401111561072d57600080fd5b610738848285610dd6565b509392505050565b60008135905061074f81610ef7565b92915050565b60008083601f84011261076757600080fd5b8235905067ffffffffffffffff81111561078057600080fd5b60208301915083602082028301111561079857600080fd5b9250929050565b600082601f8301126107b057600080fd5b81356107c0848260208601610696565b91505092915050565b6000813590506107d881610f0e565b92915050565b6000813590506107ed81610f25565b92915050565b600082601f83011261080457600080fd5b8135610814848260208601610702565b91505092915050565b60008135905061082c81610f3c565b92915050565b60008135905061084181610f53565b92915050565b60006020828403121561085957600080fd5b600061086784828501610740565b91505092915050565b600080600080600060a0868803121561088857600080fd5b600061089688828901610740565b95505060206108a788828901610740565b945050604086013567ffffffffffffffff8111156108c457600080fd5b6108d08882890161079f565b935050606086013567ffffffffffffffff8111156108ed57600080fd5b6108f98882890161079f565b925050608086013567ffffffffffffffff81111561091657600080fd5b610922888289016107f3565b9150509295509295909350565b600080600080600060a0868803121561094757600080fd5b600061095588828901610740565b955050602061096688828901610740565b94505060406109778882890161081d565b93505060606109888882890161081d565b925050608086013567ffffffffffffffff8111156109a557600080fd5b6109b1888289016107f3565b9150509295509295909350565b600080600080600080608087890312156109d757600080fd5b60006109e589828a016107c9565b96505060206109f689828a01610832565b955050604087013567ffffffffffffffff811115610a1357600080fd5b610a1f89828a01610755565b9450945050606087013567ffffffffffffffff811115610a3e57600080fd5b610a4a89828a01610755565b92509250509295509295509295565b600060208284031215610a6b57600080fd5b6000610a79848285016107de565b91505092915050565b610a8b81610d48565b82525050565b6000610a9d8385610d26565b93507f07ffffffffffffffffffffffffffffffffffffffffffffffffffffffffffffff831115610acc57600080fd5b602083029250610add838584610dd6565b82840190509392505050565b610af281610d5a565b82525050565b610b0181610d66565b82525050565b610b1081610d70565b82525050565b6000610b23602683610d37565b9150610b2e82610e56565b604082019050919050565b6000610b46600883610d37565b9150610b5182610ea5565b602082019050919050565b6000610b69602083610d37565b9150610b7482610ece565b602082019050919050565b610b8881610dc6565b82525050565b6000602082019050610ba36000830184610a82565b92915050565b6000602082019050610bbe6000830184610ae9565b92915050565b6000602082019050610bd96000830184610af8565b92915050565b6000602082019050610bf46000830184610b07565b92915050565b60006020820190508181036000830152610c1381610b16565b9050919050565b600060a0820190508181036000830152610c3381610b39565b9050610c426020830189610af8565b610c4f6040830188610b7f565b8181036060830152610c62818688610a91565b90508181036080830152610c77818486610a91565b9050979650505050505050565b60006020820190508181036000830152610c9d81610b5c565b9050919050565b6000610cae610cbf565b9050610cba8282610de5565b919050565b6000604051905090565b600067ffffffffffffffff821115610ce457610ce3610e16565b5b602082029050602081019050919050565b600067ffffffffffffffff821115610d1057610d0f610e16565b5b610d1982610e45565b9050602081019050919050565b600082825260208201905092915050565b600082825260208201905092915050565b6000610d5382610d9c565b9050919050565b60008115159050919050565b6000819050919050565b60007fffffffff0000000000000000000000000000000000000000000000000000000082169050919050565b600073ffffffffffffffffffffffffffffffffffffffff82169050919050565b6000819050919050565b600063ffffffff82169050919050565b82818337600083830152505050565b610dee82610e45565b810181811067ffffffffffffffff82111715610e0d57610e0c610e16565b5b80604052505050565b7f4e487b7100000000000000000000000000000000000000000000000000000000600052604160045260246000fd5b6000601f19601f8301169050919050565b7f4f776e61626c653a206e6577206f776e657220697320746865207a65726f206160008201527f6464726573730000000000000000000000000000000000000000000000000000602082015250565b7f746f6b656e494473000000000000000000000000000000000000000000000000600082015250565b7f4f776e61626c653a2063616c6c6572206973206e6f7420746865206f776e6572600082015250565b610f0081610d48565b8114610f0b57600080fd5b50565b610f1781610d66565b8114610f2257600080fd5b50565b610f2e81610d70565b8114610f3957600080fd5b50565b610f4581610dbc565b8114610f5057600080fd5b50565b610f5c81610dc6565b8114610f6757600080fd5b5056fea2646970667358221220735e06484de2c6d6ea26f455e935b9c119728e61b978e39ea04cdcdc29c1841064736f6c63430008040033",
  "linkReferences": {},
  "deployedLinkReferences": {}
}