{
  "_format": "hh-sol-artifact-1",
  "contractName": "A",
  "sourceName": "contracts/demo/B.sol",
  "abi": [
    {
      "inputs": [],
      "name": "exec",
      "outputs": [
        {
          "internalType": "address",
          "name": "",
          "type": "address"
        }
      ],
      "stateMutability": "view",
      "type": "function"
    }
  ],
  "bytecode": "0x608060405234801561001057600080fd5b5060db8061001f6000396000f3fe6080604052348015600f57600080fd5b506004361060285760003560e01c8063c1c0e9c414602d575b600080fd5b60336047565b604051603e9190605c565b60405180910390f35b600033905090565b6056816075565b82525050565b6000602082019050606f6000830184604f565b92915050565b6000607e826085565b9050919050565b600073ffffffffffffffffffffffffffffffffffffffff8216905091905056fea26469706673582212207b87594e7f9935525cb82538d3446d7fa2139df5e87692c1e6fbec9cd1b120c864736f6c63430008040033",
  "linkReferences": {},
  "deployedLinkReferences": {}
}