{
  "_format": "hh-sol-artifact-1",
  "contractName": "NativePay",
  "sourceName": "contracts/demo/NativePayable.sol",
  "abi": [
    {
      "inputs": [],
      "stateMutability": "nonpayable",
      "type": "constructor"
    },
    {
      "anonymous": false,
      "inputs": [
        {
          "indexed": false,
          "internalType": "address",
          "name": "sender",
          "type": "address"
        }
      ],
      "name": "Received",
      "type": "event"
    },
    {
      "inputs": [],
      "name": "NativeBalanceOfSender",
      "outputs": [
        {
          "internalType": "uint256",
          "name": "",
          "type": "uint256"
        }
      ],
      "stateMutability": "view",
      "type": "function"
    },
    {
      "inputs": [],
      "name": "NativeBalanceOfThisHandler",
      "outputs": [
        {
          "internalType": "uint256",
          "name": "",
          "type": "uint256"
        }
      ],
      "stateMutability": "view",
      "type": "function"
    },
    {
      "inputs": [
        {
          "internalType": "uint256",
          "name": "amount",
          "type": "uint256"
        }
      ],
      "name": "burn",
      "outputs": [],
      "stateMutability": "nonpayable",
      "type": "function"
    },
    {
      "inputs": [],
      "name": "deposit",
      "outputs": [],
      "stateMutability": "payable",
      "type": "function"
    },
    {
      "stateMutability": "payable",
      "type": "receive"
    }
  ],
  "bytecode": "0x608060405234801561001057600080fd5b506105a5806100206000396000f3fe6080604052600436106100435760003560e01c806342966c68146100865780639109abcd146100af57806398c59c8e146100da578063d0e30db01461010557610081565b36610081577f7c6a000d6581009ece38db2bf0a802db87c25d55bdf668f06a962b9c7188477333604051610077919061037a565b60405180910390a1005b600080fd5b34801561009257600080fd5b506100ad60048036038101906100a89190610292565b61010f565b005b3480156100bb57600080fd5b506100c461011d565b6040516100d191906103f5565b60405180910390f35b3480156100e657600080fd5b506100ef610125565b6040516100fc91906103f5565b60405180910390f35b61010d610144565b005b61011a600082610189565b50565b600047905090565b60003373ffffffffffffffffffffffffffffffffffffffff1631905090565b60003411610187576040517f08c379a000000000000000000000000000000000000000000000000000000000815260040161017e90610395565b60405180910390fd5b565b804710156101cc576040517f08c379a00000000000000000000000000000000000000000000000000000000081526004016101c3906103d5565b60405180910390fd5b60008273ffffffffffffffffffffffffffffffffffffffff16826040516101f290610365565b60006040518083038185875af1925050503d806000811461022f576040519150601f19603f3d011682016040523d82523d6000602084013e610234565b606091505b5050905080610278576040517f08c379a000000000000000000000000000000000000000000000000000000000815260040161026f906103b5565b60405180910390fd5b505050565b60008135905061028c81610558565b92915050565b6000602082840312156102a457600080fd5b60006102b28482850161027d565b91505092915050565b6102c48161042c565b82525050565b60006102d760458361041b565b91506102e282610468565b606082019050919050565b60006102fa603a8361041b565b9150610305826104dd565b604082019050919050565b600061031d601d8361041b565b91506103288261052c565b602082019050919050565b6000610340600083610410565b915061034b82610555565b600082019050919050565b61035f8161045e565b82525050565b600061037082610333565b9150819050919050565b600060208201905061038f60008301846102bb565b92915050565b600060208201905081810360008301526103ae816102ca565b9050919050565b600060208201905081810360008301526103ce816102ed565b9050919050565b600060208201905081810360008301526103ee81610310565b9050919050565b600060208201905061040a6000830184610356565b92915050565b600081905092915050565b600082825260208201905092915050565b60006104378261043e565b9050919050565b600073ffffffffffffffffffffffffffffffffffffffff82169050919050565b6000819050919050565b7f636f6e646974696f6e3a20546865207472616e7366657220616d6f756e74206d60008201527f7573742062652067726561746572207468616e203020286d73672e76616c756560208201527f203e203029000000000000000000000000000000000000000000000000000000604082015250565b7f416464726573733a20756e61626c6520746f2073656e642076616c75652c207260008201527f6563697069656e74206d61792068617665207265766572746564000000000000602082015250565b7f416464726573733a20696e73756666696369656e742062616c616e6365000000600082015250565b50565b6105618161045e565b811461056c57600080fd5b5056fea2646970667358221220bd82e8cb7f5093553503aefa0ceb98d9cc552c119e4b8e6d4540641d557e7df064736f6c63430008040033",
  "linkReferences": {},
  "deployedLinkReferences": {}
}