{
  "_format": "hh-sol-artifact-1",
  "contractName": "Manager",
  "sourceName": "contracts/Manager.sol",
  "abi": [
    {
      "inputs": [
        {
          "internalType": "uint32",
          "name": "_voteThreshold",
          "type": "uint32"
        },
        {
          "internalType": "uint256",
          "name": "_expiredBlockNum",
          "type": "uint256"
        }
      ],
      "stateMutability": "nonpayable",
      "type": "constructor"
    },
    {
      "anonymous": false,
      "inputs": [
        {
          "indexed": true,
          "internalType": "bytes32",
          "name": "role",
          "type": "bytes32"
        },
        {
          "indexed": true,
          "internalType": "bytes32",
          "name": "previousAdminRole",
          "type": "bytes32"
        },
        {
          "indexed": true,
          "internalType": "bytes32",
          "name": "newAdminRole",
          "type": "bytes32"
        }
      ],
      "name": "RoleAdminChanged",
      "type": "event"
    },
    {
      "anonymous": false,
      "inputs": [
        {
          "indexed": true,
          "internalType": "bytes32",
          "name": "role",
          "type": "bytes32"
        },
        {
          "indexed": true,
          "internalType": "address",
          "name": "account",
          "type": "address"
        },
        {
          "indexed": true,
          "internalType": "address",
          "name": "sender",
          "type": "address"
        }
      ],
      "name": "RoleGranted",
      "type": "event"
    },
    {
      "anonymous": false,
      "inputs": [
        {
          "indexed": true,
          "internalType": "bytes32",
          "name": "role",
          "type": "bytes32"
        },
        {
          "indexed": true,
          "internalType": "address",
          "name": "account",
          "type": "address"
        },
        {
          "indexed": true,
          "internalType": "address",
          "name": "sender",
          "type": "address"
        }
      ],
      "name": "RoleRevoked",
      "type": "event"
    },
    {
      "anonymous": false,
      "inputs": [
        {
          "indexed": false,
          "internalType": "bytes32",
          "name": "resourceID",
          "type": "bytes32"
        },
        {
          "indexed": false,
          "internalType": "enum IManager.VoteStatus",
          "name": "voteStatus",
          "type": "uint8"
        },
        {
          "indexed": false,
          "internalType": "uint32",
          "name": "sourceChainId",
          "type": "uint32"
        },
        {
          "indexed": false,
          "internalType": "uint256",
          "name": "sourceNonce",
          "type": "uint256"
        },
        {
          "indexed": false,
          "internalType": "uint32",
          "name": "targetChainId",
          "type": "uint32"
        },
        {
          "indexed": false,
          "internalType": "address",
          "name": "target",
          "type": "address"
        },
        {
          "indexed": true,
          "internalType": "bytes32",
          "name": "messageId",
          "type": "bytes32"
        },
        {
          "indexed": true,
          "internalType": "bytes32",
          "name": "dataHash",
          "type": "bytes32"
        },
        {
          "indexed": false,
          "internalType": "bytes[]",
          "name": "signatures",
          "type": "bytes[]"
        }
      ],
      "name": "SignatureCollected",
      "type": "event"
    },
    {
      "inputs": [],
      "name": "DEFAULT_ADMIN_ROLE",
      "outputs": [
        {
          "internalType": "bytes32",
          "name": "",
          "type": "bytes32"
        }
      ],
      "stateMutability": "view",
      "type": "function"
    },
    {
      "inputs": [],
      "name": "ExpiredBlockNum",
      "outputs": [
        {
          "internalType": "uint256",
          "name": "",
          "type": "uint256"
        }
      ],
      "stateMutability": "view",
      "type": "function"
    },
    {
      "inputs": [],
      "name": "MANAGER_ROLE",
      "outputs": [
        {
          "internalType": "bytes32",
          "name": "",
          "type": "bytes32"
        }
      ],
      "stateMutability": "view",
      "type": "function"
    },
    {
      "inputs": [],
      "name": "VALIDATOR_ROLE",
      "outputs": [
        {
          "internalType": "bytes32",
          "name": "",
          "type": "bytes32"
        }
      ],
      "stateMutability": "view",
      "type": "function"
    },
    {
      "inputs": [
        {
          "internalType": "bytes32",
          "name": "resourceID",
          "type": "bytes32"
        },
        {
          "internalType": "bool",
          "name": "automaticCall",
          "type": "bool"
        }
      ],
      "name": "adminSetConfigResource",
      "outputs": [],
      "stateMutability": "nonpayable",
      "type": "function"
    },
    {
      "inputs": [
        {
          "internalType": "uint32",
          "name": "_voteThreshold",
          "type": "uint32"
        }
      ],
      "name": "adminSetVoteThreshold",
      "outputs": [],
      "stateMutability": "nonpayable",
      "type": "function"
    },
    {
      "inputs": [
        {
          "internalType": "bytes32",
          "name": "",
          "type": "bytes32"
        }
      ],
      "name": "chainConfigResource",
      "outputs": [
        {
          "internalType": "enum Manager.RemoteCallType",
          "name": "remoteCallType",
          "type": "uint8"
        }
      ],
      "stateMutability": "view",
      "type": "function"
    },
    {
      "inputs": [
        {
          "internalType": "bytes32",
          "name": "resourceID",
          "type": "bytes32"
        }
      ],
      "name": "getChainConfig",
      "outputs": [
        {
          "components": [
            {
              "internalType": "enum Manager.RemoteCallType",
              "name": "remoteCallType",
              "type": "uint8"
            }
          ],
          "internalType": "struct Manager.ResourceConfig",
          "name": "",
          "type": "tuple"
        }
      ],
      "stateMutability": "view",
      "type": "function"
    },
    {
      "inputs": [
        {
          "internalType": "bytes32",
          "name": "role",
          "type": "bytes32"
        }
      ],
      "name": "getRoleAdmin",
      "outputs": [
        {
          "internalType": "bytes32",
          "name": "",
          "type": "bytes32"
        }
      ],
      "stateMutability": "view",
      "type": "function"
    },
    {
      "inputs": [
        {
          "internalType": "bytes32",
          "name": "role",
          "type": "bytes32"
        },
        {
          "internalType": "uint256",
          "name": "index",
          "type": "uint256"
        }
      ],
      "name": "getRoleMember",
      "outputs": [
        {
          "internalType": "address",
          "name": "",
          "type": "address"
        }
      ],
      "stateMutability": "view",
      "type": "function"
    },
    {
      "inputs": [
        {
          "internalType": "bytes32",
          "name": "role",
          "type": "bytes32"
        }
      ],
      "name": "getRoleMemberCount",
      "outputs": [
        {
          "internalType": "uint256",
          "name": "",
          "type": "uint256"
        }
      ],
      "stateMutability": "view",
      "type": "function"
    },
    {
      "inputs": [
        {
          "internalType": "bytes32",
          "name": "role",
          "type": "bytes32"
        },
        {
          "internalType": "address",
          "name": "account",
          "type": "address"
        }
      ],
      "name": "grantRole",
      "outputs": [],
      "stateMutability": "nonpayable",
      "type": "function"
    },
    {
      "inputs": [
        {
          "internalType": "bytes32",
          "name": "role",
          "type": "bytes32"
        },
        {
          "internalType": "address",
          "name": "account",
          "type": "address"
        }
      ],
      "name": "hasRole",
      "outputs": [
        {
          "internalType": "bool",
          "name": "",
          "type": "bool"
        }
      ],
      "stateMutability": "view",
      "type": "function"
    },
    {
      "inputs": [
        {
          "internalType": "bytes32",
          "name": "messageId",
          "type": "bytes32"
        }
      ],
      "name": "hasVotedOnMessage",
      "outputs": [
        {
          "internalType": "bool",
          "name": "",
          "type": "bool"
        }
      ],
      "stateMutability": "view",
      "type": "function"
    },
    {
      "inputs": [
        {
          "internalType": "uint32",
          "name": "",
          "type": "uint32"
        }
      ],
      "name": "nonceMap",
      "outputs": [
        {
          "internalType": "uint256",
          "name": "",
          "type": "uint256"
        }
      ],
      "stateMutability": "view",
      "type": "function"
    },
    {
      "inputs": [
        {
          "internalType": "bytes32",
          "name": "role",
          "type": "bytes32"
        },
        {
          "internalType": "address",
          "name": "account",
          "type": "address"
        }
      ],
      "name": "renounceRole",
      "outputs": [],
      "stateMutability": "nonpayable",
      "type": "function"
    },
    {
      "inputs": [
        {
          "internalType": "bytes32",
          "name": "role",
          "type": "bytes32"
        },
        {
          "internalType": "address",
          "name": "account",
          "type": "address"
        }
      ],
      "name": "revokeRole",
      "outputs": [],
      "stateMutability": "nonpayable",
      "type": "function"
    },
    {
      "inputs": [
        {
          "internalType": "bytes4",
          "name": "interfaceId",
          "type": "bytes4"
        }
      ],
      "name": "supportsInterface",
      "outputs": [
        {
          "internalType": "bool",
          "name": "",
          "type": "bool"
        }
      ],
      "stateMutability": "view",
      "type": "function"
    },
    {
      "inputs": [
        {
          "internalType": "bytes32",
          "name": "_resourceID",
          "type": "bytes32"
        },
        {
          "internalType": "bytes32",
          "name": "messageId",
          "type": "bytes32"
        },
        {
          "internalType": "uint32",
          "name": "sourceChainId",
          "type": "uint32"
        },
        {
          "internalType": "uint256",
          "name": "sourceNonce",
          "type": "uint256"
        },
        {
          "internalType": "uint32",
          "name": "targetChainId",
          "type": "uint32"
        },
        {
          "internalType": "address",
          "name": "target",
          "type": "address"
        },
        {
          "internalType": "bytes32",
          "name": "dataHash",
          "type": "bytes32"
        },
        {
          "internalType": "bytes",
          "name": "signature",
          "type": "bytes"
        }
      ],
      "name": "vote",
      "outputs": [],
      "stateMutability": "nonpayable",
      "type": "function"
    },
    {
      "inputs": [
        {
          "internalType": "bytes32",
          "name": "",
          "type": "bytes32"
        }
      ],
      "name": "voteRecords",
      "outputs": [
        {
          "internalType": "bytes32",
          "name": "resourceID",
          "type": "bytes32"
        },
        {
          "internalType": "enum IManager.VoteStatus",
          "name": "voteStatus",
          "type": "uint8"
        },
        {
          "internalType": "uint256",
          "name": "startBlock",
          "type": "uint256"
        },
        {
          "internalType": "uint32",
          "name": "sourceChainId",
          "type": "uint32"
        },
        {
          "internalType": "uint256",
          "name": "sourceNonce",
          "type": "uint256"
        },
        {
          "internalType": "uint32",
          "name": "targetChainId",
          "type": "uint32"
        },
        {
          "internalType": "bytes32",
          "name": "dataHash",
          "type": "bytes32"
        }
      ],
      "stateMutability": "view",
      "type": "function"
    },
    {
      "inputs": [],
      "name": "voteThreshold",
      "outputs": [
        {
          "internalType": "uint32",
          "name": "",
          "type": "uint32"
        }
      ],
      "stateMutability": "view",
      "type": "function"
    }
  ],
  "bytecode": "0x60806040523480156200001157600080fd5b506040516200399638038062003996833981810160405281019062000037919062000340565b8060038190555081600260006101000a81548163ffffffff021916908363ffffffff160217905550620000746000801b336200007c60201b60201c565b5050620003cf565b6200008e82826200009260201b60201c565b5050565b620000a98282620000da60201b620010431760201c565b620000d58160016000858152602001908152602001600020620001cb60201b620011231790919060201c565b505050565b620000ec82826200020360201b60201c565b620001c757600160008084815260200190815260200160002060000160008373ffffffffffffffffffffffffffffffffffffffff1673ffffffffffffffffffffffffffffffffffffffff16815260200190815260200160002060006101000a81548160ff0219169083151502179055506200016c6200026d60201b60201c565b73ffffffffffffffffffffffffffffffffffffffff168173ffffffffffffffffffffffffffffffffffffffff16837f2f8788117e7eff1d82e926ec794901d17c78024a50270940304540a733656f0d60405160405180910390a45b5050565b6000620001fb836000018373ffffffffffffffffffffffffffffffffffffffff1660001b6200027560201b60201c565b905092915050565b600080600084815260200190815260200160002060000160008373ffffffffffffffffffffffffffffffffffffffff1673ffffffffffffffffffffffffffffffffffffffff16815260200190815260200160002060009054906101000a900460ff16905092915050565b600033905090565b6000620002898383620002ef60201b60201c565b620002e4578260000182908060018154018082558091505060019003906000526020600020016000909190919091505582600001805490508360010160008481526020019081526020016000208190555060019050620002e9565b600090505b92915050565b600080836001016000848152602001908152602001600020541415905092915050565b60008151905062000323816200039b565b92915050565b6000815190506200033a81620003b5565b92915050565b600080604083850312156200035457600080fd5b6000620003648582860162000329565b9250506020620003778582860162000312565b9150509250929050565b6000819050919050565b600063ffffffff82169050919050565b620003a68162000381565b8114620003b257600080fd5b50565b620003c0816200038b565b8114620003cc57600080fd5b50565b6135b780620003df6000396000f3fe608060405234801561001057600080fd5b50600436106101375760003560e01c80634fe437d5116100b857806396d5e2bd1161007c57806396d5e2bd1461038a578063a217fddf146103ba578063c49baebe146103d8578063ca15c873146103f6578063d547741f14610426578063ec87621c1461044257610137565b80634fe437d5146102a657806379916eb4146102c45780638eb77eeb146102fa5780639010d07c1461032a57806391d148541461035a57610137565b80632c55235e116100ff5780632c55235e146102065780632f2ff15d1461023657806335fdedbe1461025257806336568abe1461026e57806344d38d0b1461028a57610137565b806301ffc9a71461013c578063099eaed61461016c5780631f9dcb691461019c578063248a9ca3146101ba5780632ae08b59146101ea575b600080fd5b61015660048036038101906101519190612495565b610460565b60405161016391906129be565b60405180910390f35b610186600480360381019061018191906122ea565b6104da565b6040516101939190612b1e565b60405180910390f35b6101a4610505565b6040516101b19190612d16565b60405180910390f35b6101d460048036038101906101cf91906122ea565b61050b565b6040516101e191906129d9565b60405180910390f35b61020460048036038101906101ff919061234f565b61052a565b005b610220600480360381019061021b91906122ea565b610681565b60405161022d9190612cfb565b60405180910390f35b610250600480360381019061024b9190612313565b610735565b005b61026c6004803603810190610267919061238b565b610756565b005b61028860048036038101906102839190612313565b610d48565b005b6102a4600480360381019061029f91906124be565b610dcb565b005b6102ae610dfd565b6040516102bb9190612d31565b60405180910390f35b6102de60048036038101906102d991906122ea565b610e13565b6040516102f197969594939291906129f4565b60405180910390f35b610314600480360381019061030f91906122ea565b610e82565b60405161032191906129be565b60405180910390f35b610344600480360381019061033f9190612459565b610efe565b60405161035191906129a3565b60405180910390f35b610374600480360381019061036f9190612313565b610f2d565b60405161038191906129be565b60405180910390f35b6103a4600480360381019061039f91906124be565b610f97565b6040516103b19190612d16565b60405180910390f35b6103c2610faf565b6040516103cf91906129d9565b60405180910390f35b6103e0610fb6565b6040516103ed91906129d9565b60405180910390f35b610410600480360381019061040b91906122ea565b610fda565b60405161041d9190612d16565b60405180910390f35b610440600480360381019061043b9190612313565b610ffe565b005b61044a61101f565b60405161045791906129d9565b60405180910390f35b60007f5a05180f000000000000000000000000000000000000000000000000000000007bffffffffffffffffffffffffffffffffffffffffffffffffffffffff1916827bffffffffffffffffffffffffffffffffffffffffffffffffffffffff191614806104d357506104d282611153565b5b9050919050565b60056020528060005260406000206000915090508060000160009054906101000a900460ff16905081565b60035481565b6000806000838152602001908152602001600020600101549050919050565b6105547faf290d8680820aad922855f39b306097b20e28774d6c1ad35a20325630c3a02c33610f2d565b8061056857506105676000801b33610f2d565b5b6105a7576040517f08c379a000000000000000000000000000000000000000000000000000000000815260040161059e90612bfb565b60405180910390fd5b80156106175760016005600084815260200190815260200160002060000160006101000a81548160ff0219169083600181111561060d577f4e487b7100000000000000000000000000000000000000000000000000000000600052602160045260246000fd5b021790555061067d565b60006005600084815260200190815260200160002060000160006101000a81548160ff02191690836001811115610677577f4e487b7100000000000000000000000000000000000000000000000000000000600052602160045260246000fd5b02179055505b5050565b610689612134565b600560008381526020019081526020016000206040518060200160405290816000820160009054906101000a900460ff1660018111156106f2577f4e487b7100000000000000000000000000000000000000000000000000000000600052602160045260246000fd5b600181111561072a577f4e487b7100000000000000000000000000000000000000000000000000000000600052602160045260246000fd5b815250509050919050565b61073e8261050b565b610747816111cd565b61075183836111e1565b505050565b7fa95257aebefccffaada4758f028bce81ea992693be70592f620c4c9a0d9e715a610780816111cd565b88888b8989898960405160200161079c96959493929190612d4c565b60405160208183030381529060405280519060200120146107f2576040517f08c379a00000000000000000000000000000000000000000000000000000000081526004016107e990612cbb565b60405180910390fd5b600061085384848080601f016020809104026020016040519081016040528093929190818152602001838380828437600081840152601f19601f820116905080830192505050505050506108458c611215565b61124590919063ffffffff16565b90503373ffffffffffffffffffffffffffffffffffffffff168173ffffffffffffffffffffffffffffffffffffffff16146108c3576040517f08c379a00000000000000000000000000000000000000000000000000000000081526004016108ba90612c1b565b60405180910390fd5b6000600660008c8152602001908152602001600020905060006003811115610914577f4e487b7100000000000000000000000000000000000000000000000000000000600052602160045260246000fd5b8160010160009054906101000a900460ff16600381111561095e577f4e487b7100000000000000000000000000000000000000000000000000000000600052602160045260246000fd5b14806109eb57506001600381111561099f577f4e487b7100000000000000000000000000000000000000000000000000000000600052602160045260246000fd5b8160010160009054906101000a900460ff1660038111156109e9577f4e487b7100000000000000000000000000000000000000000000000000000000600052602160045260246000fd5b145b610a2a576040517f08c379a0000000000000000000000000000000000000000000000000000000008152600401610a2190612bdb565b60405180910390fd5b610a348b8361126c565b15610a74576040517f08c379a0000000000000000000000000000000000000000000000000000000008152600401610a6b90612c3b565b60405180910390fd5b60006003811115610aae577f4e487b7100000000000000000000000000000000000000000000000000000000600052602160045260246000fd5b8160010160009054906101000a900460ff166003811115610af8577f4e487b7100000000000000000000000000000000000000000000000000000000600052602160045260246000fd5b1415610baa578b8160000181905550898160030160006101000a81548163ffffffff021916908363ffffffff160217905550878160050160006101000a81548163ffffffff021916908363ffffffff16021790555060018160010160006101000a81548160ff02191690836003811115610b9b577f4e487b7100000000000000000000000000000000000000000000000000000000600052602160045260246000fd5b02179055504381600201819055505b600354816002015443610bbd9190612ee8565b10610bfd576040517f08c379a0000000000000000000000000000000000000000000000000000000008152600401610bf490612b9b565b60405180910390fd5b88816004018190555085816006018190555080600701858590918060018154018082558091505060019003906000526020600020016000909192909192909192909192509190610c4e92919061217f565b50600260009054906101000a900463ffffffff1663ffffffff16816007018054905010610d3a5760028160010160006101000a81548160ff02191690836003811115610cc3577f4e487b7100000000000000000000000000000000000000000000000000000000600052602160045260246000fd5b021790555088600460008c63ffffffff1663ffffffff1681526020019081526020016000208190555080600601548b7f5b7df0ed48b3444dd9580aff59ede15690a58a3ddaa3bba555b5fd20be3c7e0b8e60028e8e8e8e89600701604051610d319796959493929190612a63565b60405180910390a35b505050505050505050505050565b610d506113fc565b73ffffffffffffffffffffffffffffffffffffffff168173ffffffffffffffffffffffffffffffffffffffff1614610dbd576040517f08c379a0000000000000000000000000000000000000000000000000000000008152600401610db490612cdb565b60405180910390fd5b610dc78282611404565b5050565b6000801b610dd8816111cd565b81600260006101000a81548163ffffffff021916908363ffffffff1602179055505050565b600260009054906101000a900463ffffffff1681565b60066020528060005260406000206000915090508060000154908060010160009054906101000a900460ff16908060020154908060030160009054906101000a900463ffffffff16908060040154908060050160009054906101000a900463ffffffff16908060060154905087565b6000610eae7fa95257aebefccffaada4758f028bce81ea992693be70592f620c4c9a0d9e715a33610f2d565b610eed576040517f08c379a0000000000000000000000000000000000000000000000000000000008152600401610ee490612c9b565b60405180910390fd5b610ef7823361126c565b9050919050565b6000610f25826001600086815260200190815260200160002061143890919063ffffffff16565b905092915050565b600080600084815260200190815260200160002060000160008373ffffffffffffffffffffffffffffffffffffffff1673ffffffffffffffffffffffffffffffffffffffff16815260200190815260200160002060009054906101000a900460ff16905092915050565b60046020528060005260406000206000915090505481565b6000801b81565b7fa95257aebefccffaada4758f028bce81ea992693be70592f620c4c9a0d9e715a81565b6000610ff760016000848152602001908152602001600020611452565b9050919050565b6110078261050b565b611010816111cd565b61101a8383611404565b505050565b7faf290d8680820aad922855f39b306097b20e28774d6c1ad35a20325630c3a02c81565b61104d8282610f2d565b61111f57600160008084815260200190815260200160002060000160008373ffffffffffffffffffffffffffffffffffffffff1673ffffffffffffffffffffffffffffffffffffffff16815260200190815260200160002060006101000a81548160ff0219169083151502179055506110c46113fc565b73ffffffffffffffffffffffffffffffffffffffff168173ffffffffffffffffffffffffffffffffffffffff16837f2f8788117e7eff1d82e926ec794901d17c78024a50270940304540a733656f0d60405160405180910390a45b5050565b600061114b836000018373ffffffffffffffffffffffffffffffffffffffff1660001b611467565b905092915050565b60007f7965db0b000000000000000000000000000000000000000000000000000000007bffffffffffffffffffffffffffffffffffffffffffffffffffffffff1916827bffffffffffffffffffffffffffffffffffffffffffffffffffffffff191614806111c657506111c5826114d7565b5b9050919050565b6111de816111d96113fc565b611541565b50565b6111eb8282611043565b611210816001600085815260200190815260200160002061112390919063ffffffff16565b505050565b6000816040516020016112289190612943565b604051602081830303815290604052805190602001209050919050565b600080600061125485856115de565b9150915061126181611661565b819250505092915050565b600080600660008581526020019081526020016000209050600081600701805490501161129d5760009150506113f6565b60005b816007018054905081146113ef5760006113998360070183815481106112ef577f4e487b7100000000000000000000000000000000000000000000000000000000600052603260045260246000fd5b9060005260206000200180546113049061305e565b80601f01602080910402602001604051908101604052809291908181526020018280546113309061305e565b801561137d5780601f106113525761010080835404028352916020019161137d565b820191906000526020600020905b81548152906001019060200180831161136057829003601f168201915b505050505061138b88611215565b61124590919063ffffffff16565b90508473ffffffffffffffffffffffffffffffffffffffff168173ffffffffffffffffffffffffffffffffffffffff1614156113db57600193505050506113f6565b5080806113e790613090565b9150506112a0565b5060009150505b92915050565b600033905090565b61140e82826119b2565b6114338160016000858152602001908152602001600020611a9390919063ffffffff16565b505050565b60006114478360000183611ac3565b60001c905092915050565b600061146082600001611b14565b9050919050565b60006114738383611b25565b6114cc5782600001829080600181540180825580915050600190039060005260206000200160009091909190915055826000018054905083600101600084815260200190815260200160002081905550600190506114d1565b600090505b92915050565b60007f01ffc9a7000000000000000000000000000000000000000000000000000000007bffffffffffffffffffffffffffffffffffffffffffffffffffffffff1916827bffffffffffffffffffffffffffffffffffffffffffffffffffffffff1916149050919050565b61154b8282610f2d565b6115da576115708173ffffffffffffffffffffffffffffffffffffffff166014611b48565b61157e8360001c6020611b48565b60405160200161158f929190612969565b6040516020818303038152906040526040517f08c379a00000000000000000000000000000000000000000000000000000000081526004016115d19190612b39565b60405180910390fd5b5050565b6000806041835114156116205760008060006020860151925060408601519150606086015160001a905061161487828585611e42565b9450945050505061165a565b604083511415611651576000806020850151915060408501519050611646868383611f4f565b93509350505061165a565b60006002915091505b9250929050565b6000600481111561169b577f4e487b7100000000000000000000000000000000000000000000000000000000600052602160045260246000fd5b8160048111156116d4577f4e487b7100000000000000000000000000000000000000000000000000000000600052602160045260246000fd5b14156116df576119af565b60016004811115611719577f4e487b7100000000000000000000000000000000000000000000000000000000600052602160045260246000fd5b816004811115611752577f4e487b7100000000000000000000000000000000000000000000000000000000600052602160045260246000fd5b1415611793576040517f08c379a000000000000000000000000000000000000000000000000000000000815260040161178a90612b5b565b60405180910390fd5b600260048111156117cd577f4e487b7100000000000000000000000000000000000000000000000000000000600052602160045260246000fd5b816004811115611806577f4e487b7100000000000000000000000000000000000000000000000000000000600052602160045260246000fd5b1415611847576040517f08c379a000000000000000000000000000000000000000000000000000000000815260040161183e90612bbb565b60405180910390fd5b60036004811115611881577f4e487b7100000000000000000000000000000000000000000000000000000000600052602160045260246000fd5b8160048111156118ba577f4e487b7100000000000000000000000000000000000000000000000000000000600052602160045260246000fd5b14156118fb576040517f08c379a00000000000000000000000000000000000000000000000000000000081526004016118f290612c5b565b60405180910390fd5b600480811115611934577f4e487b7100000000000000000000000000000000000000000000000000000000600052602160045260246000fd5b81600481111561196d577f4e487b7100000000000000000000000000000000000000000000000000000000600052602160045260246000fd5b14156119ae576040517f08c379a00000000000000000000000000000000000000000000000000000000081526004016119a590612c7b565b60405180910390fd5b5b50565b6119bc8282610f2d565b15611a8f57600080600084815260200190815260200160002060000160008373ffffffffffffffffffffffffffffffffffffffff1673ffffffffffffffffffffffffffffffffffffffff16815260200190815260200160002060006101000a81548160ff021916908315150217905550611a346113fc565b73ffffffffffffffffffffffffffffffffffffffff168173ffffffffffffffffffffffffffffffffffffffff16837ff6391f5c32d9c69d2a47ea670b442974b53935d1edc7fd64eb21e047a839171b60405160405180910390a45b5050565b6000611abb836000018373ffffffffffffffffffffffffffffffffffffffff1660001b611fae565b905092915050565b6000826000018281548110611b01577f4e487b7100000000000000000000000000000000000000000000000000000000600052603260045260246000fd5b9060005260206000200154905092915050565b600081600001805490509050919050565b600080836001016000848152602001908152602001600020541415905092915050565b606060006002836002611b5b9190612e8e565b611b659190612e38565b67ffffffffffffffff811115611ba4577f4e487b7100000000000000000000000000000000000000000000000000000000600052604160045260246000fd5b6040519080825280601f01601f191660200182016040528015611bd65781602001600182028036833780820191505090505b5090507f300000000000000000000000000000000000000000000000000000000000000081600081518110611c34577f4e487b7100000000000000000000000000000000000000000000000000000000600052603260045260246000fd5b60200101907effffffffffffffffffffffffffffffffffffffffffffffffffffffffffffff1916908160001a9053507f780000000000000000000000000000000000000000000000000000000000000081600181518110611cbe577f4e487b7100000000000000000000000000000000000000000000000000000000600052603260045260246000fd5b60200101907effffffffffffffffffffffffffffffffffffffffffffffffffffffffffffff1916908160001a90535060006001846002611cfe9190612e8e565b611d089190612e38565b90505b6001811115611df4577f3031323334353637383961626364656600000000000000000000000000000000600f861660108110611d70577f4e487b7100000000000000000000000000000000000000000000000000000000600052603260045260246000fd5b1a60f81b828281518110611dad577f4e487b7100000000000000000000000000000000000000000000000000000000600052603260045260246000fd5b60200101907effffffffffffffffffffffffffffffffffffffffffffffffffffffffffffff1916908160001a905350600485901c945080611ded90613034565b9050611d0b565b5060008414611e38576040517f08c379a0000000000000000000000000000000000000000000000000000000008152600401611e2f90612b7b565b60405180910390fd5b8091505092915050565b6000807f7fffffffffffffffffffffffffffffff5d576e7357a4501ddfe92f46681b20a08360001c1115611e7d576000600391509150611f46565b601b8560ff1614158015611e955750601c8560ff1614155b15611ea7576000600491509150611f46565b600060018787878760405160008152602001604052604051611ecc9493929190612ad9565b6020604051602081039080840390855afa158015611eee573d6000803e3d6000fd5b505050602060405103519050600073ffffffffffffffffffffffffffffffffffffffff168173ffffffffffffffffffffffffffffffffffffffff161415611f3d57600060019250925050611f46565b80600092509250505b94509492505050565b60008060007f7fffffffffffffffffffffffffffffffffffffffffffffffffffffffffffffff60001b841690506000601b60ff8660001c901c611f929190612e38565b9050611fa087828885611e42565b935093505050935093915050565b60008083600101600084815260200190815260200160002054905060008114612128576000600182611fe09190612ee8565b9050600060018660000180549050611ff89190612ee8565b90508181146120b357600086600001828154811061203f577f4e487b7100000000000000000000000000000000000000000000000000000000600052603260045260246000fd5b9060005260206000200154905080876000018481548110612089577f4e487b7100000000000000000000000000000000000000000000000000000000600052603260045260246000fd5b90600052602060002001819055508387600101600083815260200190815260200160002081905550505b856000018054806120ed577f4e487b7100000000000000000000000000000000000000000000000000000000600052603160045260246000fd5b60019003818190600052602060002001600090559055856001016000868152602001908152602001600020600090556001935050505061212e565b60009150505b92915050565b604051806020016040528060006001811115612179577f4e487b7100000000000000000000000000000000000000000000000000000000600052602160045260246000fd5b81525090565b82805461218b9061305e565b90600052602060002090601f0160209004810192826121ad57600085556121f4565b82601f106121c657803560ff19168380011785556121f4565b828001600101855582156121f4579182015b828111156121f35782358255916020019190600101906121d8565b5b5090506122019190612205565b5090565b5b8082111561221e576000816000905550600101612206565b5090565b600081359050612231816134f7565b92915050565b6000813590506122468161350e565b92915050565b60008135905061225b81613525565b92915050565b6000813590506122708161353c565b92915050565b60008083601f84011261228857600080fd5b8235905067ffffffffffffffff8111156122a157600080fd5b6020830191508360018202830111156122b957600080fd5b9250929050565b6000813590506122cf81613553565b92915050565b6000813590506122e48161356a565b92915050565b6000602082840312156122fc57600080fd5b600061230a8482850161224c565b91505092915050565b6000806040838503121561232657600080fd5b60006123348582860161224c565b925050602061234585828601612222565b9150509250929050565b6000806040838503121561236257600080fd5b60006123708582860161224c565b925050602061238185828601612237565b9150509250929050565b60008060008060008060008060006101008a8c0312156123aa57600080fd5b60006123b88c828d0161224c565b99505060206123c98c828d0161224c565b98505060406123da8c828d016122d5565b97505060606123eb8c828d016122c0565b96505060806123fc8c828d016122d5565b95505060a061240d8c828d01612222565b94505060c061241e8c828d0161224c565b93505060e08a013567ffffffffffffffff81111561243b57600080fd5b6124478c828d01612276565b92509250509295985092959850929598565b6000806040838503121561246c57600080fd5b600061247a8582860161224c565b925050602061248b858286016122c0565b9150509250929050565b6000602082840312156124a757600080fd5b60006124b584828501612261565b91505092915050565b6000602082840312156124d057600080fd5b60006124de848285016122d5565b91505092915050565b60006124f383836125b3565b905092915050565b61250481612f1c565b82525050565b600061251582612dd7565b61251f8185612dfa565b93508360208202850161253185612dad565b8060005b8581101561256c5784840389528161254d85826124e7565b945061255883612ded565b925060208a01995050600181019050612535565b50829750879550505050505092915050565b61258781612f2e565b82525050565b61259681612f3a565b82525050565b6125ad6125a882612f3a565b6130d9565b82525050565b600081546125c08161305e565b6125ca8186612e0b565b945060018216600081146125e557600181146125f75761262a565b60ff198316865260208601935061262a565b61260085612dc2565b60005b8381101561262257815481890152600182019150602081019050612603565b808801955050505b50505092915050565b61263c81612fdd565b82525050565b61264b81612fdd565b82525050565b61265a81612fef565b82525050565b600061266b82612de2565b6126758185612e1c565b9350612685818560208601613001565b61268e81613170565b840191505092915050565b60006126a482612de2565b6126ae8185612e2d565b93506126be818560208601613001565b80840191505092915050565b60006126d7601883612e1c565b91506126e282613181565b602082019050919050565b60006126fa602083612e1c565b9150612705826131aa565b602082019050919050565b600061271d600e83612e1c565b9150612728826131d3565b602082019050919050565b6000612740601f83612e1c565b915061274b826131fc565b602082019050919050565b6000612763601c83612e2d565b915061276e82613225565b601c82019050919050565b6000612786602183612e1c565b91506127918261324e565b604082019050919050565b60006127a9600a83612e1c565b91506127b48261329d565b602082019050919050565b60006127cc602283612e1c565b91506127d7826132c6565b604082019050919050565b60006127ef601783612e1c565b91506127fa82613315565b602082019050919050565b6000612812602283612e1c565b915061281d8261333e565b604082019050919050565b6000612835602283612e1c565b91506128408261338d565b604082019050919050565b6000612858600983612e1c565b9150612863826133dc565b602082019050919050565b600061287b601683612e1c565b915061288682613405565b602082019050919050565b600061289e601783612e2d565b91506128a98261342e565b601782019050919050565b60006128c1601183612e2d565b91506128cc82613457565b601182019050919050565b60006128e4602f83612e1c565b91506128ef82613480565b604082019050919050565b6020820160008201516129106000850182612633565b50505050565b61291f81612fb6565b82525050565b61292e81612fc0565b82525050565b61293d81612fd0565b82525050565b600061294e82612756565b915061295a828461259c565b60208201915081905092915050565b600061297482612891565b91506129808285612699565b915061298b826128b4565b91506129978284612699565b91508190509392505050565b60006020820190506129b860008301846124fb565b92915050565b60006020820190506129d3600083018461257e565b92915050565b60006020820190506129ee600083018461258d565b92915050565b600060e082019050612a09600083018a61258d565b612a166020830189612651565b612a236040830188612916565b612a306060830187612925565b612a3d6080830186612916565b612a4a60a0830185612925565b612a5760c083018461258d565b98975050505050505050565b600060e082019050612a78600083018a61258d565b612a856020830189612651565b612a926040830188612925565b612a9f6060830187612916565b612aac6080830186612925565b612ab960a08301856124fb565b81810360c0830152612acb818461250a565b905098975050505050505050565b6000608082019050612aee600083018761258d565b612afb6020830186612934565b612b08604083018561258d565b612b15606083018461258d565b95945050505050565b6000602082019050612b336000830184612642565b92915050565b60006020820190508181036000830152612b538184612660565b905092915050565b60006020820190508181036000830152612b74816126ca565b9050919050565b60006020820190508181036000830152612b94816126ed565b9050919050565b60006020820190508181036000830152612bb481612710565b9050919050565b60006020820190508181036000830152612bd481612733565b9050919050565b60006020820190508181036000830152612bf481612779565b9050919050565b60006020820190508181036000830152612c148161279c565b9050919050565b60006020820190508181036000830152612c34816127bf565b9050919050565b60006020820190508181036000830152612c54816127e2565b9050919050565b60006020820190508181036000830152612c7481612805565b9050919050565b60006020820190508181036000830152612c9481612828565b9050919050565b60006020820190508181036000830152612cb48161284b565b9050919050565b60006020820190508181036000830152612cd48161286e565b9050919050565b60006020820190508181036000830152612cf4816128d7565b9050919050565b6000602082019050612d1060008301846128fa565b92915050565b6000602082019050612d2b6000830184612916565b92915050565b6000602082019050612d466000830184612925565b92915050565b600060c082019050612d616000830189612925565b612d6e602083018861258d565b612d7b6040830187612916565b612d886060830186612925565b612d9560808301856124fb565b612da260a083018461258d565b979650505050505050565b60008190508160005260206000209050919050565b60008190508160005260206000209050919050565b600081549050919050565b600081519050919050565b6000600182019050919050565b600082825260208201905092915050565b600082825260208201905092915050565b600082825260208201905092915050565b600081905092915050565b6000612e4382612fb6565b9150612e4e83612fb6565b9250827fffffffffffffffffffffffffffffffffffffffffffffffffffffffffffffffff03821115612e8357612e826130e3565b5b828201905092915050565b6000612e9982612fb6565b9150612ea483612fb6565b9250817fffffffffffffffffffffffffffffffffffffffffffffffffffffffffffffffff0483118215151615612edd57612edc6130e3565b5b828202905092915050565b6000612ef382612fb6565b9150612efe83612fb6565b925082821015612f1157612f106130e3565b5b828203905092915050565b6000612f2782612f96565b9050919050565b60008115159050919050565b6000819050919050565b60007fffffffff0000000000000000000000000000000000000000000000000000000082169050919050565b6000819050612f7e826134cf565b919050565b6000819050612f91826134e3565b919050565b600073ffffffffffffffffffffffffffffffffffffffff82169050919050565b6000819050919050565b600063ffffffff82169050919050565b600060ff82169050919050565b6000612fe882612f70565b9050919050565b6000612ffa82612f83565b9050919050565b60005b8381101561301f578082015181840152602081019050613004565b8381111561302e576000848401525b50505050565b600061303f82612fb6565b91506000821415613053576130526130e3565b5b600182039050919050565b6000600282049050600182168061307657607f821691505b6020821081141561308a57613089613141565b5b50919050565b600061309b82612fb6565b91507fffffffffffffffffffffffffffffffffffffffffffffffffffffffffffffffff8214156130ce576130cd6130e3565b5b600182019050919050565b6000819050919050565b7f4e487b7100000000000000000000000000000000000000000000000000000000600052601160045260246000fd5b7f4e487b7100000000000000000000000000000000000000000000000000000000600052602160045260246000fd5b7f4e487b7100000000000000000000000000000000000000000000000000000000600052602260045260246000fd5b6000601f19601f8301169050919050565b7f45434453413a20696e76616c6964207369676e61747572650000000000000000600082015250565b7f537472696e67733a20686578206c656e67746820696e73756666696369656e74600082015250565b7f566f74696e672065787069726573000000000000000000000000000000000000600082015250565b7f45434453413a20696e76616c6964207369676e6174757265206c656e67746800600082015250565b7f19457468657265756d205369676e6564204d6573736167653a0a333200000000600082015250565b7f54686520766f746520616c7265616479207061737365642f63616e63656c6c6560008201527f6400000000000000000000000000000000000000000000000000000000000000602082015250565b7f4e6f206163636573732000000000000000000000000000000000000000000000600082015250565b7f7369676e6174757265206d757374206265207369676e65642062792063616c6c60008201527f6572000000000000000000000000000000000000000000000000000000000000602082015250565b7f76616c696461746f7220616c726561647920766f746564000000000000000000600082015250565b7f45434453413a20696e76616c6964207369676e6174757265202773272076616c60008201527f7565000000000000000000000000000000000000000000000000000000000000602082015250565b7f45434453413a20696e76616c6964207369676e6174757265202776272076616c60008201527f7565000000000000000000000000000000000000000000000000000000000000602082015250565b7f4e6f206163636573730000000000000000000000000000000000000000000000600082015250565b7f43616e277420766572696679206d657373616765496400000000000000000000600082015250565b7f416363657373436f6e74726f6c3a206163636f756e7420000000000000000000600082015250565b7f206973206d697373696e6720726f6c6520000000000000000000000000000000600082015250565b7f416363657373436f6e74726f6c3a2063616e206f6e6c792072656e6f756e636560008201527f20726f6c657320666f722073656c660000000000000000000000000000000000602082015250565b600281106134e0576134df613112565b5b50565b600481106134f4576134f3613112565b5b50565b61350081612f1c565b811461350b57600080fd5b50565b61351781612f2e565b811461352257600080fd5b50565b61352e81612f3a565b811461353957600080fd5b50565b61354581612f44565b811461355057600080fd5b50565b61355c81612fb6565b811461356757600080fd5b50565b61357381612fc0565b811461357e57600080fd5b5056fea2646970667358221220ac12737781b879f5b6cff941bdc20b5b8b62af8bccde3848bcb48ee3e1d107e464736f6c63430008040033",
  "linkReferences": {},
  "deployedLinkReferences": {}
}