{
  "_format": "hh-sol-artifact-1",
  "contractName": "ERC20H",
  "sourceName": "contracts/demo/erc20trs.sol",
  "abi": [
    {
      "inputs": [
        {
          "internalType": "bytes32",
          "name": "resourceID",
          "type": "bytes32"
        },
        {
          "internalType": "address",
          "name": "target",
          "type": "address"
        },
        {
          "internalType": "bytes",
          "name": "data",
          "type": "bytes"
        }
      ],
      "name": "execute",
      "outputs": [],
      "stateMutability": "nonpayable",
      "type": "function"
    }
  ],
  "bytecode": "0x608060405234801561001057600080fd5b506102e6806100206000396000f3fe608060405234801561001057600080fd5b506004361061002b5760003560e01c8063a05aa01614610030575b600080fd5b61004a6004803603810190610045919061013b565b61004c565b005b60008390508073ffffffffffffffffffffffffffffffffffffffff1663e9ae5c538685856040518463ffffffff1660e01b815260040161008e939291906101e3565b600060405180830381600087803b1580156100a857600080fd5b505af11580156100bc573d6000803e3d6000fd5b505050505050505050565b6000813590506100d681610282565b92915050565b6000813590506100eb81610299565b92915050565b60008083601f84011261010357600080fd5b8235905067ffffffffffffffff81111561011c57600080fd5b60208301915083600182028301111561013457600080fd5b9250929050565b6000806000806060858703121561015157600080fd5b600061015f878288016100dc565b9450506020610170878288016100c7565b935050604085013567ffffffffffffffff81111561018d57600080fd5b610199878288016100f1565b925092505092959194509250565b6101b081610238565b82525050565b60006101c28385610215565b93506101cf838584610262565b6101d883610271565b840190509392505050565b60006040820190506101f860008301866101a7565b818103602083015261020b8184866101b6565b9050949350505050565b600082825260208201905092915050565b600061023182610242565b9050919050565b6000819050919050565b600073ffffffffffffffffffffffffffffffffffffffff82169050919050565b82818337600083830152505050565b6000601f19601f8301169050919050565b61028b81610226565b811461029657600080fd5b50565b6102a281610238565b81146102ad57600080fd5b5056fea264697066735822122037783b4ed400093a6b7f2737b4e8fca1f3b33796487fdc68b8bfc6da7530d07864736f6c63430008040033",
  "linkReferences": {},
  "deployedLinkReferences": {}
}