{
  "_format": "hh-sol-artifact-1",
  "contractName": "ERC721Handler",
  "sourceName": "contracts/handler/ERC721.sol",
  "abi": [
    {
      "inputs": [
        {
          "internalType": "bytes32",
          "name": "resourceID_",
          "type": "bytes32"
        },
        {
          "internalType": "address",
          "name": "bridgeAddress_",
          "type": "address"
        },
        {
          "internalType": "address",
          "name": "tokenAddress_",
          "type": "address"
        },
        {
          "internalType": "address",
          "name": "targetHandler_",
          "type": "address"
        },
        {
          "internalType": "bool",
          "name": "burnable_",
          "type": "bool"
        }
      ],
      "stateMutability": "nonpayable",
      "type": "constructor"
    },
    {
      "anonymous": false,
      "inputs": [
        {
          "indexed": true,
          "internalType": "address",
          "name": "previousOwner",
          "type": "address"
        },
        {
          "indexed": true,
          "internalType": "address",
          "name": "newOwner",
          "type": "address"
        }
      ],
      "name": "OwnershipTransferred",
      "type": "event"
    },
    {
      "inputs": [
        {
          "internalType": "address",
          "name": "bridgeAddress_",
          "type": "address"
        },
        {
          "internalType": "address",
          "name": "tokenAddress_",
          "type": "address"
        },
        {
          "internalType": "address",
          "name": "targetHandler_",
          "type": "address"
        },
        {
          "internalType": "bool",
          "name": "burnable_",
          "type": "bool"
        }
      ],
      "name": "adminSetConfig",
      "outputs": [],
      "stateMutability": "nonpayable",
      "type": "function"
    },
    {
      "inputs": [],
      "name": "bridgeAddress",
      "outputs": [
        {
          "internalType": "address",
          "name": "",
          "type": "address"
        }
      ],
      "stateMutability": "view",
      "type": "function"
    },
    {
      "inputs": [],
      "name": "burnable",
      "outputs": [
        {
          "internalType": "bool",
          "name": "",
          "type": "bool"
        }
      ],
      "stateMutability": "view",
      "type": "function"
    },
    {
      "inputs": [
        {
          "internalType": "bytes32",
          "name": "_resourceID",
          "type": "bytes32"
        },
        {
          "internalType": "uint32",
          "name": "targetChainId",
          "type": "uint32"
        },
        {
          "internalType": "uint256",
          "name": "tokenID",
          "type": "uint256"
        }
      ],
      "name": "deposit",
      "outputs": [
        {
          "internalType": "bytes32",
          "name": "",
          "type": "bytes32"
        }
      ],
      "stateMutability": "nonpayable",
      "type": "function"
    },
    {
      "inputs": [
        {
          "internalType": "bytes32",
          "name": "_resourceID",
          "type": "bytes32"
        },
        {
          "internalType": "bytes",
          "name": "data",
          "type": "bytes"
        }
      ],
      "name": "execute",
      "outputs": [],
      "stateMutability": "nonpayable",
      "type": "function"
    },
    {
      "inputs": [
        {
          "internalType": "address",
          "name": "",
          "type": "address"
        },
        {
          "internalType": "address",
          "name": "",
          "type": "address"
        },
        {
          "internalType": "uint256",
          "name": "",
          "type": "uint256"
        },
        {
          "internalType": "bytes",
          "name": "",
          "type": "bytes"
        }
      ],
      "name": "onERC721Received",
      "outputs": [
        {
          "internalType": "bytes4",
          "name": "",
          "type": "bytes4"
        }
      ],
      "stateMutability": "nonpayable",
      "type": "function"
    },
    {
      "inputs": [],
      "name": "owner",
      "outputs": [
        {
          "internalType": "address",
          "name": "",
          "type": "address"
        }
      ],
      "stateMutability": "view",
      "type": "function"
    },
    {
      "inputs": [],
      "name": "renounceOwnership",
      "outputs": [],
      "stateMutability": "nonpayable",
      "type": "function"
    },
    {
      "inputs": [],
      "name": "resourceID",
      "outputs": [
        {
          "internalType": "bytes32",
          "name": "",
          "type": "bytes32"
        }
      ],
      "stateMutability": "view",
      "type": "function"
    },
    {
      "inputs": [],
      "name": "targetHandler",
      "outputs": [
        {
          "internalType": "address",
          "name": "",
          "type": "address"
        }
      ],
      "stateMutability": "view",
      "type": "function"
    },
    {
      "inputs": [],
      "name": "tokenAddress",
      "outputs": [
        {
          "internalType": "address",
          "name": "",
          "type": "address"
        }
      ],
      "stateMutability": "view",
      "type": "function"
    },
    {
      "inputs": [
        {
          "internalType": "address",
          "name": "newOwner",
          "type": "address"
        }
      ],
      "name": "transferOwnership",
      "outputs": [],
      "stateMutability": "nonpayable",
      "type": "function"
    }
  ],
  "bytecode": "0x60806040523480156200001157600080fd5b5060405162001a6b38038062001a6b833981810160405281019062000037919062000261565b84848484846200005c620000506200015060201b60201c565b6200015860201b60201c565b8460018190555083600260006101000a81548173ffffffffffffffffffffffffffffffffffffffff021916908373ffffffffffffffffffffffffffffffffffffffff16021790555082600360006101000a81548173ffffffffffffffffffffffffffffffffffffffff021916908373ffffffffffffffffffffffffffffffffffffffff16021790555081600460006101000a81548173ffffffffffffffffffffffffffffffffffffffff021916908373ffffffffffffffffffffffffffffffffffffffff16021790555080600460146101000a81548160ff021916908315150217905550505050505050505050506200037b565b600033905090565b60008060009054906101000a900473ffffffffffffffffffffffffffffffffffffffff169050816000806101000a81548173ffffffffffffffffffffffffffffffffffffffff021916908373ffffffffffffffffffffffffffffffffffffffff1602179055508173ffffffffffffffffffffffffffffffffffffffff168173ffffffffffffffffffffffffffffffffffffffff167f8be0079c531659141344cd1fd0a4f28419497f9722a3daafe3b4186f6b6457e060405160405180910390a35050565b6000815190506200022d816200032d565b92915050565b600081519050620002448162000347565b92915050565b6000815190506200025b8162000361565b92915050565b600080600080600060a086880312156200027a57600080fd5b60006200028a888289016200024a565b95505060206200029d888289016200021c565b9450506040620002b0888289016200021c565b9350506060620002c3888289016200021c565b9250506080620002d68882890162000233565b9150509295509295909350565b6000620002f0826200030d565b9050919050565b60008115159050919050565b6000819050919050565b600073ffffffffffffffffffffffffffffffffffffffff82169050919050565b6200033881620002e3565b81146200034457600080fd5b50565b6200035281620002f7565b81146200035e57600080fd5b50565b6200036c8162000303565b81146200037857600080fd5b50565b6116e0806200038b6000396000f3fe608060405234801561001057600080fd5b50600436106100b45760003560e01c8063a3c573eb11610071578063a3c573eb1461016b578063ad030b6714610189578063dedd8ed5146101a5578063e9ae5c53146101d5578063f2fde38b146101f1578063fab28c1c1461020d576100b4565b8063150b7a02146100b95780631d80409e146100e9578063715018a6146101075780638da5cb5b146101115780639d76ea581461012f578063a07c7ce41461014d575b600080fd5b6100d360048036038101906100ce9190610edc565b61022b565b6040516100e09190611299565b60405180910390f35b6100f161023f565b6040516100fe9190611187565b60405180910390f35b61010f610265565b005b6101196102ed565b6040516101269190611187565b60405180910390f35b610137610316565b6040516101449190611187565b60405180910390f35b61015561033c565b6040516101629190611217565b60405180910390f35b61017361034f565b6040516101809190611187565b60405180910390f35b6101a3600480360381019061019e9190610e79565b610375565b005b6101bf60048036038101906101ba9190610fd8565b6104d4565b6040516101cc9190611232565b60405180910390f35b6101ef60048036038101906101ea9190610f80565b6108c1565b005b61020b60048036038101906102069190610de9565b610a72565b005b610215610b6a565b6040516102229190611232565b60405180910390f35b600063150b7a0260e01b9050949350505050565b600460009054906101000a900473ffffffffffffffffffffffffffffffffffffffff1681565b61026d610b70565b73ffffffffffffffffffffffffffffffffffffffff1661028b6102ed565b73ffffffffffffffffffffffffffffffffffffffff16146102e1576040517f08c379a00000000000000000000000000000000000000000000000000000000081526004016102d8906112f4565b60405180910390fd5b6102eb6000610b78565b565b60008060009054906101000a900473ffffffffffffffffffffffffffffffffffffffff16905090565b600360009054906101000a900473ffffffffffffffffffffffffffffffffffffffff1681565b600460149054906101000a900460ff1681565b600260009054906101000a900473ffffffffffffffffffffffffffffffffffffffff1681565b61037d610b70565b73ffffffffffffffffffffffffffffffffffffffff1661039b6102ed565b73ffffffffffffffffffffffffffffffffffffffff16146103f1576040517f08c379a00000000000000000000000000000000000000000000000000000000081526004016103e8906112f4565b60405180910390fd5b83600260006101000a81548173ffffffffffffffffffffffffffffffffffffffff021916908373ffffffffffffffffffffffffffffffffffffffff16021790555082600360006101000a81548173ffffffffffffffffffffffffffffffffffffffff021916908373ffffffffffffffffffffffffffffffffffffffff16021790555081600460006101000a81548173ffffffffffffffffffffffffffffffffffffffff021916908373ffffffffffffffffffffffffffffffffffffffff16021790555080600460146101000a81548160ff02191690831515021790555050505050565b6000836001541461051a576040517f08c379a0000000000000000000000000000000000000000000000000000000008152600401610511906112b4565b60405180910390fd5b600260009054906101000a900473ffffffffffffffffffffffffffffffffffffffff1673ffffffffffffffffffffffffffffffffffffffff163373ffffffffffffffffffffffffffffffffffffffff16146105aa576040517f08c379a00000000000000000000000000000000000000000000000000000000081526004016105a190611314565b60405180910390fd5b60606000600360009054906101000a900473ffffffffffffffffffffffffffffffffffffffff1690508073ffffffffffffffffffffffffffffffffffffffff1663c87b56dd856040518263ffffffff1660e01b815260040161060c9190611334565b600060405180830381600087803b15801561062657600080fd5b505af115801561063a573d6000803e3d6000fd5b505050506040513d6000823e3d601f19601f820116820180604052508101906106639190611027565b9150600460149054906101000a900460ff1615610712576000600360009054906101000a900473ffffffffffffffffffffffffffffffffffffffff1690508073ffffffffffffffffffffffffffffffffffffffff166342966c68866040518263ffffffff1660e01b81526004016106da9190611334565b600060405180830381600087803b1580156106f457600080fd5b505af1158015610708573d6000803e3d6000fd5b50505050506107aa565b6000600360009054906101000a900473ffffffffffffffffffffffffffffffffffffffff1690508073ffffffffffffffffffffffffffffffffffffffff166323b872dd3330886040518463ffffffff1660e01b8152600401610776939291906111a2565b600060405180830381600087803b15801561079057600080fd5b505af11580156107a4573d6000803e3d6000fd5b50505050505b60003385846040516020016107c1939291906111d9565b60405160208183030381529060405290506000600260009054906101000a900473ffffffffffffffffffffffffffffffffffffffff16905060008173ffffffffffffffffffffffffffffffffffffffff1663b0aaa1536001548a600460009054906101000a900473ffffffffffffffffffffffffffffffffffffffff16876040518563ffffffff1660e01b815260040161085e949392919061124d565b602060405180830381600087803b15801561087857600080fd5b505af115801561088c573d6000803e3d6000fd5b505050506040513d601f19601f820116820180604052508101906108b09190610f57565b905080955050505050509392505050565b8260015414610905576040517f08c379a00000000000000000000000000000000000000000000000000000000081526004016108fc906112b4565b60405180910390fd5b600080606084848101906109199190610e12565b809350819450829550505050600460149054906101000a900460ff16156109d2576000600360009054906101000a900473ffffffffffffffffffffffffffffffffffffffff1690508073ffffffffffffffffffffffffffffffffffffffff16636a627842856040518263ffffffff1660e01b815260040161099a9190611187565b600060405180830381600087803b1580156109b457600080fd5b505af11580156109c8573d6000803e3d6000fd5b5050505050610a6a565b6000600360009054906101000a900473ffffffffffffffffffffffffffffffffffffffff1690508073ffffffffffffffffffffffffffffffffffffffff166323b872dd3086866040518463ffffffff1660e01b8152600401610a36939291906111a2565b600060405180830381600087803b158015610a5057600080fd5b505af1158015610a64573d6000803e3d6000fd5b50505050505b505050505050565b610a7a610b70565b73ffffffffffffffffffffffffffffffffffffffff16610a986102ed565b73ffffffffffffffffffffffffffffffffffffffff1614610aee576040517f08c379a0000000000000000000000000000000000000000000000000000000008152600401610ae5906112f4565b60405180910390fd5b600073ffffffffffffffffffffffffffffffffffffffff168173ffffffffffffffffffffffffffffffffffffffff161415610b5e576040517f08c379a0000000000000000000000000000000000000000000000000000000008152600401610b55906112d4565b60405180910390fd5b610b6781610b78565b50565b60015481565b600033905090565b60008060009054906101000a900473ffffffffffffffffffffffffffffffffffffffff169050816000806101000a81548173ffffffffffffffffffffffffffffffffffffffff021916908373ffffffffffffffffffffffffffffffffffffffff1602179055508173ffffffffffffffffffffffffffffffffffffffff168173ffffffffffffffffffffffffffffffffffffffff167f8be0079c531659141344cd1fd0a4f28419497f9722a3daafe3b4186f6b6457e060405160405180910390a35050565b6000610c4f610c4a84611374565b61134f565b905082815260208101848484011115610c6757600080fd5b610c728482856114a3565b509392505050565b6000610c8d610c88846113a5565b61134f565b905082815260208101848484011115610ca557600080fd5b610cb08482856114b2565b509392505050565b600081359050610cc781611620565b92915050565b600081359050610cdc81611637565b92915050565b600081359050610cf18161164e565b92915050565b600081359050610d0681611665565b92915050565b600081519050610d1b81611665565b92915050565b60008083601f840112610d3357600080fd5b8235905067ffffffffffffffff811115610d4c57600080fd5b602083019150836001820283011115610d6457600080fd5b9250929050565b600082601f830112610d7c57600080fd5b8135610d8c848260208601610c3c565b91505092915050565b600082601f830112610da657600080fd5b8151610db6848260208601610c7a565b91505092915050565b600081359050610dce8161167c565b92915050565b600081359050610de381611693565b92915050565b600060208284031215610dfb57600080fd5b6000610e0984828501610cb8565b91505092915050565b600080600060608486031215610e2757600080fd5b6000610e3586828701610ccd565b9350506020610e4686828701610dbf565b925050604084013567ffffffffffffffff811115610e6357600080fd5b610e6f86828701610d6b565b9150509250925092565b60008060008060808587031215610e8f57600080fd5b6000610e9d87828801610cb8565b9450506020610eae87828801610cb8565b9350506040610ebf87828801610cb8565b9250506060610ed087828801610ce2565b91505092959194509250565b60008060008060808587031215610ef257600080fd5b6000610f0087828801610cb8565b9450506020610f1187828801610cb8565b9350506040610f2287828801610dbf565b925050606085013567ffffffffffffffff811115610f3f57600080fd5b610f4b87828801610d6b565b91505092959194509250565b600060208284031215610f6957600080fd5b6000610f7784828501610d0c565b91505092915050565b600080600060408486031215610f9557600080fd5b6000610fa386828701610cf7565b935050602084013567ffffffffffffffff811115610fc057600080fd5b610fcc86828701610d21565b92509250509250925092565b600080600060608486031215610fed57600080fd5b6000610ffb86828701610cf7565b935050602061100c86828701610dd4565b925050604061101d86828701610dbf565b9150509250925092565b60006020828403121561103957600080fd5b600082015167ffffffffffffffff81111561105357600080fd5b61105f84828501610d95565b91505092915050565b61107181611403565b82525050565b61108081611427565b82525050565b61108f81611433565b82525050565b61109e8161143d565b82525050565b60006110af826113d6565b6110b981856113e1565b93506110c98185602086016114b2565b6110d281611545565b840191505092915050565b60006110ea6010836113f2565b91506110f582611556565b602082019050919050565b600061110d6026836113f2565b91506111188261157f565b604082019050919050565b60006111306020836113f2565b915061113b826115ce565b602082019050919050565b60006111536015836113f2565b915061115e826115f7565b602082019050919050565b61117281611489565b82525050565b61118181611493565b82525050565b600060208201905061119c6000830184611068565b92915050565b60006060820190506111b76000830186611068565b6111c46020830185611068565b6111d16040830184611169565b949350505050565b60006060820190506111ee6000830186611068565b6111fb6020830185611169565b818103604083015261120d81846110a4565b9050949350505050565b600060208201905061122c6000830184611077565b92915050565b60006020820190506112476000830184611086565b92915050565b60006080820190506112626000830187611086565b61126f6020830186611178565b61127c6040830185611068565b818103606083015261128e81846110a4565b905095945050505050565b60006020820190506112ae6000830184611095565b92915050565b600060208201905081810360008301526112cd816110dd565b9050919050565b600060208201905081810360008301526112ed81611100565b9050919050565b6000602082019050818103600083015261130d81611123565b9050919050565b6000602082019050818103600083015261132d81611146565b9050919050565b60006020820190506113496000830184611169565b92915050565b600061135961136a565b905061136582826114e5565b919050565b6000604051905090565b600067ffffffffffffffff82111561138f5761138e611516565b5b61139882611545565b9050602081019050919050565b600067ffffffffffffffff8211156113c0576113bf611516565b5b6113c982611545565b9050602081019050919050565b600081519050919050565b600082825260208201905092915050565b600082825260208201905092915050565b600061140e82611469565b9050919050565b600061142082611469565b9050919050565b60008115159050919050565b6000819050919050565b60007fffffffff0000000000000000000000000000000000000000000000000000000082169050919050565b600073ffffffffffffffffffffffffffffffffffffffff82169050919050565b6000819050919050565b600063ffffffff82169050919050565b82818337600083830152505050565b60005b838110156114d05780820151818401526020810190506114b5565b838111156114df576000848401525b50505050565b6114ee82611545565b810181811067ffffffffffffffff8211171561150d5761150c611516565b5b80604052505050565b7f4e487b7100000000000000000000000000000000000000000000000000000000600052604160045260246000fd5b6000601f19601f8301169050919050565b7f7265736f757263654944206572726f7200000000000000000000000000000000600082015250565b7f4f776e61626c653a206e6577206f776e657220697320746865207a65726f206160008201527f6464726573730000000000000000000000000000000000000000000000000000602082015250565b7f4f776e61626c653a2063616c6c6572206973206e6f7420746865206f776e6572600082015250565b7f6f6e6c792063616c6c6564206279206272696467650000000000000000000000600082015250565b61162981611403565b811461163457600080fd5b50565b61164081611415565b811461164b57600080fd5b50565b61165781611427565b811461166257600080fd5b50565b61166e81611433565b811461167957600080fd5b50565b61168581611489565b811461169057600080fd5b50565b61169c81611493565b81146116a757600080fd5b5056fea26469706673582212204f16ec17f6047465260f2f9a26a3f9997fb7faac5b5191fb54d61e69dd6c0a4064736f6c63430008040033",
  "linkReferences": {},
  "deployedLinkReferences": {}
}