{
  "_format": "hh-sol-artifact-1",
  "contractName": "LockBurnNative",
  "sourceName": "contracts/demo/lockBurnNative.sol",
  "abi": [
    {
      "anonymous": false,
      "inputs": [
        {
          "indexed": false,
          "internalType": "address",
          "name": "sender",
          "type": "address"
        }
      ],
      "name": "Received",
      "type": "event"
    },
    {
      "inputs": [],
      "name": "NativeBalanceOfSender",
      "outputs": [
        {
          "internalType": "uint256",
          "name": "",
          "type": "uint256"
        }
      ],
      "stateMutability": "view",
      "type": "function"
    },
    {
      "inputs": [],
      "name": "NativeBalanceOfThis",
      "outputs": [
        {
          "internalType": "uint256",
          "name": "",
          "type": "uint256"
        }
      ],
      "stateMutability": "view",
      "type": "function"
    },
    {
      "inputs": [
        {
          "internalType": "uint256",
          "name": "amount",
          "type": "uint256"
        }
      ],
      "name": "burn",
      "outputs": [],
      "stateMutability": "nonpayable",
      "type": "function"
    },
    {
      "inputs": [],
      "name": "lock",
      "outputs": [],
      "stateMutability": "payable",
      "type": "function"
    },
    {
      "stateMutability": "payable",
      "type": "receive"
    }
  ],
  "bytecode": "0x608060405234801561001057600080fd5b506104f1806100206000396000f3fe6080604052600436106100435760003560e01c806342966c681461008657806398c59c8e146100af578063b8ac4f5d146100da578063f83d08ba1461010557610081565b36610081577f7c6a000d6581009ece38db2bf0a802db87c25d55bdf668f06a962b9c7188477333604051610077919061035b565b60405180910390a1005b600080fd5b34801561009257600080fd5b506100ad60048036038101906100a89190610296565b61010f565b005b3480156100bb57600080fd5b506100c461011d565b6040516100d191906103b6565b60405180910390f35b3480156100e657600080fd5b506100ef61013c565b6040516100fc91906103b6565b60405180910390f35b61010d610144565b005b61011a60008261018d565b50565b60003373ffffffffffffffffffffffffffffffffffffffff1631905090565b600047905090565b3073ffffffffffffffffffffffffffffffffffffffff166108fc349081150290604051600060405180830381858888f1935050505015801561018a573d6000803e3d6000fd5b50565b804710156101d0576040517f08c379a00000000000000000000000000000000000000000000000000000000081526004016101c790610396565b60405180910390fd5b60008273ffffffffffffffffffffffffffffffffffffffff16826040516101f690610346565b60006040518083038185875af1925050503d8060008114610233576040519150601f19603f3d011682016040523d82523d6000602084013e610238565b606091505b505090508061027c576040517f08c379a000000000000000000000000000000000000000000000000000000000815260040161027390610376565b60405180910390fd5b505050565b600081359050610290816104a4565b92915050565b6000602082840312156102a857600080fd5b60006102b684828501610281565b91505092915050565b6102c8816103ed565b82525050565b60006102db603a836103dc565b91506102e682610429565b604082019050919050565b60006102fe601d836103dc565b915061030982610478565b602082019050919050565b60006103216000836103d1565b915061032c826104a1565b600082019050919050565b6103408161041f565b82525050565b600061035182610314565b9150819050919050565b600060208201905061037060008301846102bf565b92915050565b6000602082019050818103600083015261038f816102ce565b9050919050565b600060208201905081810360008301526103af816102f1565b9050919050565b60006020820190506103cb6000830184610337565b92915050565b600081905092915050565b600082825260208201905092915050565b60006103f8826103ff565b9050919050565b600073ffffffffffffffffffffffffffffffffffffffff82169050919050565b6000819050919050565b7f416464726573733a20756e61626c6520746f2073656e642076616c75652c207260008201527f6563697069656e74206d61792068617665207265766572746564000000000000602082015250565b7f416464726573733a20696e73756666696369656e742062616c616e6365000000600082015250565b50565b6104ad8161041f565b81146104b857600080fd5b5056fea2646970667358221220855e2d7f1390dfade8562b85dd8ed6fe2bc3816e473c3c6be6d555d7c207eae764736f6c63430008040033",
  "linkReferences": {},
  "deployedLinkReferences": {}
}