{
  "_format": "hh-sol-artifact-1",
  "contractName": "Game1155",
  "sourceName": "contracts/demo/erc1155A.sol",
  "abi": [
    {
      "inputs": [],
      "stateMutability": "nonpayable",
      "type": "constructor"
    },
    {
      "anonymous": false,
      "inputs": [
        {
          "indexed": true,
          "internalType": "address",
          "name": "account",
          "type": "address"
        },
        {
          "indexed": true,
          "internalType": "address",
          "name": "operator",
          "type": "address"
        },
        {
          "indexed": false,
          "internalType": "bool",
          "name": "approved",
          "type": "bool"
        }
      ],
      "name": "ApprovalForAll",
      "type": "event"
    },
    {
      "anonymous": false,
      "inputs": [
        {
          "indexed": true,
          "internalType": "address",
          "name": "operator",
          "type": "address"
        },
        {
          "indexed": true,
          "internalType": "address",
          "name": "from",
          "type": "address"
        },
        {
          "indexed": true,
          "internalType": "address",
          "name": "to",
          "type": "address"
        },
        {
          "indexed": false,
          "internalType": "uint256[]",
          "name": "ids",
          "type": "uint256[]"
        },
        {
          "indexed": false,
          "internalType": "uint256[]",
          "name": "values",
          "type": "uint256[]"
        }
      ],
      "name": "TransferBatch",
      "type": "event"
    },
    {
      "anonymous": false,
      "inputs": [
        {
          "indexed": true,
          "internalType": "address",
          "name": "operator",
          "type": "address"
        },
        {
          "indexed": true,
          "internalType": "address",
          "name": "from",
          "type": "address"
        },
        {
          "indexed": true,
          "internalType": "address",
          "name": "to",
          "type": "address"
        },
        {
          "indexed": false,
          "internalType": "uint256",
          "name": "id",
          "type": "uint256"
        },
        {
          "indexed": false,
          "internalType": "uint256",
          "name": "value",
          "type": "uint256"
        }
      ],
      "name": "TransferSingle",
      "type": "event"
    },
    {
      "anonymous": false,
      "inputs": [
        {
          "indexed": false,
          "internalType": "string",
          "name": "value",
          "type": "string"
        },
        {
          "indexed": true,
          "internalType": "uint256",
          "name": "id",
          "type": "uint256"
        }
      ],
      "name": "URI",
      "type": "event"
    },
    {
      "inputs": [],
      "name": "GOLD",
      "outputs": [
        {
          "internalType": "uint256",
          "name": "",
          "type": "uint256"
        }
      ],
      "stateMutability": "view",
      "type": "function"
    },
    {
      "inputs": [],
      "name": "SHIELD",
      "outputs": [
        {
          "internalType": "uint256",
          "name": "",
          "type": "uint256"
        }
      ],
      "stateMutability": "view",
      "type": "function"
    },
    {
      "inputs": [],
      "name": "SILVER",
      "outputs": [
        {
          "internalType": "uint256",
          "name": "",
          "type": "uint256"
        }
      ],
      "stateMutability": "view",
      "type": "function"
    },
    {
      "inputs": [],
      "name": "SWORD",
      "outputs": [
        {
          "internalType": "uint256",
          "name": "",
          "type": "uint256"
        }
      ],
      "stateMutability": "view",
      "type": "function"
    },
    {
      "inputs": [],
      "name": "THORS_HAMMER",
      "outputs": [
        {
          "internalType": "uint256",
          "name": "",
          "type": "uint256"
        }
      ],
      "stateMutability": "view",
      "type": "function"
    },
    {
      "inputs": [
        {
          "internalType": "address",
          "name": "account",
          "type": "address"
        },
        {
          "internalType": "uint256",
          "name": "id",
          "type": "uint256"
        }
      ],
      "name": "balanceOf",
      "outputs": [
        {
          "internalType": "uint256",
          "name": "",
          "type": "uint256"
        }
      ],
      "stateMutability": "view",
      "type": "function"
    },
    {
      "inputs": [
        {
          "internalType": "address[]",
          "name": "accounts",
          "type": "address[]"
        },
        {
          "internalType": "uint256[]",
          "name": "ids",
          "type": "uint256[]"
        }
      ],
      "name": "balanceOfBatch",
      "outputs": [
        {
          "internalType": "uint256[]",
          "name": "",
          "type": "uint256[]"
        }
      ],
      "stateMutability": "view",
      "type": "function"
    },
    {
      "inputs": [
        {
          "internalType": "address",
          "name": "account",
          "type": "address"
        },
        {
          "internalType": "address",
          "name": "operator",
          "type": "address"
        }
      ],
      "name": "isApprovedForAll",
      "outputs": [
        {
          "internalType": "bool",
          "name": "",
          "type": "bool"
        }
      ],
      "stateMutability": "view",
      "type": "function"
    },
    {
      "inputs": [
        {
          "internalType": "address",
          "name": "from",
          "type": "address"
        },
        {
          "internalType": "address",
          "name": "to",
          "type": "address"
        },
        {
          "internalType": "uint256[]",
          "name": "ids",
          "type": "uint256[]"
        },
        {
          "internalType": "uint256[]",
          "name": "amounts",
          "type": "uint256[]"
        },
        {
          "internalType": "bytes",
          "name": "data",
          "type": "bytes"
        }
      ],
      "name": "safeBatchTransferFrom",
      "outputs": [],
      "stateMutability": "nonpayable",
      "type": "function"
    },
    {
      "inputs": [
        {
          "internalType": "address",
          "name": "from",
          "type": "address"
        },
        {
          "internalType": "address",
          "name": "to",
          "type": "address"
        },
        {
          "internalType": "uint256",
          "name": "id",
          "type": "uint256"
        },
        {
          "internalType": "uint256",
          "name": "amount",
          "type": "uint256"
        },
        {
          "internalType": "bytes",
          "name": "data",
          "type": "bytes"
        }
      ],
      "name": "safeTransferFrom",
      "outputs": [],
      "stateMutability": "nonpayable",
      "type": "function"
    },
    {
      "inputs": [
        {
          "internalType": "address",
          "name": "operator",
          "type": "address"
        },
        {
          "internalType": "bool",
          "name": "approved",
          "type": "bool"
        }
      ],
      "name": "setApprovalForAll",
      "outputs": [],
      "stateMutability": "nonpayable",
      "type": "function"
    },
    {
      "inputs": [
        {
          "internalType": "bytes4",
          "name": "interfaceId",
          "type": "bytes4"
        }
      ],
      "name": "supportsInterface",
      "outputs": [
        {
          "internalType": "bool",
          "name": "",
          "type": "bool"
        }
      ],
      "stateMutability": "view",
      "type": "function"
    },
    {
      "inputs": [
        {
          "internalType": "uint256",
          "name": "",
          "type": "uint256"
        }
      ],
      "name": "uri",
      "outputs": [
        {
          "internalType": "string",
          "name": "",
          "type": "string"
        }
      ],
      "stateMutability": "view",
      "type": "function"
    }
  ],
  "bytecode": "0x60806040523480156200001157600080fd5b50604051806060016040528060278152602001620034fa602791396200003d816200011560201b60201c565b506200006a336000670de0b6b3a7640000604051806020016040528060008152506200013160201b60201c565b6200009a3360016b033b2e3c9fd0803ce8000000604051806020016040528060008152506200013160201b60201c565b620000bf3360026001604051806020016040528060008152506200013160201b60201c565b620000e7336003633b9aca00604051806020016040528060008152506200013160201b60201c565b6200010f336004633b9aca00604051806020016040528060008152506200013160201b60201c565b62000d72565b80600290805190602001906200012d92919062000627565b5050565b600073ffffffffffffffffffffffffffffffffffffffff168473ffffffffffffffffffffffffffffffffffffffff161415620001a4576040517f08c379a00000000000000000000000000000000000000000000000000000000081526004016200019b90620008ff565b60405180910390fd5b6000620001b66200031960201b60201c565b90506000620001cb856200032160201b60201c565b90506000620001e0856200032160201b60201c565b9050620001f983600089858589620003ea60201b60201c565b8460008088815260200190815260200160002060008973ffffffffffffffffffffffffffffffffffffffff1673ffffffffffffffffffffffffffffffffffffffff16815260200190815260200160002060008282546200025a919062000990565b925050819055508673ffffffffffffffffffffffffffffffffffffffff16600073ffffffffffffffffffffffffffffffffffffffff168473ffffffffffffffffffffffffffffffffffffffff167fc3d58168c5ae7397731d063d5bbf3d657854427343f4c083240f7aacaa2d0f628989604051620002da92919062000921565b60405180910390a4620002f983600089858589620003f260201b60201c565b6200031083600089898989620003fa60201b60201c565b50505050505050565b600033905090565b60606000600167ffffffffffffffff81111562000367577f4e487b7100000000000000000000000000000000000000000000000000000000600052604160045260246000fd5b604051908082528060200260200182016040528015620003965781602001602082028036833780820191505090505b5090508281600081518110620003d5577f4e487b7100000000000000000000000000000000000000000000000000000000600052603260045260246000fd5b60200260200101818152505080915050919050565b505050505050565b505050505050565b620004268473ffffffffffffffffffffffffffffffffffffffff166200060460201b620008a21760201c565b15620005fc578373ffffffffffffffffffffffffffffffffffffffff1663f23a6e6187878686866040518663ffffffff1660e01b81526004016200046f95949392919062000833565b602060405180830381600087803b1580156200048a57600080fd5b505af1925050508015620004be57506040513d601f19601f82011682018060405250810190620004bb9190620006ee565b60015b6200057057620004cd62000b86565b806308c379a01415620005315750620004e562000cb6565b80620004f2575062000533565b806040517f08c379a000000000000000000000000000000000000000000000000000000000815260040162000528919062000897565b60405180910390fd5b505b6040517f08c379a00000000000000000000000000000000000000000000000000000000081526004016200056790620008bb565b60405180910390fd5b63f23a6e6160e01b7bffffffffffffffffffffffffffffffffffffffffffffffffffffffff1916817bffffffffffffffffffffffffffffffffffffffffffffffffffffffff191614620005fa576040517f08c379a0000000000000000000000000000000000000000000000000000000008152600401620005f190620008dd565b60405180910390fd5b505b505050505050565b6000808273ffffffffffffffffffffffffffffffffffffffff163b119050919050565b828054620006359062000a8d565b90600052602060002090601f016020900481019282620006595760008555620006a5565b82601f106200067457805160ff1916838001178555620006a5565b82800160010185558215620006a5579182015b82811115620006a457825182559160200191906001019062000687565b5b509050620006b49190620006b8565b5090565b5b80821115620006d3576000816000905550600101620006b9565b5090565b600081519050620006e88162000d58565b92915050565b6000602082840312156200070157600080fd5b60006200071184828501620006d7565b91505092915050565b6200072581620009ed565b82525050565b6000620007388262000958565b6200074481856200096e565b93506200075681856020860162000a57565b620007618162000bab565b840191505092915050565b6000620007798262000963565b6200078581856200097f565b93506200079781856020860162000a57565b620007a28162000bab565b840191505092915050565b6000620007bc6034836200097f565b9150620007c98262000bc9565b604082019050919050565b6000620007e36028836200097f565b9150620007f08262000c18565b604082019050919050565b60006200080a6021836200097f565b9150620008178262000c67565b604082019050919050565b6200082d8162000a4d565b82525050565b600060a0820190506200084a60008301886200071a565b6200085960208301876200071a565b62000868604083018662000822565b62000877606083018562000822565b81810360808301526200088b81846200072b565b90509695505050505050565b60006020820190508181036000830152620008b381846200076c565b905092915050565b60006020820190508181036000830152620008d681620007ad565b9050919050565b60006020820190508181036000830152620008f881620007d4565b9050919050565b600060208201905081810360008301526200091a81620007fb565b9050919050565b600060408201905062000938600083018562000822565b62000947602083018462000822565b9392505050565b6000604051905090565b600081519050919050565b600081519050919050565b600082825260208201905092915050565b600082825260208201905092915050565b60006200099d8262000a4d565b9150620009aa8362000a4d565b9250827fffffffffffffffffffffffffffffffffffffffffffffffffffffffffffffffff03821115620009e257620009e162000af9565b5b828201905092915050565b6000620009fa8262000a2d565b9050919050565b60007fffffffff0000000000000000000000000000000000000000000000000000000082169050919050565b600073ffffffffffffffffffffffffffffffffffffffff82169050919050565b6000819050919050565b60005b8381101562000a7757808201518184015260208101905062000a5a565b8381111562000a87576000848401525b50505050565b6000600282049050600182168062000aa657607f821691505b6020821081141562000abd5762000abc62000b28565b5b50919050565b62000ace8262000bab565b810181811067ffffffffffffffff8211171562000af05762000aef62000b57565b5b80604052505050565b7f4e487b7100000000000000000000000000000000000000000000000000000000600052601160045260246000fd5b7f4e487b7100000000000000000000000000000000000000000000000000000000600052602260045260246000fd5b7f4e487b7100000000000000000000000000000000000000000000000000000000600052604160045260246000fd5b600060033d111562000ba85760046000803e62000ba560005162000bbc565b90505b90565b6000601f19601f8301169050919050565b60008160e01c9050919050565b7f455243313135353a207472616e7366657220746f206e6f6e204552433131353560008201527f526563656976657220696d706c656d656e746572000000000000000000000000602082015250565b7f455243313135353a204552433131353552656365697665722072656a6563746560008201527f6420746f6b656e73000000000000000000000000000000000000000000000000602082015250565b7f455243313135353a206d696e7420746f20746865207a65726f2061646472657360008201527f7300000000000000000000000000000000000000000000000000000000000000602082015250565b600060443d101562000cc85762000d55565b62000cd26200094e565b60043d036004823e80513d602482011167ffffffffffffffff8211171562000cfc57505062000d55565b808201805167ffffffffffffffff81111562000d1c575050505062000d55565b80602083010160043d03850181111562000d3b57505050505062000d55565b62000d4c8260200185018662000ac3565b82955050505050505b90565b62000d638162000a01565b811462000d6f57600080fd5b50565b6127788062000d826000396000f3fe608060405234801561001057600080fd5b50600436106100ce5760003560e01c80634e1273f41161008c578063d562e20411610066578063d562e20414610225578063e3e55f0814610243578063e985e9c514610261578063f242432a14610291576100ce565b80634e1273f4146101bb5780635b2725ed146101eb578063a22cb46514610209576100ce565b8062fdd58e146100d357806301ffc9a7146101035780630e89341c1461013357806313dc989f146101635780632eb2c2d6146101815780633e4bee381461019d575b600080fd5b6100ed60048036038101906100e89190611915565b6102ad565b6040516100fa9190611f52565b60405180910390f35b61011d600480360381019061011891906119bd565b610376565b60405161012a9190611dd5565b60405180910390f35b61014d60048036038101906101489190611a0f565b610458565b60405161015a9190611df0565b60405180910390f35b61016b6104ec565b6040516101789190611f52565b60405180910390f35b61019b6004803603810190610196919061178b565b6104f1565b005b6101a5610592565b6040516101b29190611f52565b60405180910390f35b6101d560048036038101906101d09190611951565b610597565b6040516101e29190611d7c565b60405180910390f35b6101f3610748565b6040516102009190611f52565b60405180910390f35b610223600480360381019061021e91906118d9565b61074d565b005b61022d610763565b60405161023a9190611f52565b60405180910390f35b61024b610768565b6040516102589190611f52565b60405180910390f35b61027b6004803603810190610276919061174f565b61076d565b6040516102889190611dd5565b60405180910390f35b6102ab60048036038101906102a6919061184a565b610801565b005b60008073ffffffffffffffffffffffffffffffffffffffff168373ffffffffffffffffffffffffffffffffffffffff16141561031e576040517f08c379a000000000000000000000000000000000000000000000000000000000815260040161031590611e52565b60405180910390fd5b60008083815260200190815260200160002060008473ffffffffffffffffffffffffffffffffffffffff1673ffffffffffffffffffffffffffffffffffffffff16815260200190815260200160002054905092915050565b60007fd9b67a26000000000000000000000000000000000000000000000000000000007bffffffffffffffffffffffffffffffffffffffffffffffffffffffff1916827bffffffffffffffffffffffffffffffffffffffffffffffffffffffff1916148061044157507f0e89341c000000000000000000000000000000000000000000000000000000007bffffffffffffffffffffffffffffffffffffffffffffffffffffffff1916827bffffffffffffffffffffffffffffffffffffffffffffffffffffffff1916145b806104515750610450826108c5565b5b9050919050565b606060028054610467906121c1565b80601f0160208091040260200160405190810160405280929190818152602001828054610493906121c1565b80156104e05780601f106104b5576101008083540402835291602001916104e0565b820191906000526020600020905b8154815290600101906020018083116104c357829003601f168201915b50505050509050919050565b600381565b6104f961092f565b73ffffffffffffffffffffffffffffffffffffffff168573ffffffffffffffffffffffffffffffffffffffff16148061053f575061053e8561053961092f565b61076d565b5b61057e576040517f08c379a000000000000000000000000000000000000000000000000000000000815260040161057590611eb2565b60405180910390fd5b61058b8585858585610937565b5050505050565b600081565b606081518351146105dd576040517f08c379a00000000000000000000000000000000000000000000000000000000081526004016105d490611f12565b60405180910390fd5b6000835167ffffffffffffffff811115610620577f4e487b7100000000000000000000000000000000000000000000000000000000600052604160045260246000fd5b60405190808252806020026020018201604052801561064e5781602001602082028036833780820191505090505b50905060005b845181101561073d576106e7858281518110610699577f4e487b7100000000000000000000000000000000000000000000000000000000600052603260045260246000fd5b60200260200101518583815181106106da577f4e487b7100000000000000000000000000000000000000000000000000000000600052603260045260246000fd5b60200260200101516102ad565b828281518110610720577f4e487b7100000000000000000000000000000000000000000000000000000000600052603260045260246000fd5b6020026020010181815250508061073690612224565b9050610654565b508091505092915050565b600481565b61075f61075861092f565b8383610ca5565b5050565b600281565b600181565b6000600160008473ffffffffffffffffffffffffffffffffffffffff1673ffffffffffffffffffffffffffffffffffffffff16815260200190815260200160002060008373ffffffffffffffffffffffffffffffffffffffff1673ffffffffffffffffffffffffffffffffffffffff16815260200190815260200160002060009054906101000a900460ff16905092915050565b61080961092f565b73ffffffffffffffffffffffffffffffffffffffff168573ffffffffffffffffffffffffffffffffffffffff16148061084f575061084e8561084961092f565b61076d565b5b61088e576040517f08c379a000000000000000000000000000000000000000000000000000000000815260040161088590611e72565b60405180910390fd5b61089b8585858585610e12565b5050505050565b6000808273ffffffffffffffffffffffffffffffffffffffff163b119050919050565b60007f01ffc9a7000000000000000000000000000000000000000000000000000000007bffffffffffffffffffffffffffffffffffffffffffffffffffffffff1916827bffffffffffffffffffffffffffffffffffffffffffffffffffffffff1916149050919050565b600033905090565b815183511461097b576040517f08c379a000000000000000000000000000000000000000000000000000000000815260040161097290611f32565b60405180910390fd5b600073ffffffffffffffffffffffffffffffffffffffff168473ffffffffffffffffffffffffffffffffffffffff1614156109eb576040517f08c379a00000000000000000000000000000000000000000000000000000000081526004016109e290611e92565b60405180910390fd5b60006109f561092f565b9050610a058187878787876110ae565b60005b8451811015610c02576000858281518110610a4c577f4e487b7100000000000000000000000000000000000000000000000000000000600052603260045260246000fd5b602002602001015190506000858381518110610a91577f4e487b7100000000000000000000000000000000000000000000000000000000600052603260045260246000fd5b60200260200101519050600080600084815260200190815260200160002060008b73ffffffffffffffffffffffffffffffffffffffff1673ffffffffffffffffffffffffffffffffffffffff16815260200190815260200160002054905081811015610b32576040517f08c379a0000000000000000000000000000000000000000000000000000000008152600401610b2990611ed2565b60405180910390fd5b81810360008085815260200190815260200160002060008c73ffffffffffffffffffffffffffffffffffffffff1673ffffffffffffffffffffffffffffffffffffffff168152602001908152602001600020819055508160008085815260200190815260200160002060008b73ffffffffffffffffffffffffffffffffffffffff1673ffffffffffffffffffffffffffffffffffffffff1681526020019081526020016000206000828254610be791906120b5565b9250508190555050505080610bfb90612224565b9050610a08565b508473ffffffffffffffffffffffffffffffffffffffff168673ffffffffffffffffffffffffffffffffffffffff168273ffffffffffffffffffffffffffffffffffffffff167f4a39dc06d4c0dbc64b70af90fd698a233a518aa5d07e595d983b8c0526c8f7fb8787604051610c79929190611d9e565b60405180910390a4610c8f8187878787876110b6565b610c9d8187878787876110be565b505050505050565b8173ffffffffffffffffffffffffffffffffffffffff168373ffffffffffffffffffffffffffffffffffffffff161415610d14576040517f08c379a0000000000000000000000000000000000000000000000000000000008152600401610d0b90611ef2565b60405180910390fd5b80600160008573ffffffffffffffffffffffffffffffffffffffff1673ffffffffffffffffffffffffffffffffffffffff16815260200190815260200160002060008473ffffffffffffffffffffffffffffffffffffffff1673ffffffffffffffffffffffffffffffffffffffff16815260200190815260200160002060006101000a81548160ff0219169083151502179055508173ffffffffffffffffffffffffffffffffffffffff168373ffffffffffffffffffffffffffffffffffffffff167f17307eab39ab6107e8899845ad3d59bd9653f200f220920489ca2b5937696c3183604051610e059190611dd5565b60405180910390a3505050565b600073ffffffffffffffffffffffffffffffffffffffff168473ffffffffffffffffffffffffffffffffffffffff161415610e82576040517f08c379a0000000000000000000000000000000000000000000000000000000008152600401610e7990611e92565b60405180910390fd5b6000610e8c61092f565b90506000610e99856112a5565b90506000610ea6856112a5565b9050610eb68389898585896110ae565b600080600088815260200190815260200160002060008a73ffffffffffffffffffffffffffffffffffffffff1673ffffffffffffffffffffffffffffffffffffffff16815260200190815260200160002054905085811015610f4d576040517f08c379a0000000000000000000000000000000000000000000000000000000008152600401610f4490611ed2565b60405180910390fd5b85810360008089815260200190815260200160002060008b73ffffffffffffffffffffffffffffffffffffffff1673ffffffffffffffffffffffffffffffffffffffff168152602001908152602001600020819055508560008089815260200190815260200160002060008a73ffffffffffffffffffffffffffffffffffffffff1673ffffffffffffffffffffffffffffffffffffffff168152602001908152602001600020600082825461100291906120b5565b925050819055508773ffffffffffffffffffffffffffffffffffffffff168973ffffffffffffffffffffffffffffffffffffffff168573ffffffffffffffffffffffffffffffffffffffff167fc3d58168c5ae7397731d063d5bbf3d657854427343f4c083240f7aacaa2d0f628a8a60405161107f929190611f6d565b60405180910390a4611095848a8a86868a6110b6565b6110a3848a8a8a8a8a61136b565b505050505050505050565b505050505050565b505050505050565b6110dd8473ffffffffffffffffffffffffffffffffffffffff166108a2565b1561129d578373ffffffffffffffffffffffffffffffffffffffff1663bc197c8187878686866040518663ffffffff1660e01b8152600401611123959493929190611cba565b602060405180830381600087803b15801561113d57600080fd5b505af192505050801561116e57506040513d601f19601f8201168201806040525081019061116b91906119e6565b60015b6112145761117a6122fa565b806308c379a014156111d7575061118f612650565b8061119a57506111d9565b806040517f08c379a00000000000000000000000000000000000000000000000000000000081526004016111ce9190611df0565b60405180910390fd5b505b6040517f08c379a000000000000000000000000000000000000000000000000000000000815260040161120b90611e12565b60405180910390fd5b63bc197c8160e01b7bffffffffffffffffffffffffffffffffffffffffffffffffffffffff1916817bffffffffffffffffffffffffffffffffffffffffffffffffffffffff19161461129b576040517f08c379a000000000000000000000000000000000000000000000000000000000815260040161129290611e32565b60405180910390fd5b505b505050505050565b60606000600167ffffffffffffffff8111156112ea577f4e487b7100000000000000000000000000000000000000000000000000000000600052604160045260246000fd5b6040519080825280602002602001820160405280156113185781602001602082028036833780820191505090505b5090508281600081518110611356577f4e487b7100000000000000000000000000000000000000000000000000000000600052603260045260246000fd5b60200260200101818152505080915050919050565b61138a8473ffffffffffffffffffffffffffffffffffffffff166108a2565b1561154a578373ffffffffffffffffffffffffffffffffffffffff1663f23a6e6187878686866040518663ffffffff1660e01b81526004016113d0959493929190611d22565b602060405180830381600087803b1580156113ea57600080fd5b505af192505050801561141b57506040513d601f19601f8201168201806040525081019061141891906119e6565b60015b6114c1576114276122fa565b806308c379a01415611484575061143c612650565b806114475750611486565b806040517f08c379a000000000000000000000000000000000000000000000000000000000815260040161147b9190611df0565b60405180910390fd5b505b6040517f08c379a00000000000000000000000000000000000000000000000000000000081526004016114b890611e12565b60405180910390fd5b63f23a6e6160e01b7bffffffffffffffffffffffffffffffffffffffffffffffffffffffff1916817bffffffffffffffffffffffffffffffffffffffffffffffffffffffff191614611548576040517f08c379a000000000000000000000000000000000000000000000000000000000815260040161153f90611e32565b60405180910390fd5b505b505050505050565b600061156561156084611fbb565b611f96565b9050808382526020820190508285602086028201111561158457600080fd5b60005b858110156115b4578161159a8882611668565b845260208401935060208301925050600181019050611587565b5050509392505050565b60006115d16115cc84611fe7565b611f96565b905080838252602082019050828560208602820111156115f057600080fd5b60005b858110156116205781611606888261173a565b8452602084019350602083019250506001810190506115f3565b5050509392505050565b600061163d61163884612013565b611f96565b90508281526020810184848401111561165557600080fd5b61166084828561217f565b509392505050565b600081359050611677816126e6565b92915050565b600082601f83011261168e57600080fd5b813561169e848260208601611552565b91505092915050565b600082601f8301126116b857600080fd5b81356116c88482602086016115be565b91505092915050565b6000813590506116e0816126fd565b92915050565b6000813590506116f581612714565b92915050565b60008151905061170a81612714565b92915050565b600082601f83011261172157600080fd5b813561173184826020860161162a565b91505092915050565b6000813590506117498161272b565b92915050565b6000806040838503121561176257600080fd5b600061177085828601611668565b925050602061178185828601611668565b9150509250929050565b600080600080600060a086880312156117a357600080fd5b60006117b188828901611668565b95505060206117c288828901611668565b945050604086013567ffffffffffffffff8111156117df57600080fd5b6117eb888289016116a7565b935050606086013567ffffffffffffffff81111561180857600080fd5b611814888289016116a7565b925050608086013567ffffffffffffffff81111561183157600080fd5b61183d88828901611710565b9150509295509295909350565b600080600080600060a0868803121561186257600080fd5b600061187088828901611668565b955050602061188188828901611668565b94505060406118928882890161173a565b93505060606118a38882890161173a565b925050608086013567ffffffffffffffff8111156118c057600080fd5b6118cc88828901611710565b9150509295509295909350565b600080604083850312156118ec57600080fd5b60006118fa85828601611668565b925050602061190b858286016116d1565b9150509250929050565b6000806040838503121561192857600080fd5b600061193685828601611668565b92505060206119478582860161173a565b9150509250929050565b6000806040838503121561196457600080fd5b600083013567ffffffffffffffff81111561197e57600080fd5b61198a8582860161167d565b925050602083013567ffffffffffffffff8111156119a757600080fd5b6119b3858286016116a7565b9150509250929050565b6000602082840312156119cf57600080fd5b60006119dd848285016116e6565b91505092915050565b6000602082840312156119f857600080fd5b6000611a06848285016116fb565b91505092915050565b600060208284031215611a2157600080fd5b6000611a2f8482850161173a565b91505092915050565b6000611a448383611c9c565b60208301905092915050565b611a598161210b565b82525050565b6000611a6a82612054565b611a748185612082565b9350611a7f83612044565b8060005b83811015611ab0578151611a978882611a38565b9750611aa283612075565b925050600181019050611a83565b5085935050505092915050565b611ac68161211d565b82525050565b6000611ad78261205f565b611ae18185612093565b9350611af181856020860161218e565b611afa8161231c565b840191505092915050565b6000611b108261206a565b611b1a81856120a4565b9350611b2a81856020860161218e565b611b338161231c565b840191505092915050565b6000611b4b6034836120a4565b9150611b568261233a565b604082019050919050565b6000611b6e6028836120a4565b9150611b7982612389565b604082019050919050565b6000611b91602b836120a4565b9150611b9c826123d8565b604082019050919050565b6000611bb46029836120a4565b9150611bbf82612427565b604082019050919050565b6000611bd76025836120a4565b9150611be282612476565b604082019050919050565b6000611bfa6032836120a4565b9150611c05826124c5565b604082019050919050565b6000611c1d602a836120a4565b9150611c2882612514565b604082019050919050565b6000611c406029836120a4565b9150611c4b82612563565b604082019050919050565b6000611c636029836120a4565b9150611c6e826125b2565b604082019050919050565b6000611c866028836120a4565b9150611c9182612601565b604082019050919050565b611ca581612175565b82525050565b611cb481612175565b82525050565b600060a082019050611ccf6000830188611a50565b611cdc6020830187611a50565b8181036040830152611cee8186611a5f565b90508181036060830152611d028185611a5f565b90508181036080830152611d168184611acc565b90509695505050505050565b600060a082019050611d376000830188611a50565b611d446020830187611a50565b611d516040830186611cab565b611d5e6060830185611cab565b8181036080830152611d708184611acc565b90509695505050505050565b60006020820190508181036000830152611d968184611a5f565b905092915050565b60006040820190508181036000830152611db88185611a5f565b90508181036020830152611dcc8184611a5f565b90509392505050565b6000602082019050611dea6000830184611abd565b92915050565b60006020820190508181036000830152611e0a8184611b05565b905092915050565b60006020820190508181036000830152611e2b81611b3e565b9050919050565b60006020820190508181036000830152611e4b81611b61565b9050919050565b60006020820190508181036000830152611e6b81611b84565b9050919050565b60006020820190508181036000830152611e8b81611ba7565b9050919050565b60006020820190508181036000830152611eab81611bca565b9050919050565b60006020820190508181036000830152611ecb81611bed565b9050919050565b60006020820190508181036000830152611eeb81611c10565b9050919050565b60006020820190508181036000830152611f0b81611c33565b9050919050565b60006020820190508181036000830152611f2b81611c56565b9050919050565b60006020820190508181036000830152611f4b81611c79565b9050919050565b6000602082019050611f676000830184611cab565b92915050565b6000604082019050611f826000830185611cab565b611f8f6020830184611cab565b9392505050565b6000611fa0611fb1565b9050611fac82826121f3565b919050565b6000604051905090565b600067ffffffffffffffff821115611fd657611fd56122cb565b5b602082029050602081019050919050565b600067ffffffffffffffff821115612002576120016122cb565b5b602082029050602081019050919050565b600067ffffffffffffffff82111561202e5761202d6122cb565b5b6120378261231c565b9050602081019050919050565b6000819050602082019050919050565b600081519050919050565b600081519050919050565b600081519050919050565b6000602082019050919050565b600082825260208201905092915050565b600082825260208201905092915050565b600082825260208201905092915050565b60006120c082612175565b91506120cb83612175565b9250827fffffffffffffffffffffffffffffffffffffffffffffffffffffffffffffffff03821115612100576120ff61226d565b5b828201905092915050565b600061211682612155565b9050919050565b60008115159050919050565b60007fffffffff0000000000000000000000000000000000000000000000000000000082169050919050565b600073ffffffffffffffffffffffffffffffffffffffff82169050919050565b6000819050919050565b82818337600083830152505050565b60005b838110156121ac578082015181840152602081019050612191565b838111156121bb576000848401525b50505050565b600060028204905060018216806121d957607f821691505b602082108114156121ed576121ec61229c565b5b50919050565b6121fc8261231c565b810181811067ffffffffffffffff8211171561221b5761221a6122cb565b5b80604052505050565b600061222f82612175565b91507fffffffffffffffffffffffffffffffffffffffffffffffffffffffffffffffff8214156122625761226161226d565b5b600182019050919050565b7f4e487b7100000000000000000000000000000000000000000000000000000000600052601160045260246000fd5b7f4e487b7100000000000000000000000000000000000000000000000000000000600052602260045260246000fd5b7f4e487b7100000000000000000000000000000000000000000000000000000000600052604160045260246000fd5b600060033d11156123195760046000803e61231660005161232d565b90505b90565b6000601f19601f8301169050919050565b60008160e01c9050919050565b7f455243313135353a207472616e7366657220746f206e6f6e204552433131353560008201527f526563656976657220696d706c656d656e746572000000000000000000000000602082015250565b7f455243313135353a204552433131353552656365697665722072656a6563746560008201527f6420746f6b656e73000000000000000000000000000000000000000000000000602082015250565b7f455243313135353a2062616c616e636520717565727920666f7220746865207a60008201527f65726f2061646472657373000000000000000000000000000000000000000000602082015250565b7f455243313135353a2063616c6c6572206973206e6f74206f776e6572206e6f7260008201527f20617070726f7665640000000000000000000000000000000000000000000000602082015250565b7f455243313135353a207472616e7366657220746f20746865207a65726f20616460008201527f6472657373000000000000000000000000000000000000000000000000000000602082015250565b7f455243313135353a207472616e736665722063616c6c6572206973206e6f742060008201527f6f776e6572206e6f7220617070726f7665640000000000000000000000000000602082015250565b7f455243313135353a20696e73756666696369656e742062616c616e636520666f60008201527f72207472616e7366657200000000000000000000000000000000000000000000602082015250565b7f455243313135353a2073657474696e6720617070726f76616c2073746174757360008201527f20666f722073656c660000000000000000000000000000000000000000000000602082015250565b7f455243313135353a206163636f756e747320616e6420696473206c656e67746860008201527f206d69736d617463680000000000000000000000000000000000000000000000602082015250565b7f455243313135353a2069647320616e6420616d6f756e7473206c656e6774682060008201527f6d69736d61746368000000000000000000000000000000000000000000000000602082015250565b600060443d1015612660576126e3565b612668611fb1565b60043d036004823e80513d602482011167ffffffffffffffff821117156126905750506126e3565b808201805167ffffffffffffffff8111156126ae57505050506126e3565b80602083010160043d0385018111156126cb5750505050506126e3565b6126da826020018501866121f3565b82955050505050505b90565b6126ef8161210b565b81146126fa57600080fd5b50565b6127068161211d565b811461271157600080fd5b50565b61271d81612129565b811461272857600080fd5b50565b61273481612175565b811461273f57600080fd5b5056fea2646970667358221220b45ab6a1fac00132b9cb582d76355801de76c9a13df344df1950bc0429b1290c64736f6c6343000804003368747470733a2f2f67616d652e6578616d706c652f6170692f6974656d2f7b69647d2e6a736f6e",
  "linkReferences": {},
  "deployedLinkReferences": {}
}