{
  "_format": "hh-sol-artifact-1",
  "contractName": "ERC1155Handler",
  "sourceName": "contracts/handler/ERC1155.sol",
  "abi": [
    {
      "inputs": [
        {
          "internalType": "bytes32",
          "name": "resourceID_",
          "type": "bytes32"
        },
        {
          "internalType": "address",
          "name": "bridgeAddress_",
          "type": "address"
        },
        {
          "internalType": "address",
          "name": "tokenAddress_",
          "type": "address"
        },
        {
          "internalType": "address",
          "name": "targetHandler_",
          "type": "address"
        },
        {
          "internalType": "bool",
          "name": "burnable_",
          "type": "bool"
        }
      ],
      "stateMutability": "nonpayable",
      "type": "constructor"
    },
    {
      "anonymous": false,
      "inputs": [
        {
          "indexed": true,
          "internalType": "address",
          "name": "previousOwner",
          "type": "address"
        },
        {
          "indexed": true,
          "internalType": "address",
          "name": "newOwner",
          "type": "address"
        }
      ],
      "name": "OwnershipTransferred",
      "type": "event"
    },
    {
      "inputs": [
        {
          "internalType": "address",
          "name": "bridgeAddress_",
          "type": "address"
        },
        {
          "internalType": "address",
          "name": "tokenAddress_",
          "type": "address"
        },
        {
          "internalType": "address",
          "name": "targetHandler_",
          "type": "address"
        },
        {
          "internalType": "bool",
          "name": "burnable_",
          "type": "bool"
        }
      ],
      "name": "adminSetConfig",
      "outputs": [],
      "stateMutability": "nonpayable",
      "type": "function"
    },
    {
      "inputs": [],
      "name": "bridgeAddress",
      "outputs": [
        {
          "internalType": "address",
          "name": "",
          "type": "address"
        }
      ],
      "stateMutability": "view",
      "type": "function"
    },
    {
      "inputs": [],
      "name": "burnable",
      "outputs": [
        {
          "internalType": "bool",
          "name": "",
          "type": "bool"
        }
      ],
      "stateMutability": "view",
      "type": "function"
    },
    {
      "inputs": [
        {
          "internalType": "bytes32",
          "name": "_resourceID",
          "type": "bytes32"
        },
        {
          "internalType": "uint32",
          "name": "targetChainId",
          "type": "uint32"
        },
        {
          "internalType": "uint256[]",
          "name": "tokenIDs",
          "type": "uint256[]"
        },
        {
          "internalType": "uint256[]",
          "name": "amounts",
          "type": "uint256[]"
        }
      ],
      "name": "deposit",
      "outputs": [
        {
          "internalType": "bytes32",
          "name": "",
          "type": "bytes32"
        }
      ],
      "stateMutability": "nonpayable",
      "type": "function"
    },
    {
      "inputs": [
        {
          "internalType": "bytes32",
          "name": "_resourceID",
          "type": "bytes32"
        },
        {
          "internalType": "bytes",
          "name": "data",
          "type": "bytes"
        }
      ],
      "name": "execute",
      "outputs": [],
      "stateMutability": "nonpayable",
      "type": "function"
    },
    {
      "inputs": [
        {
          "internalType": "address",
          "name": "",
          "type": "address"
        },
        {
          "internalType": "address",
          "name": "",
          "type": "address"
        },
        {
          "internalType": "uint256[]",
          "name": "",
          "type": "uint256[]"
        },
        {
          "internalType": "uint256[]",
          "name": "",
          "type": "uint256[]"
        },
        {
          "internalType": "bytes",
          "name": "",
          "type": "bytes"
        }
      ],
      "name": "onERC1155BatchReceived",
      "outputs": [
        {
          "internalType": "bytes4",
          "name": "",
          "type": "bytes4"
        }
      ],
      "stateMutability": "nonpayable",
      "type": "function"
    },
    {
      "inputs": [
        {
          "internalType": "address",
          "name": "",
          "type": "address"
        },
        {
          "internalType": "address",
          "name": "",
          "type": "address"
        },
        {
          "internalType": "uint256",
          "name": "",
          "type": "uint256"
        },
        {
          "internalType": "uint256",
          "name": "",
          "type": "uint256"
        },
        {
          "internalType": "bytes",
          "name": "",
          "type": "bytes"
        }
      ],
      "name": "onERC1155Received",
      "outputs": [
        {
          "internalType": "bytes4",
          "name": "",
          "type": "bytes4"
        }
      ],
      "stateMutability": "nonpayable",
      "type": "function"
    },
    {
      "inputs": [],
      "name": "owner",
      "outputs": [
        {
          "internalType": "address",
          "name": "",
          "type": "address"
        }
      ],
      "stateMutability": "view",
      "type": "function"
    },
    {
      "inputs": [],
      "name": "renounceOwnership",
      "outputs": [],
      "stateMutability": "nonpayable",
      "type": "function"
    },
    {
      "inputs": [],
      "name": "resourceID",
      "outputs": [
        {
          "internalType": "bytes32",
          "name": "",
          "type": "bytes32"
        }
      ],
      "stateMutability": "view",
      "type": "function"
    },
    {
      "inputs": [
        {
          "internalType": "bytes4",
          "name": "interfaceId",
          "type": "bytes4"
        }
      ],
      "name": "supportsInterface",
      "outputs": [
        {
          "internalType": "bool",
          "name": "",
          "type": "bool"
        }
      ],
      "stateMutability": "view",
      "type": "function"
    },
    {
      "inputs": [],
      "name": "targetHandler",
      "outputs": [
        {
          "internalType": "address",
          "name": "",
          "type": "address"
        }
      ],
      "stateMutability": "view",
      "type": "function"
    },
    {
      "inputs": [],
      "name": "tokenAddress",
      "outputs": [
        {
          "internalType": "address",
          "name": "",
          "type": "address"
        }
      ],
      "stateMutability": "view",
      "type": "function"
    },
    {
      "inputs": [
        {
          "internalType": "address",
          "name": "newOwner",
          "type": "address"
        }
      ],
      "name": "transferOwnership",
      "outputs": [],
      "stateMutability": "nonpayable",
      "type": "function"
    }
  ],
  "bytecode": "0x60806040523480156200001157600080fd5b506040516200216838038062002168833981810160405281019062000037919062000261565b84848484846200005c620000506200015060201b60201c565b6200015860201b60201c565b8460018190555083600260006101000a81548173ffffffffffffffffffffffffffffffffffffffff021916908373ffffffffffffffffffffffffffffffffffffffff16021790555082600360006101000a81548173ffffffffffffffffffffffffffffffffffffffff021916908373ffffffffffffffffffffffffffffffffffffffff16021790555081600460006101000a81548173ffffffffffffffffffffffffffffffffffffffff021916908373ffffffffffffffffffffffffffffffffffffffff16021790555080600460146101000a81548160ff021916908315150217905550505050505050505050506200037b565b600033905090565b60008060009054906101000a900473ffffffffffffffffffffffffffffffffffffffff169050816000806101000a81548173ffffffffffffffffffffffffffffffffffffffff021916908373ffffffffffffffffffffffffffffffffffffffff1602179055508173ffffffffffffffffffffffffffffffffffffffff168173ffffffffffffffffffffffffffffffffffffffff167f8be0079c531659141344cd1fd0a4f28419497f9722a3daafe3b4186f6b6457e060405160405180910390a35050565b6000815190506200022d816200032d565b92915050565b600081519050620002448162000347565b92915050565b6000815190506200025b8162000361565b92915050565b600080600080600060a086880312156200027a57600080fd5b60006200028a888289016200024a565b95505060206200029d888289016200021c565b9450506040620002b0888289016200021c565b9350506060620002c3888289016200021c565b9250506080620002d68882890162000233565b9150509295509295909350565b6000620002f0826200030d565b9050919050565b60008115159050919050565b6000819050919050565b600073ffffffffffffffffffffffffffffffffffffffff82169050919050565b6200033881620002e3565b81146200034457600080fd5b50565b6200035281620002f7565b81146200035e57600080fd5b50565b6200036c8162000303565b81146200037857600080fd5b50565b611ddd806200038b6000396000f3fe608060405234801561001057600080fd5b50600436106100ea5760003560e01c8063a3c573eb1161008c578063e9ae5c5311610066578063e9ae5c531461023b578063f23a6e6114610257578063f2fde38b14610287578063fab28c1c146102a3576100ea565b8063a3c573eb146101d1578063ad030b67146101ef578063bc197c811461020b576100ea565b8063715018a6116100c8578063715018a61461016d5780638da5cb5b146101775780639d76ea5814610195578063a07c7ce4146101b3576100ea565b806301ffc9a7146100ef5780631d80409e1461011f57806361c13a3f1461013d575b600080fd5b6101096004803603810190610104919061140e565b6102c1565b6040516101169190611883565b60405180910390f35b61012761033b565b6040516101349190611697565b60405180910390f35b61015760048036038101906101529190611373565b610361565b604051610164919061189e565b60405180910390f35b61017561073e565b005b61017f6107c6565b60405161018c9190611697565b60405180910390f35b61019d6107ef565b6040516101aa9190611697565b60405180910390f35b6101bb610815565b6040516101c89190611883565b60405180910390f35b6101d9610828565b6040516101e69190611697565b60405180910390f35b61020960048036038101906102049190611141565b61084e565b005b610225600480360381019061022091906111a4565b6109ad565b6040516102329190611905565b60405180910390f35b6102556004803603810190610250919061131b565b6109c2565b005b610271600480360381019061026c9190611263565b610b82565b60405161027e9190611905565b60405180910390f35b6102a1600480360381019061029c919061106d565b610b97565b005b6102ab610c8f565b6040516102b8919061189e565b60405180910390f35b60007f4e2312e0000000000000000000000000000000000000000000000000000000007bffffffffffffffffffffffffffffffffffffffffffffffffffffffff1916827bffffffffffffffffffffffffffffffffffffffffffffffffffffffff19161480610334575061033382610c95565b5b9050919050565b600460009054906101000a900473ffffffffffffffffffffffffffffffffffffffff1681565b600086600154146103a7576040517f08c379a000000000000000000000000000000000000000000000000000000000815260040161039e9061193b565b60405180910390fd5b600260009054906101000a900473ffffffffffffffffffffffffffffffffffffffff1673ffffffffffffffffffffffffffffffffffffffff163373ffffffffffffffffffffffffffffffffffffffff1614610437576040517f08c379a000000000000000000000000000000000000000000000000000000000815260040161042e9061199b565b60405180910390fd5b6060600460149054906101000a900460ff16156104ee576000600360009054906101000a900473ffffffffffffffffffffffffffffffffffffffff1690508073ffffffffffffffffffffffffffffffffffffffff16636b20c45433898989896040518663ffffffff1660e01b81526004016104b6959493929190611782565b600060405180830381600087803b1580156104d057600080fd5b505af11580156104e4573d6000803e3d6000fd5b505050505061061f565b6000600360009054906101000a900473ffffffffffffffffffffffffffffffffffffffff1690508073ffffffffffffffffffffffffffffffffffffffff16630e89341c60006040518263ffffffff1660e01b815260040161054f9190611920565b600060405180830381600087803b15801561056957600080fd5b505af115801561057d573d6000803e3d6000fd5b505050506040513d6000823e3d601f19601f820116820180604052508101906105a69190611437565b91508073ffffffffffffffffffffffffffffffffffffffff16632eb2c2d633308a8a8a8a6040518763ffffffff1660e01b81526004016105eb969594939291906116b2565b600060405180830381600087803b15801561060557600080fd5b505af1158015610619573d6000803e3d6000fd5b50505050505b600033878787878660405160200161063c969594939291906117cb565b60405160208183030381529060405290506000600260009054906101000a900473ffffffffffffffffffffffffffffffffffffffff16905060008173ffffffffffffffffffffffffffffffffffffffff1663b0aaa1536001548c600460009054906101000a900473ffffffffffffffffffffffffffffffffffffffff16876040518563ffffffff1660e01b81526004016106d994939291906118b9565b602060405180830381600087803b1580156106f357600080fd5b505af1158015610707573d6000803e3d6000fd5b505050506040513d601f19601f8201168201806040525081019061072b91906112f2565b9050809450505050509695505050505050565b610746610cff565b73ffffffffffffffffffffffffffffffffffffffff166107646107c6565b73ffffffffffffffffffffffffffffffffffffffff16146107ba576040517f08c379a00000000000000000000000000000000000000000000000000000000081526004016107b19061197b565b60405180910390fd5b6107c46000610d07565b565b60008060009054906101000a900473ffffffffffffffffffffffffffffffffffffffff16905090565b600360009054906101000a900473ffffffffffffffffffffffffffffffffffffffff1681565b600460149054906101000a900460ff1681565b600260009054906101000a900473ffffffffffffffffffffffffffffffffffffffff1681565b610856610cff565b73ffffffffffffffffffffffffffffffffffffffff166108746107c6565b73ffffffffffffffffffffffffffffffffffffffff16146108ca576040517f08c379a00000000000000000000000000000000000000000000000000000000081526004016108c19061197b565b60405180910390fd5b83600260006101000a81548173ffffffffffffffffffffffffffffffffffffffff021916908373ffffffffffffffffffffffffffffffffffffffff16021790555082600360006101000a81548173ffffffffffffffffffffffffffffffffffffffff021916908373ffffffffffffffffffffffffffffffffffffffff16021790555081600460006101000a81548173ffffffffffffffffffffffffffffffffffffffff021916908373ffffffffffffffffffffffffffffffffffffffff16021790555080600460146101000a81548160ff02191690831515021790555050505050565b600063bc197c8160e01b905095945050505050565b8260015414610a06576040517f08c379a00000000000000000000000000000000000000000000000000000000081526004016109fd9061193b565b60405180910390fd5b600060608060608585810190610a1c9190611096565b80945081955082965083975050505050600460149054906101000a900460ff1615610adf576000600360009054906101000a900473ffffffffffffffffffffffffffffffffffffffff1690508073ffffffffffffffffffffffffffffffffffffffff16631f7fdffa868686866040518563ffffffff1660e01b8152600401610aa79493929190611829565b600060405180830381600087803b158015610ac157600080fd5b505af1158015610ad5573d6000803e3d6000fd5b5050505050610b79565b6000600360009054906101000a900473ffffffffffffffffffffffffffffffffffffffff1690508073ffffffffffffffffffffffffffffffffffffffff16632eb2c2d6308787876040518563ffffffff1660e01b8152600401610b45949392919061171c565b600060405180830381600087803b158015610b5f57600080fd5b505af1158015610b73573d6000803e3d6000fd5b50505050505b50505050505050565b600063f23a6e6160e01b905095945050505050565b610b9f610cff565b73ffffffffffffffffffffffffffffffffffffffff16610bbd6107c6565b73ffffffffffffffffffffffffffffffffffffffff1614610c13576040517f08c379a0000000000000000000000000000000000000000000000000000000008152600401610c0a9061197b565b60405180910390fd5b600073ffffffffffffffffffffffffffffffffffffffff168173ffffffffffffffffffffffffffffffffffffffff161415610c83576040517f08c379a0000000000000000000000000000000000000000000000000000000008152600401610c7a9061195b565b60405180910390fd5b610c8c81610d07565b50565b60015481565b60007f01ffc9a7000000000000000000000000000000000000000000000000000000007bffffffffffffffffffffffffffffffffffffffffffffffffffffffff1916827bffffffffffffffffffffffffffffffffffffffffffffffffffffffff1916149050919050565b600033905090565b60008060009054906101000a900473ffffffffffffffffffffffffffffffffffffffff169050816000806101000a81548173ffffffffffffffffffffffffffffffffffffffff021916908373ffffffffffffffffffffffffffffffffffffffff1602179055508173ffffffffffffffffffffffffffffffffffffffff168173ffffffffffffffffffffffffffffffffffffffff167f8be0079c531659141344cd1fd0a4f28419497f9722a3daafe3b4186f6b6457e060405160405180910390a35050565b6000610dde610dd9846119e0565b6119bb565b90508083825260208201905082856020860282011115610dfd57600080fd5b60005b85811015610e2d5781610e138882611043565b845260208401935060208301925050600181019050610e00565b5050509392505050565b6000610e4a610e4584611a0c565b6119bb565b905082815260208101848484011115610e6257600080fd5b610e6d848285611b86565b509392505050565b6000610e88610e8384611a3d565b6119bb565b905082815260208101848484011115610ea057600080fd5b610eab848285611b95565b509392505050565b600081359050610ec281611d06565b92915050565b600081359050610ed781611d1d565b92915050565b60008083601f840112610eef57600080fd5b8235905067ffffffffffffffff811115610f0857600080fd5b602083019150836020820283011115610f2057600080fd5b9250929050565b600082601f830112610f3857600080fd5b8135610f48848260208601610dcb565b91505092915050565b600081359050610f6081611d34565b92915050565b600081359050610f7581611d4b565b92915050565b600081519050610f8a81611d4b565b92915050565b600081359050610f9f81611d62565b92915050565b60008083601f840112610fb757600080fd5b8235905067ffffffffffffffff811115610fd057600080fd5b602083019150836001820283011115610fe857600080fd5b9250929050565b600082601f83011261100057600080fd5b8135611010848260208601610e37565b91505092915050565b600082601f83011261102a57600080fd5b815161103a848260208601610e75565b91505092915050565b60008135905061105281611d79565b92915050565b60008135905061106781611d90565b92915050565b60006020828403121561107f57600080fd5b600061108d84828501610eb3565b91505092915050565b600080600080608085870312156110ac57600080fd5b60006110ba87828801610ec8565b945050602085013567ffffffffffffffff8111156110d757600080fd5b6110e387828801610f27565b935050604085013567ffffffffffffffff81111561110057600080fd5b61110c87828801610f27565b925050606085013567ffffffffffffffff81111561112957600080fd5b61113587828801610fef565b91505092959194509250565b6000806000806080858703121561115757600080fd5b600061116587828801610eb3565b945050602061117687828801610eb3565b935050604061118787828801610eb3565b925050606061119887828801610f51565b91505092959194509250565b600080600080600060a086880312156111bc57600080fd5b60006111ca88828901610eb3565b95505060206111db88828901610eb3565b945050604086013567ffffffffffffffff8111156111f857600080fd5b61120488828901610f27565b935050606086013567ffffffffffffffff81111561122157600080fd5b61122d88828901610f27565b925050608086013567ffffffffffffffff81111561124a57600080fd5b61125688828901610fef565b9150509295509295909350565b600080600080600060a0868803121561127b57600080fd5b600061128988828901610eb3565b955050602061129a88828901610eb3565b94505060406112ab88828901611043565b93505060606112bc88828901611043565b925050608086013567ffffffffffffffff8111156112d957600080fd5b6112e588828901610fef565b9150509295509295909350565b60006020828403121561130457600080fd5b600061131284828501610f7b565b91505092915050565b60008060006040848603121561133057600080fd5b600061133e86828701610f66565b935050602084013567ffffffffffffffff81111561135b57600080fd5b61136786828701610fa5565b92509250509250925092565b6000806000806000806080878903121561138c57600080fd5b600061139a89828a01610f66565b96505060206113ab89828a01611058565b955050604087013567ffffffffffffffff8111156113c857600080fd5b6113d489828a01610edd565b9450945050606087013567ffffffffffffffff8111156113f357600080fd5b6113ff89828a01610edd565b92509250509295509295509295565b60006020828403121561142057600080fd5b600061142e84828501610f90565b91505092915050565b60006020828403121561144957600080fd5b600082015167ffffffffffffffff81111561146357600080fd5b61146f84828501611019565b91505092915050565b60006114848383611679565b60208301905092915050565b61149981611ad4565b82525050565b60006114ab8385611aa1565b93507f07ffffffffffffffffffffffffffffffffffffffffffffffffffffffffffffff8311156114da57600080fd5b6020830292506114eb838584611b86565b82840190509392505050565b600061150282611a7e565b61150c8185611aa1565b935061151783611a6e565b8060005b8381101561154857815161152f8882611478565b975061153a83611a94565b92505060018101905061151b565b5085935050505092915050565b61155e81611af8565b82525050565b61156d81611b04565b82525050565b61157c81611b0e565b82525050565b600061158d82611a89565b6115978185611ab2565b93506115a7818560208601611b95565b6115b081611c28565b840191505092915050565b6115c481611b74565b82525050565b60006115d7601083611ac3565b91506115e282611c39565b602082019050919050565b60006115fa602683611ac3565b915061160582611c62565b604082019050919050565b600061161d602083611ac3565b915061162882611cb1565b602082019050919050565b6000611640601583611ac3565b915061164b82611cda565b602082019050919050565b6000611663600083611ab2565b915061166e82611d03565b600082019050919050565b61168281611b5a565b82525050565b61169181611b64565b82525050565b60006020820190506116ac6000830184611490565b92915050565b600060a0820190506116c76000830189611490565b6116d46020830188611490565b81810360408301526116e781868861149f565b905081810360608301526116fc81848661149f565b9050818103608083015261170f81611656565b9050979650505050505050565b600060a0820190506117316000830187611490565b61173e6020830186611490565b818103604083015261175081856114f7565b9050818103606083015261176481846114f7565b9050818103608083015261177781611656565b905095945050505050565b60006060820190506117976000830188611490565b81810360208301526117aa81868861149f565b905081810360408301526117bf81848661149f565b90509695505050505050565b60006080820190506117e06000830189611490565b81810360208301526117f381878961149f565b9050818103604083015261180881858761149f565b9050818103606083015261181c8184611582565b9050979650505050505050565b600060808201905061183e6000830187611490565b818103602083015261185081866114f7565b9050818103604083015261186481856114f7565b905081810360608301526118788184611582565b905095945050505050565b60006020820190506118986000830184611555565b92915050565b60006020820190506118b36000830184611564565b92915050565b60006080820190506118ce6000830187611564565b6118db6020830186611688565b6118e86040830185611490565b81810360608301526118fa8184611582565b905095945050505050565b600060208201905061191a6000830184611573565b92915050565b600060208201905061193560008301846115bb565b92915050565b60006020820190508181036000830152611954816115ca565b9050919050565b60006020820190508181036000830152611974816115ed565b9050919050565b6000602082019050818103600083015261199481611610565b9050919050565b600060208201905081810360008301526119b481611633565b9050919050565b60006119c56119d6565b90506119d18282611bc8565b919050565b6000604051905090565b600067ffffffffffffffff8211156119fb576119fa611bf9565b5b602082029050602081019050919050565b600067ffffffffffffffff821115611a2757611a26611bf9565b5b611a3082611c28565b9050602081019050919050565b600067ffffffffffffffff821115611a5857611a57611bf9565b5b611a6182611c28565b9050602081019050919050565b6000819050602082019050919050565b600081519050919050565b600081519050919050565b6000602082019050919050565b600082825260208201905092915050565b600082825260208201905092915050565b600082825260208201905092915050565b6000611adf82611b3a565b9050919050565b6000611af182611b3a565b9050919050565b60008115159050919050565b6000819050919050565b60007fffffffff0000000000000000000000000000000000000000000000000000000082169050919050565b600073ffffffffffffffffffffffffffffffffffffffff82169050919050565b6000819050919050565b600063ffffffff82169050919050565b6000611b7f82611b5a565b9050919050565b82818337600083830152505050565b60005b83811015611bb3578082015181840152602081019050611b98565b83811115611bc2576000848401525b50505050565b611bd182611c28565b810181811067ffffffffffffffff82111715611bf057611bef611bf9565b5b80604052505050565b7f4e487b7100000000000000000000000000000000000000000000000000000000600052604160045260246000fd5b6000601f19601f8301169050919050565b7f7265736f757263654944206572726f7200000000000000000000000000000000600082015250565b7f4f776e61626c653a206e6577206f776e657220697320746865207a65726f206160008201527f6464726573730000000000000000000000000000000000000000000000000000602082015250565b7f4f776e61626c653a2063616c6c6572206973206e6f7420746865206f776e6572600082015250565b7f6f6e6c792063616c6c6564206279206272696467650000000000000000000000600082015250565b50565b611d0f81611ad4565b8114611d1a57600080fd5b50565b611d2681611ae6565b8114611d3157600080fd5b50565b611d3d81611af8565b8114611d4857600080fd5b50565b611d5481611b04565b8114611d5f57600080fd5b50565b611d6b81611b0e565b8114611d7657600080fd5b50565b611d8281611b5a565b8114611d8d57600080fd5b50565b611d9981611b64565b8114611da457600080fd5b5056fea26469706673582212209d76c35676fe07f9b6546a5cff950de80d8e7aabd13e7aed6624b4f540a7d30e64736f6c63430008040033",
  "linkReferences": {},
  "deployedLinkReferences": {}
}